{
  "_format": "hh-sol-artifact-1",
  "contractName": "LotteryFactory",
  "sourceName": "contracts/LotteryFactory.sol",
  "abi": [
    {
      "inputs": [],
      "stateMutability": "nonpayable",
      "type": "constructor"
    },
    {
      "inputs": [],
      "name": "EnforcedPause",
      "type": "error"
    },
    {
      "inputs": [],
      "name": "ExpectedPause",
      "type": "error"
    },
    {
      "inputs": [],
      "name": "FailedDeployment",
      "type": "error"
    },
    {
      "inputs": [
        {
          "internalType": "uint256",
          "name": "balance",
          "type": "uint256"
        },
        {
          "internalType": "uint256",
          "name": "needed",
          "type": "uint256"
        }
      ],
      "name": "InsufficientBalance",
      "type": "error"
    },
    {
      "inputs": [],
      "name": "InvalidInitialization",
      "type": "error"
    },
    {
      "inputs": [],
      "name": "NotInitializing",
      "type": "error"
    },
    {
      "inputs": [
        {
          "internalType": "address",
          "name": "owner",
          "type": "address"
        }
      ],
      "name": "OwnableInvalidOwner",
      "type": "error"
    },
    {
      "inputs": [
        {
          "internalType": "address",
          "name": "account",
          "type": "address"
        }
      ],
      "name": "OwnableUnauthorizedAccount",
      "type": "error"
    },
    {
      "inputs": [],
      "name": "ReentrancyGuardReentrantCall",
      "type": "error"
    },
    {
      "anonymous": false,
      "inputs": [
        {
          "indexed": false,
          "internalType": "uint64",
          "name": "version",
          "type": "uint64"
        }
      ],
      "name": "Initialized",
      "type": "event"
    },
    {
      "anonymous": false,
      "inputs": [
        {
          "indexed": true,
          "internalType": "address",
          "name": "e_lotteryAddress",
          "type": "address"
        }
      ],
      "name": "NewLottery",
      "type": "event"
    },
    {
      "anonymous": false,
      "inputs": [
        {
          "indexed": true,
          "internalType": "address",
          "name": "previousOwner",
          "type": "address"
        },
        {
          "indexed": true,
          "internalType": "address",
          "name": "newOwner",
          "type": "address"
        }
      ],
      "name": "OwnershipTransferred",
      "type": "event"
    },
    {
      "anonymous": false,
      "inputs": [
        {
          "indexed": false,
          "internalType": "address",
          "name": "account",
          "type": "address"
        }
      ],
      "name": "Paused",
      "type": "event"
    },
    {
      "anonymous": false,
      "inputs": [
        {
          "indexed": false,
          "internalType": "address",
          "name": "account",
          "type": "address"
        }
      ],
      "name": "Unpaused",
      "type": "event"
    },
    {
      "inputs": [
        {
          "internalType": "address",
          "name": "p_lotteryAddress",
          "type": "address"
        },
        {
          "internalType": "uint128",
          "name": "p_numberBoxes",
          "type": "uint128"
        },
        {
          "internalType": "address",
          "name": "p_buyer",
          "type": "address"
        },
        {
          "internalType": "address",
          "name": "p_sponsor",
          "type": "address"
        }
      ],
      "name": "buyBoxes",
      "outputs": [],
      "stateMutability": "nonpayable",
      "type": "function"
    },
    {
      "inputs": [
        {
          "internalType": "address",
          "name": "p_lotteryAddress",
          "type": "address"
        }
      ],
      "name": "completed",
      "outputs": [
        {
          "internalType": "bool",
          "name": "",
          "type": "bool"
        }
      ],
      "stateMutability": "view",
      "type": "function"
    },
    {
      "inputs": [
        {
          "internalType": "string",
          "name": "p_name",
          "type": "string"
        },
        {
          "internalType": "string",
          "name": "p_symbol",
          "type": "string"
        },
        {
          "internalType": "uint128",
          "name": "p_totalBoxes",
          "type": "uint128"
        },
        {
          "internalType": "address",
          "name": "p_stableCoin",
          "type": "address"
        },
        {
          "internalType": "uint128",
          "name": "p_boxPrice",
          "type": "uint128"
        },
        {
          "internalType": "uint256",
          "name": "p_percentageWinner",
          "type": "uint256"
        },
        {
          "internalType": "uint256",
          "name": "p_percentageSponsorWinner",
          "type": "uint256"
        },
        {
          "components": [
            {
              "internalType": "uint128",
              "name": "boxes1",
              "type": "uint128"
            },
            {
              "internalType": "uint128",
              "name": "percentage1",
              "type": "uint128"
            },
            {
              "internalType": "uint128",
              "name": "boxes2",
              "type": "uint128"
            },
            {
              "internalType": "uint128",
              "name": "percentage2",
              "type": "uint128"
            },
            {
              "internalType": "uint128",
              "name": "boxes3",
              "type": "uint128"
            },
            {
              "internalType": "uint128",
              "name": "percentage3",
              "type": "uint128"
            }
          ],
          "internalType": "struct ILottery.IncentiveMaxBuyer",
          "name": "p_incentiveMaxBuyer",
          "type": "tuple"
        },
        {
          "internalType": "uint256",
          "name": "p_incentivePercentageMaxSponsors",
          "type": "uint256"
        },
        {
          "internalType": "uint256",
          "name": "p_year",
          "type": "uint256"
        }
      ],
      "name": "createLottery",
      "outputs": [],
      "stateMutability": "nonpayable",
      "type": "function"
    },
    {
      "inputs": [
        {
          "internalType": "uint256",
          "name": "p_year",
          "type": "uint256"
        }
      ],
      "name": "getAllLotteries",
      "outputs": [
        {
          "internalType": "address[]",
          "name": "",
          "type": "address[]"
        }
      ],
      "stateMutability": "view",
      "type": "function"
    },
    {
      "inputs": [
        {
          "internalType": "uint256",
          "name": "p_year",
          "type": "uint256"
        }
      ],
      "name": "getLotteriesCount",
      "outputs": [
        {
          "internalType": "uint256",
          "name": "",
          "type": "uint256"
        }
      ],
      "stateMutability": "view",
      "type": "function"
    },
    {
      "inputs": [
        {
          "internalType": "uint256",
          "name": "p_index",
          "type": "uint256"
        },
        {
          "internalType": "uint256",
          "name": "p_year",
          "type": "uint256"
        }
      ],
      "name": "getLotteryAddress",
      "outputs": [
        {
          "internalType": "address",
          "name": "",
          "type": "address"
        }
      ],
      "stateMutability": "view",
      "type": "function"
    },
    {
      "inputs": [],
      "name": "getMiddleware",
      "outputs": [
        {
          "internalType": "address",
          "name": "",
          "type": "address"
        }
      ],
      "stateMutability": "view",
      "type": "function"
    },
    {
      "inputs": [
        {
          "internalType": "address",
          "name": "p_lotteryAddress",
          "type": "address"
        }
      ],
      "name": "infoIncentiveMaxBuyer",
      "outputs": [
        {
          "components": [
            {
              "internalType": "uint128",
              "name": "boxes1",
              "type": "uint128"
            },
            {
              "internalType": "uint128",
              "name": "percentage1",
              "type": "uint128"
            },
            {
              "internalType": "uint128",
              "name": "boxes2",
              "type": "uint128"
            },
            {
              "internalType": "uint128",
              "name": "percentage2",
              "type": "uint128"
            },
            {
              "internalType": "uint128",
              "name": "boxes3",
              "type": "uint128"
            },
            {
              "internalType": "uint128",
              "name": "percentage3",
              "type": "uint128"
            }
          ],
          "internalType": "struct ILottery.IncentiveMaxBuyer",
          "name": "",
          "type": "tuple"
        }
      ],
      "stateMutability": "view",
      "type": "function"
    },
    {
      "inputs": [
        {
          "internalType": "address",
          "name": "p_lotteryAddress",
          "type": "address"
        }
      ],
      "name": "infoLottery",
      "outputs": [
        {
          "components": [
            {
              "internalType": "address",
              "name": "stableCoin",
              "type": "address"
            },
            {
              "internalType": "uint128",
              "name": "boxPrice",
              "type": "uint128"
            },
            {
              "internalType": "uint128",
              "name": "boxesSold",
              "type": "uint128"
            },
            {
              "internalType": "uint128",
              "name": "totalBoxes",
              "type": "uint128"
            },
            {
              "internalType": "uint128",
              "name": "winningNumber",
              "type": "uint128"
            }
          ],
          "internalType": "struct ILottery.LoterryInfo",
          "name": "",
          "type": "tuple"
        }
      ],
      "stateMutability": "view",
      "type": "function"
    },
    {
      "inputs": [
        {
          "internalType": "address",
          "name": "p_initialOwner",
          "type": "address"
        },
        {
          "internalType": "address",
          "name": "p_middleware",
          "type": "address"
        },
        {
          "internalType": "address",
          "name": "p_sponsors",
          "type": "address"
        }
      ],
      "name": "initialize",
      "outputs": [],
      "stateMutability": "nonpayable",
      "type": "function"
    },
    {
      "inputs": [
        {
          "internalType": "address",
          "name": "p_lotteryAddress",
          "type": "address"
        }
      ],
      "name": "lotteryFlag",
      "outputs": [
        {
          "internalType": "bool",
          "name": "",
          "type": "bool"
        }
      ],
      "stateMutability": "view",
      "type": "function"
    },
    {
      "inputs": [],
      "name": "owner",
      "outputs": [
        {
          "internalType": "address",
          "name": "",
          "type": "address"
        }
      ],
      "stateMutability": "view",
      "type": "function"
    },
    {
      "inputs": [],
      "name": "pause",
      "outputs": [],
      "stateMutability": "nonpayable",
      "type": "function"
    },
    {
      "inputs": [],
      "name": "paused",
      "outputs": [
        {
          "internalType": "bool",
          "name": "",
          "type": "bool"
        }
      ],
      "stateMutability": "view",
      "type": "function"
    },
    {
      "inputs": [],
      "name": "renounceOwnership",
      "outputs": [],
      "stateMutability": "nonpayable",
      "type": "function"
    },
    {
      "inputs": [
        {
          "internalType": "address",
          "name": "p_lotteryAddress",
          "type": "address"
        },
        {
          "internalType": "uint128",
          "name": "p_winningNumber",
          "type": "uint128"
        }
      ],
      "name": "setWinning",
      "outputs": [],
      "stateMutability": "nonpayable",
      "type": "function"
    },
    {
      "inputs": [],
      "name": "sponsorsConctract",
      "outputs": [
        {
          "internalType": "address",
          "name": "",
          "type": "address"
        }
      ],
      "stateMutability": "view",
      "type": "function"
    },
    {
      "inputs": [
        {
          "internalType": "address",
          "name": "p_lotteryAddress",
          "type": "address"
        }
      ],
      "name": "ticketAccountWinner",
      "outputs": [
        {
          "internalType": "uint128",
          "name": "",
          "type": "uint128"
        },
        {
          "internalType": "address",
          "name": "",
          "type": "address"
        }
      ],
      "stateMutability": "view",
      "type": "function"
    },
    {
      "inputs": [
        {
          "internalType": "address",
          "name": "p_lotteryAddress",
          "type": "address"
        },
        {
          "internalType": "uint128",
          "name": "p_ticket",
          "type": "uint128"
        }
      ],
      "name": "ticketToBox",
      "outputs": [
        {
          "internalType": "uint256",
          "name": "",
          "type": "uint256"
        }
      ],
      "stateMutability": "view",
      "type": "function"
    },
    {
      "inputs": [
        {
          "internalType": "address",
          "name": "p_lotteryAddress",
          "type": "address"
        },
        {
          "internalType": "uint256",
          "name": "p_boxId",
          "type": "uint256"
        }
      ],
      "name": "ticketsBox",
      "outputs": [
        {
          "internalType": "uint128",
          "name": "",
          "type": "uint128"
        },
        {
          "internalType": "uint128",
          "name": "",
          "type": "uint128"
        }
      ],
      "stateMutability": "view",
      "type": "function"
    },
    {
      "inputs": [
        {
          "internalType": "address",
          "name": "p_lotteryAddress",
          "type": "address"
        }
      ],
      "name": "topBuyer",
      "outputs": [
        {
          "internalType": "address",
          "name": "",
          "type": "address"
        }
      ],
      "stateMutability": "view",
      "type": "function"
    },
    {
      "inputs": [
        {
          "internalType": "address",
          "name": "newOwner",
          "type": "address"
        }
      ],
      "name": "transferOwnership",
      "outputs": [],
      "stateMutability": "nonpayable",
      "type": "function"
    },
    {
      "inputs": [],
      "name": "unpause",
      "outputs": [],
      "stateMutability": "nonpayable",
      "type": "function"
    },
    {
      "inputs": [
        {
          "internalType": "address",
          "name": "p_lotteryAddress",
          "type": "address"
        },
        {
          "internalType": "address",
          "name": "p_address",
          "type": "address"
        }
      ],
      "name": "withdrawBalance",
      "outputs": [],
      "stateMutability": "nonpayable",
      "type": "function"
    }
  ],
  "bytecode": "0x608060405234801561001057600080fd5b5061001961001e565b6100d0565b7ff0c57e16840df040f15088dc2f81fe391c3923bec73e23a9662efc9c229c6a00805468010000000000000000900460ff161561006e5760405163f92ee8a960e01b815260040160405180910390fd5b80546001600160401b03908116146100cd5780546001600160401b0319166001600160401b0390811782556040519081527fc7f505b2f371ae2175ee4913f4499e1f2633a7b5936321eed1cdaeb6115181d29060200160405180910390a15b50565b61204e80620000e06000396000f3fe608060405234801561001057600080fd5b50600436106101585760003560e01c80638456cb59116100c3578063c438b6301161007c578063c438b6301461035f578063c4677709146103cb578063d2206677146103de578063df40e87814610411578063e420bdf414610431578063f2fde38b1461044457600080fd5b80638456cb591461027b5780638da5cb5b146102835780638f63deab146102b35780639a024834146102df5780639face7f614610319578063c0c53b8b1461034c57600080fd5b80635c975abb116101155780635c975abb146101f6578063676752ef1461021a5780636b52b6571461022d578063715018a61461024057806375d17553146102485780637db2bd881461026857600080fd5b8063058742a41461015d57806315a269f7146101875780631df8b4bb1461019c57806329412219146101af5780633f4ba83a146101dd57806340dd6350146101e5575b600080fd5b6000546001600160a01b03165b6040516001600160a01b0390911681526020015b60405180910390f35b61019a610195366004611864565b610457565b005b61019a6101aa3660046118bd565b6104bf565b6101cf6101bd366004611919565b60009081526002602052604090205490565b60405190815260200161017e565b61019a6105fb565b6001546001600160a01b031661016a565b600080516020611ff98339815191525460ff165b604051901515815260200161017e565b61016a610228366004611932565b61060d565b61019a61023b36600461194f565b610677565b61019a6106b4565b61025b610256366004611932565b6106c6565b60405161017e91906119cc565b61019a610276366004611b34565b61075a565b61019a6108fe565b7f9016d09d72d40fdae2fd8ceac6b6234c7706214fd39c1cd1e609a0528c199300546001600160a01b031661016a565b61020a6102c1366004611932565b6001600160a01b031660009081526003602052604090205460ff1690565b6102f26102ed366004611932565b61090e565b604080516001600160801b0390931683526001600160a01b0390911660208301520161017e565b61016a610327366004611c04565b600090815260046020908152604080832093835292905220546001600160a01b031690565b61019a61035a366004611c26565b61097b565b61037261036d366004611932565b610ab9565b60405161017e919081516001600160a01b031681526020808301516001600160801b0390811691830191909152604080840151821690830152606080840151821690830152608092830151169181019190915260a00190565b6101cf6103d936600461194f565b610b46565b6103f16103ec366004611c71565b610bc1565b604080516001600160801b0393841681529290911660208301520161017e565b61042461041f366004611919565b610c39565b60405161017e9190611c9d565b61020a61043f366004611932565b610d18565b61019a610452366004611932565b610d7c565b61045f610dbf565b60405163756af45f60e01b81526001600160a01b03828116600483015283169063756af45f906024015b600060405180830381600087803b1580156104a357600080fd5b505af11580156104b7573d6000803e3d6000fd5b505050505050565b6104c7610e1a565b6104cf610e64565b6001600160a01b0381161561056157600154604051634628723360e11b81526001600160a01b038481166004830152838116602483015286811660448301526001600160801b038616606483015290911690638c50e46690608401600060405180830381600087803b15801561054457600080fd5b505af1158015610558573d6000803e3d6000fd5b505050506105cc565b60405163123c8ac160e11b81526001600160801b03841660048201526001600160a01b038381166024830152851690632479158290604401600060405180830381600087803b1580156105b357600080fd5b505af11580156105c7573d6000803e3d6000fd5b505050505b6105f560017f9b779b17422d0df92223018b32b4d1fa46e071723d6817e2486d003becc55f0055565b50505050565b610603610dbf565b61060b610ebb565b565b6000816001600160a01b0316634326e8936040518163ffffffff1660e01b8152600401602060405180830381865afa15801561064d573d6000803e3d6000fd5b505050506040513d601f19601f820116820180604052508101906106719190611cea565b92915050565b61067f610dbf565b60405163223e013160e01b81526001600160801b03821660048201526001600160a01b0383169063223e013190602401610489565b6106bc610dbf565b61060b6000610f1b565b6040805160c081018252600080825260208201819052918101829052606081018290526080810182905260a0810191909152816001600160a01b0316632119aa066040518163ffffffff1660e01b815260040160c060405180830381865afa158015610736573d6000803e3d6000fd5b505050506040513d601f19601f820116820180604052508101906106719190611d07565b610762610dbf565b6107738a8a8a8a8a8a8a8a8a610f8c565b6000805460408051633fa221bf60e21b815290516107e8926001600160a01b03169163fe8886fc9160048083019260209291908290030181865afa1580156107bf573d6000803e3d6000fd5b505050506040513d601f19601f820116820180604052508101906107e39190611cea565b6115f5565b60405163417b50b360e01b81529091506001600160a01b0382169063417b50b390610827908e908e908e908e908e908e908e908e908e90600401611dda565b600060405180830381600087803b15801561084157600080fd5b505af1158015610855573d6000803e3d6000fd5b5050506000838152600260205260408120805492509061087483611e72565b9091555050600082815260046020908152604080832060028352818420548452825280832080546001600160a01b0319166001600160a01b0386169081179091558084526003909252808320805460ff191660011790555190917fdbb18653dafc4962dc966dac250a14155f0c8a5040e55c5c59ed5f4acb69f5be91a25050505050505050505050565b610906610dbf565b61060b611602565b600080826001600160a01b03166348764c046040518163ffffffff1660e01b81526004016040805180830381865afa15801561094e573d6000803e3d6000fd5b505050506040513d601f19601f820116820180604052508101906109729190611e8b565b91509150915091565b600061098561164b565b805490915060ff600160401b820416159067ffffffffffffffff166000811580156109ad5750825b905060008267ffffffffffffffff1660011480156109ca5750303b155b9050811580156109d8575080155b156109f65760405163f92ee8a960e01b815260040160405180910390fd5b845467ffffffffffffffff191660011785558315610a2057845460ff60401b1916600160401b1785555b610a28611674565b610a318861167c565b610a3961168d565b600080546001600160a01b03808a166001600160a01b03199283161790925560018054928916929091169190911790558315610aaf57845460ff60401b19168555604051600181527fc7f505b2f371ae2175ee4913f4499e1f2633a7b5936321eed1cdaeb6115181d29060200160405180910390a15b5050505050505050565b6040805160a081018252600080825260208201819052918101829052606081018290526080810191909152816001600160a01b031663be2e69056040518163ffffffff1660e01b815260040160a060405180830381865afa158015610b22573d6000803e3d6000fd5b505050506040513d601f19601f820116820180604052508101906106719190611eba565b604051632bae72cd60e21b81526001600160801b03821660048201526000906001600160a01b0384169063aeb9cb3490602401602060405180830381865afa158015610b96573d6000803e3d6000fd5b505050506040513d601f19601f82011682018060405250810190610bba9190611f52565b9392505050565b60405163703e2c5160e01b81526004810182905260009081906001600160a01b0385169063703e2c51906024016040805180830381865afa158015610c0a573d6000803e3d6000fd5b505050506040513d601f19601f82011682018060405250810190610c2e9190611f6b565b915091509250929050565b6000818152600260205260408120546060919067ffffffffffffffff811115610c6457610c646119da565b604051908082528060200260200182016040528015610c8d578160200160208202803683370190505b50905060015b6000848152600260205260409020548111610d115760008481526004602090815260408083208484529091529020546001600160a01b031682610cd7600184611f9a565b81518110610ce757610ce7611fad565b6001600160a01b039092166020928302919091019091015280610d0981611e72565b915050610c93565b5092915050565b6000816001600160a01b0316639d9a7fe96040518163ffffffff1660e01b8152600401602060405180830381865afa158015610d58573d6000803e3d6000fd5b505050506040513d601f19601f820116820180604052508101906106719190611fc3565b610d84610dbf565b6001600160a01b038116610db357604051631e4fbdf760e01b8152600060048201526024015b60405180910390fd5b610dbc81610f1b565b50565b33610df17f9016d09d72d40fdae2fd8ceac6b6234c7706214fd39c1cd1e609a0528c199300546001600160a01b031690565b6001600160a01b03161461060b5760405163118cdaa760e01b8152336004820152602401610daa565b7f9b779b17422d0df92223018b32b4d1fa46e071723d6817e2486d003becc55f00805460011901610e5e57604051633ee5aeb560e01b815260040160405180910390fd5b60029055565b600080516020611ff98339815191525460ff161561060b5760405163d93c066560e01b815260040160405180910390fd5b60017f9b779b17422d0df92223018b32b4d1fa46e071723d6817e2486d003becc55f0055565b610ec361169d565b600080516020611ff9833981519152805460ff191681557f5db9ee0a495bf2e6ff9c91a7834c1ba4fdd244a5e8aa4e537bd38aeae4b073aa335b6040516001600160a01b03909116815260200160405180910390a150565b7f9016d09d72d40fdae2fd8ceac6b6234c7706214fd39c1cd1e609a0528c19930080546001600160a01b031981166001600160a01b03848116918217845560405192169182907f8be0079c531659141344cd1fd0a4f28419497f9722a3daafe3b4186f6b6457e090600090a3505050565b6003895110158015610fa057506003885110155b610fe55760405162461bcd60e51b8152602060048201526016602482015275125b9d985b1a59081b985b59481bdc881cde5b589bdb60521b6044820152606401610daa565b6000876001600160801b0316116110345760405162461bcd60e51b8152602060048201526013602482015272496e76616c696420746f74616c20626f78657360681b6044820152606401610daa565b61103d866116cd565b6110895760405162461bcd60e51b815260206004820152601a60248201527f496e76616c696420737461626c65636f696e20616464726573730000000000006044820152606401610daa565b6000856001600160801b0316116110d65760405162461bcd60e51b8152602060048201526011602482015270496e76616c696420626f7820707269636560781b6044820152606401610daa565b606484101580156110e957506127108411155b6111355760405162461bcd60e51b815260206004820152601960248201527f496e76616c69642070657263656e746167652077696e6e6572000000000000006044820152606401610daa565b6064831015801561114857506127108311155b61119e5760405162461bcd60e51b815260206004820152602160248201527f496e76616c69642070657263656e746167652073706f6e736f722077696e6e656044820152603960f91b6064820152608401610daa565b81516001600160801b03808916911611156111fb5760405162461bcd60e51b815260206004820152601960248201527f496e76616c6964206d617820627579657220626f7865732031000000000000006044820152606401610daa565b606482602001516001600160801b031610158015611228575061271082602001516001600160801b031611155b6112745760405162461bcd60e51b815260206004820152601e60248201527f496e76616c6964206d61782062757965722070657263656e74616765203100006044820152606401610daa565b866001600160801b031682604001516001600160801b031611156112da5760405162461bcd60e51b815260206004820152601960248201527f496e76616c6964206d617820627579657220626f7865732032000000000000006044820152606401610daa565b606482606001516001600160801b031610158015611307575061271082606001516001600160801b031611155b6113535760405162461bcd60e51b815260206004820152601e60248201527f496e76616c6964206d61782062757965722070657263656e74616765203200006044820152606401610daa565b866001600160801b031682608001516001600160801b031611156113b95760405162461bcd60e51b815260206004820152601960248201527f496e76616c6964206d617820627579657220626f7865732033000000000000006044820152606401610daa565b60648260a001516001600160801b0316101580156113e657506127108260a001516001600160801b031611155b6114325760405162461bcd60e51b815260206004820152601e60248201527f496e76616c6964206d61782062757965722070657263656e74616765203300006044820152606401610daa565b6064811015801561144557506127108111155b6114915760405162461bcd60e51b815260206004820152601f60248201527f496e76616c6964206d61782073706f6e736f72732070657263656e74616765006044820152606401610daa565b600082606001516001600160801b031683602001516001600160801b0316106114be5782602001516114c4565b82606001515b6001600160801b031690508260a001516001600160801b031681106114e957806114f8565b8260a001516001600160801b03165b905061271082826115098789611fe5565b6115139190611fe5565b61151d9190611fe5565b111561156b5760405162461bcd60e51b815260206004820152601760248201527f496e76616c69642070657263656e74616765732073756d0000000000000000006044820152606401610daa565b82604001516001600160801b031683600001516001600160801b03161080156115ad575082608001516001600160801b031683604001516001600160801b0316105b6115e95760405162461bcd60e51b815260206004820152600d60248201526c496e76616c696420626f78657360981b6044820152606401610daa565b50505050505050505050565b600061067182600061175f565b61160a610e64565b600080516020611ff9833981519152805460ff191660011781557f62e78cea01bee320cd4e420270b5ea74000d11b0c9f74754ebdbfc544b05a25833610efd565b6000807ff0c57e16840df040f15088dc2f81fe391c3923bec73e23a9662efc9c229c6a00610671565b61060b6117f5565b6116846117f5565b610dbc8161181a565b6116956117f5565b61060b611822565b600080516020611ff98339815191525460ff1661060b57604051638dfc202b60e01b815260040160405180910390fd5b60006001600160a01b0382166116e557506000919050565b6040516370a0823160e01b81523060048201526001600160a01b038316906370a0823190602401602060405180830381865afa925050508015611745575060408051601f3d908101601f1916820190925261174291810190611f52565b60015b61175157506000919050565b50600192915050565b919050565b60008147101561178b5760405163cf47918160e01b815247600482015260248101839052604401610daa565b763d602d80600a3d3981f3363d3d373d3d3d363d730000008360601b60e81c176000526e5af43d82803e903d91602b57fd5bf38360781b176020526037600983f090506001600160a01b0381166106715760405163b06ebf3d60e01b815260040160405180910390fd5b6117fd61182a565b61060b57604051631afcd79f60e31b815260040160405180910390fd5b610d846117f5565b610e956117f5565b600061183461164b565b54600160401b900460ff16919050565b6001600160a01b0381168114610dbc57600080fd5b803561175a81611844565b6000806040838503121561187757600080fd5b823561188281611844565b9150602083013561189281611844565b809150509250929050565b6001600160801b0381168114610dbc57600080fd5b803561175a8161189d565b600080600080608085870312156118d357600080fd5b84356118de81611844565b935060208501356118ee8161189d565b925060408501356118fe81611844565b9150606085013561190e81611844565b939692955090935050565b60006020828403121561192b57600080fd5b5035919050565b60006020828403121561194457600080fd5b8135610bba81611844565b6000806040838503121561196257600080fd5b823561196d81611844565b915060208301356118928161189d565b6001600160801b038082511683528060208301511660208401528060408301511660408401528060608301511660608401528060808301511660808401528060a08301511660a0840152505050565b60c08101610671828461197d565b634e487b7160e01b600052604160045260246000fd5b60405160c0810167ffffffffffffffff81118282101715611a1357611a136119da565b60405290565b600082601f830112611a2a57600080fd5b813567ffffffffffffffff80821115611a4557611a456119da565b604051601f8301601f19908116603f01168101908282118183101715611a6d57611a6d6119da565b81604052838152866020858801011115611a8657600080fd5b836020870160208301376000602085830101528094505050505092915050565b600060c08284031215611ab857600080fd5b611ac06119f0565b90508135611acd8161189d565b81526020820135611add8161189d565b60208201526040820135611af08161189d565b60408201526060820135611b038161189d565b60608201526080820135611b168161189d565b608082015260a0820135611b298161189d565b60a082015292915050565b6000806000806000806000806000806101e08b8d031215611b5457600080fd5b8a3567ffffffffffffffff80821115611b6c57600080fd5b611b788e838f01611a19565b9b5060208d0135915080821115611b8e57600080fd5b50611b9b8d828e01611a19565b995050611baa60408c016118b2565b9750611bb860608c01611859565b9650611bc660808c016118b2565b955060a08b0135945060c08b01359350611be38c60e08d01611aa6565b92506101a08b013591506101c08b013590509295989b9194979a5092959850565b60008060408385031215611c1757600080fd5b50508035926020909101359150565b600080600060608486031215611c3b57600080fd5b8335611c4681611844565b92506020840135611c5681611844565b91506040840135611c6681611844565b809150509250925092565b60008060408385031215611c8457600080fd5b8235611c8f81611844565b946020939093013593505050565b6020808252825182820181905260009190848201906040850190845b81811015611cde5783516001600160a01b031683529284019291840191600101611cb9565b50909695505050505050565b600060208284031215611cfc57600080fd5b8151610bba81611844565b600060c08284031215611d1957600080fd5b611d216119f0565b8251611d2c8161189d565b81526020830151611d3c8161189d565b60208201526040830151611d4f8161189d565b60408201526060830151611d628161189d565b60608201526080830151611d758161189d565b608082015260a0830151611d888161189d565b60a08201529392505050565b6000815180845260005b81811015611dba57602081850181015186830182015201611d9e565b506000602082860101526020601f19601f83011685010191505092915050565b60006101c0808352611dee8184018d611d94565b90508281036020840152611e02818c611d94565b6001600160801b038b811660408601526001600160a01b038b1660608601528916608085015260a0840188905260c084018790529150611e47905060e083018561197d565b826101a08301529a9950505050505050505050565b634e487b7160e01b600052601160045260246000fd5b600060018201611e8457611e84611e5c565b5060010190565b60008060408385031215611e9e57600080fd5b8251611ea98161189d565b602084015190925061189281611844565b600060a08284031215611ecc57600080fd5b60405160a0810181811067ffffffffffffffff82111715611eef57611eef6119da565b6040528251611efd81611844565b81526020830151611f0d8161189d565b60208201526040830151611f208161189d565b60408201526060830151611f338161189d565b60608201526080830151611f468161189d565b60808201529392505050565b600060208284031215611f6457600080fd5b5051919050565b60008060408385031215611f7e57600080fd5b8251611f898161189d565b60208401519092506118928161189d565b8181038181111561067157610671611e5c565b634e487b7160e01b600052603260045260246000fd5b600060208284031215611fd557600080fd5b81518015158114610bba57600080fd5b8082018082111561067157610671611e5c56fecd5ed15c6e187e77e9aee88184c21f4f2182ab5827cb3b7e07fbedcd63f03300a26469706673582212204037f2d72c2b68f554acf0f0db2e78b7710d454a702a6c92fc0a2eb35bb4fc7b64736f6c63430008140033",
  "linkReferences": {},
  "deployedLinkReferences": {}
}