{
  "_format": "hh-sol-artifact-1",
  "contractName": "Sponsors",
  "sourceName": "contracts/Sponsors.sol",
  "abi": [
    {
      "inputs": [],
      "stateMutability": "nonpayable",
      "type": "constructor"
    },
    {
      "inputs": [],
      "name": "InvalidInitialization",
      "type": "error"
    },
    {
      "inputs": [],
      "name": "NotInitializing",
      "type": "error"
    },
    {
      "anonymous": false,
      "inputs": [
        {
          "indexed": true,
          "internalType": "address",
          "name": "account",
          "type": "address"
        }
      ],
      "name": "AccountActivated",
      "type": "event"
    },
    {
      "anonymous": false,
      "inputs": [
        {
          "indexed": true,
          "internalType": "address",
          "name": "account",
          "type": "address"
        },
        {
          "indexed": true,
          "internalType": "address",
          "name": "sponsor",
          "type": "address"
        },
        {
          "indexed": true,
          "internalType": "address",
          "name": "lottery",
          "type": "address"
        },
        {
          "indexed": false,
          "internalType": "uint128",
          "name": "numberBoxes",
          "type": "uint128"
        }
      ],
      "name": "AccountRegisteredWithLottery",
      "type": "event"
    },
    {
      "anonymous": false,
      "inputs": [
        {
          "indexed": true,
          "internalType": "address",
          "name": "account",
          "type": "address"
        },
        {
          "indexed": true,
          "internalType": "address",
          "name": "sponsor",
          "type": "address"
        }
      ],
      "name": "AccountRegisteredWithoutLottery",
      "type": "event"
    },
    {
      "anonymous": false,
      "inputs": [
        {
          "indexed": false,
          "internalType": "uint64",
          "name": "version",
          "type": "uint64"
        }
      ],
      "name": "Initialized",
      "type": "event"
    },
    {
      "inputs": [
        {
          "internalType": "address",
          "name": "p_lottery",
          "type": "address"
        }
      ],
      "name": "accountWithMaxActivatedSponsors",
      "outputs": [
        {
          "internalType": "address",
          "name": "",
          "type": "address"
        }
      ],
      "stateMutability": "view",
      "type": "function"
    },
    {
      "inputs": [
        {
          "internalType": "address",
          "name": "p_account",
          "type": "address"
        }
      ],
      "name": "activateAccount",
      "outputs": [],
      "stateMutability": "nonpayable",
      "type": "function"
    },
    {
      "inputs": [
        {
          "internalType": "address",
          "name": "p_lottery",
          "type": "address"
        },
        {
          "internalType": "address",
          "name": "p_account",
          "type": "address"
        }
      ],
      "name": "activatedSponsors",
      "outputs": [
        {
          "internalType": "address[2]",
          "name": "",
          "type": "address[2]"
        }
      ],
      "stateMutability": "view",
      "type": "function"
    },
    {
      "inputs": [
        {
          "internalType": "address",
          "name": "p_lottery",
          "type": "address"
        },
        {
          "internalType": "address",
          "name": "p_account",
          "type": "address"
        }
      ],
      "name": "buyerSponsors",
      "outputs": [
        {
          "internalType": "address[3]",
          "name": "",
          "type": "address[3]"
        }
      ],
      "stateMutability": "view",
      "type": "function"
    },
    {
      "inputs": [
        {
          "internalType": "address",
          "name": "p_lottery",
          "type": "address"
        },
        {
          "internalType": "address",
          "name": "p_account",
          "type": "address"
        }
      ],
      "name": "checkActive",
      "outputs": [
        {
          "internalType": "bool",
          "name": "",
          "type": "bool"
        }
      ],
      "stateMutability": "view",
      "type": "function"
    },
    {
      "inputs": [],
      "name": "initialize",
      "outputs": [],
      "stateMutability": "nonpayable",
      "type": "function"
    },
    {
      "inputs": [
        {
          "internalType": "address",
          "name": "p_account",
          "type": "address"
        }
      ],
      "name": "numAccountsSponsored",
      "outputs": [
        {
          "internalType": "uint256",
          "name": "",
          "type": "uint256"
        }
      ],
      "stateMutability": "view",
      "type": "function"
    },
    {
      "inputs": [
        {
          "internalType": "address",
          "name": "p_lottery",
          "type": "address"
        },
        {
          "internalType": "address",
          "name": "p_account",
          "type": "address"
        }
      ],
      "name": "numActivatedAccountsSponsored",
      "outputs": [
        {
          "internalType": "uint256",
          "name": "",
          "type": "uint256"
        }
      ],
      "stateMutability": "view",
      "type": "function"
    },
    {
      "inputs": [
        {
          "internalType": "address",
          "name": "p_buyer",
          "type": "address"
        },
        {
          "internalType": "address",
          "name": "p_sponsor",
          "type": "address"
        },
        {
          "internalType": "address",
          "name": "p_lottery",
          "type": "address"
        },
        {
          "internalType": "uint128",
          "name": "p_numberBoxes",
          "type": "uint128"
        }
      ],
      "name": "registerAccountWithLottery",
      "outputs": [],
      "stateMutability": "nonpayable",
      "type": "function"
    },
    {
      "inputs": [
        {
          "internalType": "address",
          "name": "p_account",
          "type": "address"
        },
        {
          "internalType": "address",
          "name": "p_sponsor",
          "type": "address"
        }
      ],
      "name": "registerAccountWithoutLottery",
      "outputs": [],
      "stateMutability": "nonpayable",
      "type": "function"
    },
    {
      "inputs": [
        {
          "internalType": "address",
          "name": "p_factoryContract",
          "type": "address"
        }
      ],
      "name": "setFactoryContract",
      "outputs": [],
      "stateMutability": "nonpayable",
      "type": "function"
    },
    {
      "inputs": [
        {
          "internalType": "address",
          "name": "p_account",
          "type": "address"
        }
      ],
      "name": "sponsors",
      "outputs": [
        {
          "internalType": "address[2]",
          "name": "",
          "type": "address[2]"
        }
      ],
      "stateMutability": "view",
      "type": "function"
    }
  ],
  "bytecode": "0x608060405234801561001057600080fd5b5061001961001e565b6100d0565b7ff0c57e16840df040f15088dc2f81fe391c3923bec73e23a9662efc9c229c6a00805468010000000000000000900460ff161561006e5760405163f92ee8a960e01b815260040160405180910390fd5b80546001600160401b03908116146100cd5780546001600160401b0319166001600160401b0390811782556040519081527fc7f505b2f371ae2175ee4913f4499e1f2633a7b5936321eed1cdaeb6115181d29060200160405180910390a15b50565b610f25806100df6000396000f3fe608060405234801561001057600080fd5b50600436106100b45760003560e01c80638c50e466116100715780638c50e466146101b2578063953bde31146101c5578063d35590c2146101d8578063d4241341146101f8578063e06327261461020b578063e623c82e1461022b57600080fd5b806320d32457146100b957806344128e7e146100e157806364f4e1bf146101255780636da3f1701461015c5780638129fc1c1461019557806382a621371461019f575b600080fd5b6100cc6100c7366004610d5c565b61023e565b60405190151581526020015b60405180910390f35b61010d6100ef366004610d8f565b6001600160a01b039081166000908152600660205260409020541690565b6040516001600160a01b0390911681526020016100d8565b61014e610133366004610d8f565b6001600160a01b031660009081526004602052604090205490565b6040519081526020016100d8565b61014e61016a366004610d5c565b6001600160a01b03918216600090815260056020908152604080832093909416825291909152205490565b61019d61026c565b005b61019d6101ad366004610d8f565b61039e565b61019d6101c0366004610db1565b6105bb565b61019d6101d3366004610d5c565b61081d565b6101eb6101e6366004610d8f565b6109ae565b6040516100d89190610e13565b61019d610206366004610d8f565b6109f4565b61021e610219366004610d5c565b610afe565b6040516100d89190610e4d565b6101eb610239366004610d5c565b610b5b565b6001600160a01b03918216600090815260036020908152604080832093909416825291909152205460ff1690565b7ff0c57e16840df040f15088dc2f81fe391c3923bec73e23a9662efc9c229c6a008054600160401b810460ff16159067ffffffffffffffff166000811580156102b25750825b905060008267ffffffffffffffff1660011480156102cf5750303b155b9050811580156102dd575080155b156102fb5760405163f92ee8a960e01b815260040160405180910390fd5b845467ffffffffffffffff19166001178555831561032557845460ff60401b1916600160401b1785555b600080546001600160a01b031990811633178255308083526002602052604090922080549091169091179055831561039757845460ff60401b19168555604051600181527fc7f505b2f371ae2175ee4913f4499e1f2633a7b5936321eed1cdaeb6115181d29060200160405180910390a15b5050505050565b600154604051638f63deab60e01b81523360048201526001600160a01b0390911690638f63deab90602401602060405180830381865afa1580156103e6573d6000803e3d6000fd5b505050506040513d601f19601f8201168201806040525081019061040a9190610e7e565b61044c5760405162461bcd60e51b815260206004820152600e60248201526d24b73b30b634b21031b0b63632b960911b60448201526064015b60405180910390fd5b6001600160a01b0381166104725760405162461bcd60e51b815260040161044390610ea0565b6001600160a01b03818116600090815260026020526040902054166104d05760405162461bcd60e51b8152602060048201526014602482015273155b9c9959da5cdd195c9959081858d8dbdd5b9d60621b6044820152606401610443565b3360009081526003602090815260408083206001600160a01b038516845290915290205460ff166105b8573360008181526003602090815260408083206001600160a01b03868116808652918452828520805460ff19166001179055948452600583528184209084526002835281842054909416835292905290812080549161055883610ec8565b90915550506001600160a01b0380821660009081526002602052604090205461058391339116610c7f565b6040516001600160a01b038216907fcfacdcf9289f1b69c533dda67fc14bae036114cd912d8f9fa9676e95d4ec028490600090a25b50565b6001600160a01b038416158015906105db57506001600160a01b03831615155b80156105ef57506001600160a01b03821615155b61060b5760405162461bcd60e51b815260040161044390610ea0565b6001600160a01b0384811660009081526002602052604090205416156106735760405162461bcd60e51b815260206004820152601a60248201527f4163636f756e7420616c726561647920726567697374657265640000000000006044820152606401610443565b6001600160a01b03838116600090815260026020526040902054166106d15760405162461bcd60e51b81526020600482015260146024820152732ab73932b3b4b9ba32b932b21039b837b739b7b960611b6044820152606401610443565b6001600160a01b03848116600090815260026020908152604080832080546001600160a01b03191694881694851790559282526004905290812080549161071783610ec8565b90915550506001600160a01b038083166000908152600560209081526040808320938716835292905290812080549161074f83610ec8565b919050555061075e8284610c7f565b60405163123c8ac160e11b81526001600160801b03821660048201526001600160a01b038581166024830152831690632479158290604401600060405180830381600087803b1580156107b057600080fd5b505af11580156107c4573d6000803e3d6000fd5b50506040516001600160801b03841681526001600160a01b03808616935086811692508716907ff77ceda10f93abd95675fa79d02385eba732321550762a4b7d3a796cd0d203da9060200160405180910390a450505050565b6001600160a01b0382161580159061083d57506001600160a01b03811615155b6108595760405162461bcd60e51b815260040161044390610ea0565b6001600160a01b0382811660009081526002602052604090205416156108c15760405162461bcd60e51b815260206004820152601a60248201527f4163636f756e7420616c726561647920726567697374657265640000000000006044820152606401610443565b6001600160a01b038181166000908152600260205260409020541661091f5760405162461bcd60e51b81526020600482015260146024820152732ab73932b3b4b9ba32b932b21039b837b739b7b960611b6044820152606401610443565b6001600160a01b03828116600090815260026020908152604080832080546001600160a01b03191694861694851790559282526004905290812080549161096583610ec8565b9190505550806001600160a01b0316826001600160a01b03167f17bda83332f1264286fc804f00d91fb81fe54254a537f8fe83b9d82fbbc54ea960405160405180910390a35050565b6109b6610d04565b506040805180820182526001600160a01b03928316600090815260026020818152848320548616808552918152908252929020549092169082015290565b6000546001600160a01b03163314610a3d5760405162461bcd60e51b815260206004820152600c60248201526b155b985d5d1a1bdc9a5e995960a21b6044820152606401610443565b6001546001600160a01b031615610a965760405162461bcd60e51b815260206004820152601c60248201527f466163746f727920636f6e747261637420616c726561647920736574000000006044820152606401610443565b6001600160a01b038116610adc5760405162461bcd60e51b815260206004820152600d60248201526c125b9d985b1a59081a5b9c1d5d609a1b6044820152606401610443565b600180546001600160a01b0319166001600160a01b0392909216919091179055565b610b06610d22565b6000610b128484610b5b565b604080516060810182526001600160a01b039586166000908152600260209081529083902054871682528351871681830152929092015190941693810193909352509092915050565b610b63610d04565b6001600160a01b0382811660009081526002602052604081205490918291163014801590610bb257506001600160a01b03808516600090815260026020526040902054610bb29187911661023e565b15610bd5576001600160a01b038085166000908152600260205260409020541691505b6001600160a01b038481166000908152600260205260408082205483168252902054163014801590610c3057506001600160a01b038085166000908152600260205260408082205483168252902054610c309187911661023e565b15610c5a57506001600160a01b038084166000908152600260205260408082205483168252902054165b604080518082019091526001600160a01b039283168152911660208201529392505050565b6001600160a01b0381163014801590610ccc57506001600160a01b038281166000908152600560209081526040808320600683528184205485168452909152808220549284168252902054115b15610d00576001600160a01b03828116600090815260066020526040902080546001600160a01b0319169183169190911790555b5050565b60405180604001604052806002906020820280368337509192915050565b60405180606001604052806003906020820280368337509192915050565b80356001600160a01b0381168114610d5757600080fd5b919050565b60008060408385031215610d6f57600080fd5b610d7883610d40565b9150610d8660208401610d40565b90509250929050565b600060208284031215610da157600080fd5b610daa82610d40565b9392505050565b60008060008060808587031215610dc757600080fd5b610dd085610d40565b9350610dde60208601610d40565b9250610dec60408601610d40565b915060608501356001600160801b0381168114610e0857600080fd5b939692955090935050565b60408101818360005b6002811015610e445781516001600160a01b0316835260209283019290910190600101610e1c565b50505092915050565b60608101818360005b6003811015610e445781516001600160a01b0316835260209283019290910190600101610e56565b600060208284031215610e9057600080fd5b81518015158114610daa57600080fd5b6020808252600e908201526d496e76616c696420696e7075747360901b604082015260600190565b600060018201610ee857634e487b7160e01b600052601160045260246000fd5b506001019056fea2646970667358221220266e8a0e28bb51380dd7a439c9ae45bd242c0ef8f44997f6048d1efad816d21364736f6c63430008140033",
  "linkReferences": {},
  "deployedLinkReferences": {}
}