{
  "_format": "hh-sol-artifact-1",
  "contractName": "LotteryFactoryMiddleware",
  "sourceName": "contracts/LotteryFactoryMiddleware.sol",
  "abi": [
    {
      "inputs": [],
      "stateMutability": "nonpayable",
      "type": "constructor"
    },
    {
      "inputs": [],
      "name": "InvalidInitialization",
      "type": "error"
    },
    {
      "inputs": [],
      "name": "NotInitializing",
      "type": "error"
    },
    {
      "anonymous": false,
      "inputs": [
        {
          "indexed": false,
          "internalType": "uint64",
          "name": "version",
          "type": "uint64"
        }
      ],
      "name": "Initialized",
      "type": "event"
    },
    {
      "inputs": [],
      "name": "cloneImplementation",
      "outputs": [
        {
          "internalType": "address",
          "name": "",
          "type": "address"
        }
      ],
      "stateMutability": "view",
      "type": "function"
    },
    {
      "inputs": [],
      "name": "initialize",
      "outputs": [],
      "stateMutability": "nonpayable",
      "type": "function"
    }
  ],
  "bytecode": "0x608060405234801561001057600080fd5b5061001961001e565b6100d0565b7ff0c57e16840df040f15088dc2f81fe391c3923bec73e23a9662efc9c229c6a00805468010000000000000000900460ff161561006e5760405163f92ee8a960e01b815260040160405180910390fd5b80546001600160401b03908116146100cd5780546001600160401b0319166001600160401b0390811782556040519081527fc7f505b2f371ae2175ee4913f4499e1f2633a7b5936321eed1cdaeb6115181d29060200160405180910390a15b50565b612f92806100df6000396000f3fe608060405234801561001057600080fd5b50600436106100365760003560e01c80638129fc1c1461003b578063fe8886fc14610045575b600080fd5b610043610064565b005b600054604080516001600160a01b039092168252519081900360200190f35b7ff0c57e16840df040f15088dc2f81fe391c3923bec73e23a9662efc9c229c6a008054600160401b810460ff16159067ffffffffffffffff166000811580156100aa5750825b905060008267ffffffffffffffff1660011480156100c75750303b155b9050811580156100d5575080155b156100f35760405163f92ee8a960e01b815260040160405180910390fd5b845467ffffffffffffffff19166001178555831561011d57845460ff60401b1916600160401b1785555b604051610129906101b3565b604051809103906000f080158015610145573d6000803e3d6000fd5b50600080546001600160a01b0319166001600160a01b039290921691909117905583156101ac57845460ff60401b19168555604051600181527fc7f505b2f371ae2175ee4913f4499e1f2633a7b5936321eed1cdaeb6115181d29060200160405180910390a15b5050505050565b612d9c806101c18339019056fe60806040523480156200001157600080fd5b506200001c62000022565b620000d6565b7ff0c57e16840df040f15088dc2f81fe391c3923bec73e23a9662efc9c229c6a00805468010000000000000000900460ff1615620000735760405163f92ee8a960e01b815260040160405180910390fd5b80546001600160401b0390811614620000d35780546001600160401b0319166001600160401b0390811782556040519081527fc7f505b2f371ae2175ee4913f4499e1f2633a7b5936321eed1cdaeb6115181d29060200160405180910390a15b50565b612cb680620000e66000396000f3fe608060405234801561001057600080fd5b50600436106101585760003560e01c80636352211e116100c3578063a22cb4651161007c578063a22cb46514610418578063aeb9cb341461042b578063b88d4fde14610454578063be2e690514610467578063c87b56dd14610543578063e985e9c51461055657600080fd5b80636352211e14610369578063703e2c511461037c57806370a08231146103d1578063756af45f146103f257806395d89b41146104055780639d9a7fe91461040d57600080fd5b806323b872dd1161011557806323b872dd146102dd57806324791582146102f0578063417b50b31461030357806342842e0e146103165780634326e8931461032957806348764c041461033a57600080fd5b806301ffc9a71461015d57806306fdde0314610185578063081812fc1461019a578063095ea7b3146101c55780632119aa06146101da578063223e0131146102ca575b600080fd5b61017061016b36600461235a565b610569565b60405190151581526020015b60405180910390f35b61018d61057a565b60405161017c91906123c7565b6101ad6101a83660046123da565b61061e565b6040516001600160a01b03909116815260200161017c565b6101d86101d3366004612408565b610633565b005b6102696040805160c081018252600080825260208201819052918101829052606081018290526080810182905260a0810191909152506040805160c081018252600b546001600160801b038082168352600160801b9182900481166020840152600c54808216948401949094529281900483166060830152600d5480841660808401520490911660a082015290565b60405161017c9190600060c0820190506001600160801b038084511683528060208501511660208401528060408501511660408401528060608501511660608401528060808501511660808401528060a08501511660a08401525092915050565b6101d86102d8366004612450565b610642565b6101d86102eb36600461246b565b610ac1565b6101d86102fe3660046124ac565b610b4b565b6101d861031136600461258f565b6112da565b6101d861032436600461246b565b6115c4565b600e546001600160a01b03166101ad565b6103426115e4565b604080516001600160801b0390931683526001600160a01b0390911660208301520161017c565b6101ad6103773660046123da565b611666565b6103b161038a3660046123da565b6000908152600560205260409020546001600160801b0380821692600160801b9092041690565b604080516001600160801b0393841681529290911660208301520161017c565b6103e46103df3660046126e9565b611671565b60405190815260200161017c565b6101d86104003660046126e9565b6116cd565b61018d6117e3565b60115460ff16610170565b6101d8610426366004612714565b611822565b6103e4610439366004612450565b6001600160801b031660009081526004602052604090205490565b6101d8610462366004612742565b61182d565b6104ea6040805160a081018252600080825260208201819052918101829052606081018290526080810191909152506040805160a0810182526001546001600160a01b031681526002546001600160801b038082166020840152600160801b91829004811693830193909352600354808416606084015204909116608082015290565b60405161017c919081516001600160a01b031681526020808301516001600160801b0390811691830191909152604080840151821690830152606080840151821690830152608092830151169181019190915260a00190565b61018d6105513660046123da565b611845565b6101706105643660046127c2565b6118ba565b600061057482611907565b92915050565b600080516020612c61833981519152805460609190819061059a906127e0565b80601f01602080910402602001604051908101604052809291908181526020018280546105c6906127e0565b80156106135780601f106105e857610100808354040283529160200191610613565b820191906000526020600020905b8154815290600101906020018083116105f657829003601f168201915b505050505091505090565b600061062982611957565b506105748261198f565b61063e8282336119c9565b5050565b6000546001600160a01b03163314801561065f575060115460ff16155b61066857600080fd5b60035461067f906001600160801b03166002612830565b6001600160801b0316816001600160801b03161061069c57600080fd5b600380546001600160801b03838116600160801b0291161790556011805460ff19166001908117909155546040516370a0823160e01b81523060048201526000916001600160a01b0316906370a0823190602401602060405180830381865afa15801561070d573d6000803e3d6000fd5b505050506040513d601f19601f82011682018060405250810190610731919061285b565b905060008060009054906101000a90046001600160a01b03166001600160a01b03166340dd63506040518163ffffffff1660e01b8152600401602060405180830381865afa158015610787573d6000803e3d6000fd5b505050506040513d601f19601f820116820180604052508101906107ab9190612874565b6001600160801b03841660009081526004602052604090205490915015610896576001600160801b0383166000908152600460205260408120546107ee90611666565b90506107fd81600854856119d6565b604051637311e41760e11b81523060048201526001600160a01b0382811660248301526000919084169063e623c82e906044016040805180830381865afa15801561084c573d6000803e3d6000fd5b505050506040513d601f19601f820116820180604052508101906108709190612891565b80519091506001600160a01b0316156108935780516009546108939190866119d6565b50505b600e546040516320d3245760e01b81523060048201526001600160a01b039182166024820152908216906320d3245790604401602060405180830381865afa1580156108e6573d6000803e3d6000fd5b505050506040513d601f19601f8201168201806040525081019061090a9190612930565b156109ca57600e546001600160a01b0316600090815260076020526040812054600b549091906001600160801b031682116109585750600b54600160801b90046001600160801b03166109b0565b600c546001600160801b0316821080159061097d5750600d546001600160801b031682105b1561099b5750600c54600160801b90046001600160801b03166109b0565b50600d54600160801b90046001600160801b03165b600e546109c7906001600160a01b031682866119d6565b50505b604051632209473f60e11b81523060048201526000906001600160a01b038316906344128e7e90602401602060405180830381865afa158015610a11573d6000803e3d6000fd5b505050506040513d601f19601f82011682018060405250810190610a359190612874565b6040516320d3245760e01b81523060048201526001600160a01b038083166024830152919250908316906320d3245790604401602060405180830381865afa158015610a85573d6000803e3d6000fd5b505050506040513d601f19601f82011682018060405250810190610aa99190612930565b15610abb57610abb81600a54856119d6565b50505050565b6001600160a01b038216610af057604051633250574960e11b8152600060048201526024015b60405180910390fd5b6000610afd838333611a8a565b9050836001600160a01b0316816001600160a01b031614610abb576040516364283d7b60e01b81526001600160a01b0380861660048301526024820184905282166044820152606401610ae7565b6000546001600160a01b0316331480610be9575060008054906101000a90046001600160a01b03166001600160a01b03166340dd63506040518163ffffffff1660e01b8152600401602060405180830381865afa158015610bb0573d6000803e3d6000fd5b505050506040513d601f19601f82011682018060405250810190610bd49190612874565b6001600160a01b0316336001600160a01b0316145b610c485760405162461bcd60e51b815260206004820152602a60248201527f4f6e6c7920666163746f727920636f6e7472616374206f722073706f6e736f726044820152691cc818dbdb9d1c9858dd60b21b6064820152608401610ae7565b6000826001600160801b0316118015610c6957506001600160a01b03811615155b610ca65760405162461bcd60e51b815260206004820152600e60248201526d496e76616c696420696e7075747360901b6044820152606401610ae7565b6003546002546001600160801b0391821691610ccc918591600160801b9091041661294d565b6001600160801b03161115610d235760405162461bcd60e51b815260206004820152601b60248201527f496e73756666696369656e7420626f78657320666f722073616c6500000000006044820152606401610ae7565b600254600090610d3d9084906001600160801b0316612830565b6001600160801b03169050600081905060008060009054906101000a90046001600160a01b03166001600160a01b03166340dd63506040518163ffffffff1660e01b8152600401602060405180830381865afa158015610da1573d6000803e3d6000fd5b505050506040513d601f19601f82011682018060405250810190610dc59190612874565b604051637031939360e11b81523060048201526001600160a01b03868116602483015291925060009183169063e063272690604401606060405180830381865afa158015610e17573d6000803e3d6000fd5b505050506040513d601f19601f82011682018060405250810190610e3b9190612974565b80519091506001600160a01b0316610e8c5760405162461bcd60e51b8152602060048201526014602482015273109d5e595c881b9bdd081c9959da5cdd195c995960621b6044820152606401610ae7565b6040516382a6213760e01b81526001600160a01b0386811660048301528316906382a6213790602401600060405180830381600087803b158015610ecf57600080fd5b505af1158015610ee3573d6000803e3d6000fd5b506001925050505b6003816001600160801b03161015611023576000826001600160801b03831660038110610f1a57610f1a61291a565b60200201516001600160a01b031614611011576000610f3a600487612a06565b6001549091506001600160a01b03166323b872dd88856001600160801b03861660038110610f6a57610f6a61291a565b60200201516040516001600160e01b031960e085901b1681526001600160a01b03928316600482015291166024820152604481018490526064016020604051808303816000875af1158015610fc3573d6000803e3d6000fd5b505050506040513d601f19601f82011682018060405250810190610fe79190612930565b6110035760405162461bcd60e51b8152600401610ae790612a1a565b61100d8186612a43565b9450505b8061101b81612a56565b915050610eeb565b506001546040516323b872dd60e01b81526001600160a01b03878116600483015230602483015260448201869052909116906323b872dd906064016020604051808303816000875af115801561107d573d6000803e3d6000fd5b505050506040513d601f19601f820116820180604052508101906110a19190612930565b6110bd5760405162461bcd60e51b8152600401610ae790612a1a565b60015b866001600160801b0316816001600160801b0316116111b6576002546000906110fa908390600160801b90046001600160801b031661294d565b6001600160801b03169050600061111082611ab0565b6001600160801b03811660008181526004602090815260408083208790558683526005909152902080546fffffffffffffffffffffffffffffffff19169091179055905061115d82611ab0565b6001600160801b038181166000818152600460209081526040808320889055878352600590915290208054909216600160801b90910217905590506111a28883611b96565b826111ac81612a56565b93505050506110c0565b600280548891906010906111db908490600160801b90046001600160801b031661294d565b92506101000a8154816001600160801b0302191690836001600160801b03160217905550866001600160801b031660076000886001600160a01b03166001600160a01b03168152602001908152602001600020600082825461123d9190612a7c565b9091555050600e546001600160a01b03908116600090815260076020526040808220549289168252902054111561128a57600e80546001600160a01b0319166001600160a01b0388161790555b6040516001600160801b03881681526001600160a01b038716907f90093806e98f3c267c2b4261ca44954c289ef8de01e29d5eb3f9ff4623a57b709060200160405180910390a250505050505050565b60006112e4611bb0565b805490915060ff600160401b820416159067ffffffffffffffff1660008115801561130c5750825b905060008267ffffffffffffffff1660011480156113295750303b155b905081158015611337575080155b156113555760405163f92ee8a960e01b815260040160405180910390fd5b845467ffffffffffffffff19166001178555831561137f57845460ff60401b1916600160401b1785555b6113898e8e611bd9565b336000806101000a8154816001600160a01b0302191690836001600160a01b031602179055508a600160000160006101000a8154816001600160a01b0302191690836001600160a01b03160217905550896001800160006101000a8154816001600160801b0302191690836001600160801b031602179055508b600160020160006101000a8154816001600160801b0302191690836001600160801b03160217905550886008819055508760098190555086600b60008201518160000160006101000a8154816001600160801b0302191690836001600160801b0316021790555060208201518160000160106101000a8154816001600160801b0302191690836001600160801b0316021790555060408201518160010160006101000a8154816001600160801b0302191690836001600160801b0316021790555060608201518160010160106101000a8154816001600160801b0302191690836001600160801b0316021790555060808201518160020160006101000a8154816001600160801b0302191690836001600160801b0316021790555060a08201518160020160106101000a8154816001600160801b0302191690836001600160801b0316021790555090505085600a819055508b60026115629190612830565b6001600160801b031660105583156115b457845460ff60401b19168555604051600181527fc7f505b2f371ae2175ee4913f4499e1f2633a7b5936321eed1cdaeb6115181d29060200160405180910390a15b5050505050505050505050505050565b6115df8383836040518060200160405280600081525061182d565b505050565b601154600090819060ff166116335760405162461bcd60e51b8152602060048201526015602482015274131bdd1d195c9e481b9bdd0818dbdb5c1b195d1959605a1b6044820152606401610ae7565b600354600160801b90046001600160801b031660008181526004602052604090205461165e90611666565b915091509091565b600061057482611957565b6000600080516020612c618339815191526001600160a01b0383166116ac576040516322718ad960e21b815260006004820152602401610ae7565b6001600160a01b039092166000908152600390920160205250604090205490565b6000546001600160a01b0316331480156116e9575060115460ff165b6116f257600080fd5b6001546040516370a0823160e01b81523060048201526001600160a01b039091169063a9059cbb90839083906370a0823190602401602060405180830381865afa158015611744573d6000803e3d6000fd5b505050506040513d601f19601f82011682018060405250810190611768919061285b565b6040516001600160e01b031960e085901b1681526001600160a01b03909216600483015260248201526044016020604051808303816000875af11580156117b3573d6000803e3d6000fd5b505050506040513d601f19601f820116820180604052508101906117d79190612930565b6117e057600080fd5b50565b7f80bb2b638cc20bc4d0a60d66940f3ab4a00c1d7b313497ca82fb0b4ab00793018054606091600080516020612c618339815191529161059a906127e0565b61063e338383611beb565b611838848484610ac1565b610abb3385858585611c9c565b606061185082611957565b50600061186860408051602081019091526000815290565b9050600081511161188857604051806020016040528060008152506118b3565b8061189284611dc7565b6040516020016118a3929190612a8f565b6040516020818303038152906040525b9392505050565b6001600160a01b0391821660009081527f80bb2b638cc20bc4d0a60d66940f3ab4a00c1d7b313497ca82fb0b4ab00793056020908152604080832093909416825291909152205460ff1690565b60006001600160e01b031982166380ac58cd60e01b148061193857506001600160e01b03198216635b5e139f60e01b145b8061057457506301ffc9a760e01b6001600160e01b0319831614610574565b60008061196383611e5a565b90506001600160a01b03811661057457604051637e27328960e01b815260048101849052602401610ae7565b60009081527f80bb2b638cc20bc4d0a60d66940f3ab4a00c1d7b313497ca82fb0b4ab007930460205260409020546001600160a01b031690565b6115df8383836001611e94565b6001546001600160a01b031663a9059cbb846127106119f58686612abe565b6119ff9190612a06565b6040516001600160e01b031960e085901b1681526001600160a01b03909216600483015260248201526044016020604051808303816000875af1158015611a4a573d6000803e3d6000fd5b505050506040513d601f19601f82011682018060405250810190611a6e9190612930565b6115df5760405162461bcd60e51b8152600401610ae790612a1a565b60115460009060ff1615611a9d57600080fd5b611aa8848484611faa565b949350505050565b601054604080514260208201526bffffffffffffffffffffffff193360601b1691810191909152605481018290526074810183905260009182916094016040516020818303038152906040528051906020012060001c611b109190612ad5565b6000818152600f60205260408120549192508115611b2e5781611b30565b825b905060006001601054611b439190612a43565b6000818152600f60205260408120549192508115611b615781611b63565b825b6000878152600f602052604081208290556010805492935090611b8583612ae9565b909155509398975050505050505050565b61063e8282604051806020016040528060008152506120b4565b6000807ff0c57e16840df040f15088dc2f81fe391c3923bec73e23a9662efc9c229c6a00610574565b611be16120cc565b61063e82826120f3565b600080516020612c618339815191526001600160a01b038316611c2c57604051630b61174360e31b81526001600160a01b0384166004820152602401610ae7565b6001600160a01b038481166000818152600584016020908152604080832094881680845294825291829020805460ff191687151590811790915591519182527f17307eab39ab6107e8899845ad3d59bd9653f200f220920489ca2b5937696c31910160405180910390a350505050565b6001600160a01b0383163b15611dc057604051630a85bd0160e11b81526001600160a01b0384169063150b7a0290611cde908890889087908790600401612b00565b6020604051808303816000875af1925050508015611d19575060408051601f3d908101601f19168201909252611d1691810190612b3d565b60015b611d82573d808015611d47576040519150601f19603f3d011682016040523d82523d6000602084013e611d4c565b606091505b508051600003611d7a57604051633250574960e11b81526001600160a01b0385166004820152602401610ae7565b805160208201fd5b6001600160e01b03198116630a85bd0160e11b14611dbe57604051633250574960e11b81526001600160a01b0385166004820152602401610ae7565b505b5050505050565b60606000611dd483612124565b600101905060008167ffffffffffffffff811115611df457611df46124e3565b6040519080825280601f01601f191660200182016040528015611e1e576020820181803683370190505b5090508181016020015b600019016f181899199a1a9b1b9c1cb0b131b232b360811b600a86061a8153600a8504945084611e2857509392505050565b60009081527f80bb2b638cc20bc4d0a60d66940f3ab4a00c1d7b313497ca82fb0b4ab007930260205260409020546001600160a01b031690565b600080516020612c618339815191528180611eb757506001600160a01b03831615155b15611f79576000611ec785611957565b90506001600160a01b03841615801590611ef35750836001600160a01b0316816001600160a01b031614155b8015611f065750611f0481856118ba565b155b15611f2f5760405163a9fbf51f60e01b81526001600160a01b0385166004820152602401610ae7565b8215611f775784866001600160a01b0316826001600160a01b03167f8c5be1e5ebec7d5bd14f71427d1e84f3dd0314c0f7b2291e5b200ac8c7c3b92560405160405180910390a45b505b600093845260040160205250506040902080546001600160a01b0319166001600160a01b0392909216919091179055565b6000600080516020612c6183398151915281611fc585611e5a565b90506001600160a01b03841615611fe157611fe18185876121fc565b6001600160a01b0381161561202157611ffe600086600080611e94565b6001600160a01b0381166000908152600383016020526040902080546000190190555b6001600160a01b03861615612052576001600160a01b03861660009081526003830160205260409020805460010190555b600085815260028301602052604080822080546001600160a01b0319166001600160a01b038a811691821790925591518893918516917fddf252ad1be2c89b69c2b068fc378daa952ba7f163c4a11628f55a4df523b3ef91a495945050505050565b6120be8383612260565b6115df336000858585611c9c565b6120d46122c5565b6120f157604051631afcd79f60e31b815260040160405180910390fd5b565b6120fb6120cc565b600080516020612c61833981519152806121158482612ba0565b5060018101610abb8382612ba0565b60008072184f03e93ff9f4daa797ed6e38ed64bf6a1f0160401b83106121635772184f03e93ff9f4daa797ed6e38ed64bf6a1f0160401b830492506040015b6d04ee2d6d415b85acef8100000000831061218f576d04ee2d6d415b85acef8100000000830492506020015b662386f26fc1000083106121ad57662386f26fc10000830492506010015b6305f5e10083106121c5576305f5e100830492506008015b61271083106121d957612710830492506004015b606483106121eb576064830492506002015b600a83106105745760010192915050565b6122078383836122df565b6115df576001600160a01b03831661223557604051637e27328960e01b815260048101829052602401610ae7565b60405163177e802f60e01b81526001600160a01b038316600482015260248101829052604401610ae7565b6001600160a01b03821661228a57604051633250574960e11b815260006004820152602401610ae7565b600061229883836000611a8a565b90506001600160a01b038116156115df576040516339e3563760e11b815260006004820152602401610ae7565b60006122cf611bb0565b54600160401b900460ff16919050565b60006001600160a01b03831615801590611aa85750826001600160a01b0316846001600160a01b03161480612319575061231984846118ba565b80611aa85750826001600160a01b03166123328361198f565b6001600160a01b031614949350505050565b6001600160e01b0319811681146117e057600080fd5b60006020828403121561236c57600080fd5b81356118b381612344565b60005b8381101561239257818101518382015260200161237a565b50506000910152565b600081518084526123b3816020860160208601612377565b601f01601f19169290920160200192915050565b6020815260006118b3602083018461239b565b6000602082840312156123ec57600080fd5b5035919050565b6001600160a01b03811681146117e057600080fd5b6000806040838503121561241b57600080fd5b8235612426816123f3565b946020939093013593505050565b80356001600160801b038116811461244b57600080fd5b919050565b60006020828403121561246257600080fd5b6118b382612434565b60008060006060848603121561248057600080fd5b833561248b816123f3565b9250602084013561249b816123f3565b929592945050506040919091013590565b600080604083850312156124bf57600080fd5b6124c883612434565b915060208301356124d8816123f3565b809150509250929050565b634e487b7160e01b600052604160045260246000fd5b600067ffffffffffffffff80841115612514576125146124e3565b604051601f8501601f19908116603f0116810190828211818310171561253c5761253c6124e3565b8160405280935085815286868601111561255557600080fd5b858560208301376000602087830101525050509392505050565b600082601f83011261258057600080fd5b6118b3838335602085016124f9565b6000806000806000806000806000898b036101c08112156125af57600080fd5b8a3567ffffffffffffffff808211156125c757600080fd5b6125d38e838f0161256f565b9b5060208d01359150808211156125e957600080fd5b6125f58e838f0161256f565b9a5061260360408e01612434565b995060608d01359150612615826123f3565b81985061262460808e01612434565b975060a08d0135965060c0808e0135965060df198401121561264557600080fd5b604051925060c0830191508282108183111715612664576126646124e3565b5060405261267460e08c01612434565b81526126836101008c01612434565b60208201526126956101208c01612434565b60408201526126a76101408c01612434565b60608201526126b96101608c01612434565b60808201526126cb6101808c01612434565b60a0820152809250506101a08a013590509295985092959850929598565b6000602082840312156126fb57600080fd5b81356118b3816123f3565b80151581146117e057600080fd5b6000806040838503121561272757600080fd5b8235612732816123f3565b915060208301356124d881612706565b6000806000806080858703121561275857600080fd5b8435612763816123f3565b93506020850135612773816123f3565b925060408501359150606085013567ffffffffffffffff81111561279657600080fd5b8501601f810187136127a757600080fd5b6127b6878235602084016124f9565b91505092959194509250565b600080604083850312156127d557600080fd5b82356124c8816123f3565b600181811c908216806127f457607f821691505b60208210810361281457634e487b7160e01b600052602260045260246000fd5b50919050565b634e487b7160e01b600052601160045260246000fd5b6001600160801b038181168382160280821691908281146128535761285361281a565b505092915050565b60006020828403121561286d57600080fd5b5051919050565b60006020828403121561288657600080fd5b81516118b3816123f3565b6000604082840312156128a357600080fd5b82601f8301126128b257600080fd5b6040516040810181811067ffffffffffffffff821117156128d5576128d56124e3565b80604052508060408401858111156128ec57600080fd5b845b8181101561290f578051612901816123f3565b8352602092830192016128ee565b509195945050505050565b634e487b7160e01b600052603260045260246000fd5b60006020828403121561294257600080fd5b81516118b381612706565b6001600160801b0381811683821601908082111561296d5761296d61281a565b5092915050565b60006060828403121561298657600080fd5b82601f83011261299557600080fd5b6040516060810181811067ffffffffffffffff821117156129b8576129b86124e3565b6040528060608401858111156129cd57600080fd5b845b8181101561290f5780516129e2816123f3565b8352602092830192016129cf565b634e487b7160e01b600052601260045260246000fd5b600082612a1557612a156129f0565b500490565b6020808252600f908201526e151c985b9cd9995c8819985a5b1959608a1b604082015260600190565b818103818111156105745761057461281a565b60006001600160801b03808316818103612a7257612a7261281a565b6001019392505050565b808201808211156105745761057461281a565b60008351612aa1818460208801612377565b835190830190612ab5818360208801612377565b01949350505050565b80820281158282048414176105745761057461281a565b600082612ae457612ae46129f0565b500690565b600081612af857612af861281a565b506000190190565b6001600160a01b0385811682528416602082015260408101839052608060608201819052600090612b339083018461239b565b9695505050505050565b600060208284031215612b4f57600080fd5b81516118b381612344565b601f8211156115df57600081815260208120601f850160051c81016020861015612b815750805b601f850160051c820191505b81811015611dbe57828155600101612b8d565b815167ffffffffffffffff811115612bba57612bba6124e3565b612bce81612bc884546127e0565b84612b5a565b602080601f831160018114612c035760008415612beb5750858301515b600019600386901b1c1916600185901b178555611dbe565b600085815260208120601f198616915b82811015612c3257888601518255948401946001909101908401612c13565b5085821015612c505787850151600019600388901b60f8161c191681555b5050505050600190811b0190555056fe80bb2b638cc20bc4d0a60d66940f3ab4a00c1d7b313497ca82fb0b4ab0079300a264697066735822122055404ea00a4a09f5a1dd3de1e6c03a8c7204467fb7884c0ccbdd205a27a7951364736f6c63430008140033a2646970667358221220271aab8129331c2d5e60eb8870bd429eb720a03d0ee0c0d240fc9852aea3a5f864736f6c63430008140033",
  "linkReferences": {},
  "deployedLinkReferences": {}
}