{
  "contractName": "LotteryFactory",
  "abi": [
    {
      "inputs": [],
      "stateMutability": "nonpayable",
      "type": "constructor"
    },
    {
      "inputs": [],
      "name": "EnforcedPause",
      "type": "error"
    },
    {
      "inputs": [],
      "name": "ExpectedPause",
      "type": "error"
    },
    {
      "inputs": [],
      "name": "FailedDeployment",
      "type": "error"
    },
    {
      "inputs": [
        {
          "internalType": "uint256",
          "name": "balance",
          "type": "uint256"
        },
        {
          "internalType": "uint256",
          "name": "needed",
          "type": "uint256"
        }
      ],
      "name": "InsufficientBalance",
      "type": "error"
    },
    {
      "inputs": [],
      "name": "InvalidInitialization",
      "type": "error"
    },
    {
      "inputs": [],
      "name": "NotInitializing",
      "type": "error"
    },
    {
      "inputs": [
        {
          "internalType": "address",
          "name": "owner",
          "type": "address"
        }
      ],
      "name": "OwnableInvalidOwner",
      "type": "error"
    },
    {
      "inputs": [
        {
          "internalType": "address",
          "name": "account",
          "type": "address"
        }
      ],
      "name": "OwnableUnauthorizedAccount",
      "type": "error"
    },
    {
      "inputs": [],
      "name": "ReentrancyGuardReentrantCall",
      "type": "error"
    },
    {
      "anonymous": false,
      "inputs": [
        {
          "indexed": false,
          "internalType": "uint64",
          "name": "version",
          "type": "uint64"
        }
      ],
      "name": "Initialized",
      "type": "event"
    },
    {
      "anonymous": false,
      "inputs": [
        {
          "indexed": true,
          "internalType": "address",
          "name": "e_lotteryAddress",
          "type": "address"
        }
      ],
      "name": "NewLottery",
      "type": "event"
    },
    {
      "anonymous": false,
      "inputs": [
        {
          "indexed": true,
          "internalType": "address",
          "name": "previousOwner",
          "type": "address"
        },
        {
          "indexed": true,
          "internalType": "address",
          "name": "newOwner",
          "type": "address"
        }
      ],
      "name": "OwnershipTransferred",
      "type": "event"
    },
    {
      "anonymous": false,
      "inputs": [
        {
          "indexed": false,
          "internalType": "address",
          "name": "account",
          "type": "address"
        }
      ],
      "name": "Paused",
      "type": "event"
    },
    {
      "anonymous": false,
      "inputs": [
        {
          "indexed": false,
          "internalType": "address",
          "name": "account",
          "type": "address"
        }
      ],
      "name": "Unpaused",
      "type": "event"
    },
    {
      "inputs": [],
      "name": "owner",
      "outputs": [
        {
          "internalType": "address",
          "name": "",
          "type": "address"
        }
      ],
      "stateMutability": "view",
      "type": "function"
    },
    {
      "inputs": [],
      "name": "paused",
      "outputs": [
        {
          "internalType": "bool",
          "name": "",
          "type": "bool"
        }
      ],
      "stateMutability": "view",
      "type": "function"
    },
    {
      "inputs": [],
      "name": "renounceOwnership",
      "outputs": [],
      "stateMutability": "nonpayable",
      "type": "function"
    },
    {
      "inputs": [
        {
          "internalType": "address",
          "name": "newOwner",
          "type": "address"
        }
      ],
      "name": "transferOwnership",
      "outputs": [],
      "stateMutability": "nonpayable",
      "type": "function"
    },
    {
      "inputs": [
        {
          "internalType": "address",
          "name": "p_initialOwner",
          "type": "address"
        },
        {
          "internalType": "address",
          "name": "p_middleware",
          "type": "address"
        },
        {
          "internalType": "address",
          "name": "p_sponsors",
          "type": "address"
        }
      ],
      "name": "initialize",
      "outputs": [],
      "stateMutability": "nonpayable",
      "type": "function"
    },
    {
      "inputs": [],
      "name": "sponsorsConctract",
      "outputs": [
        {
          "internalType": "address",
          "name": "",
          "type": "address"
        }
      ],
      "stateMutability": "view",
      "type": "function"
    },
    {
      "inputs": [],
      "name": "getMiddleware",
      "outputs": [
        {
          "internalType": "address",
          "name": "",
          "type": "address"
        }
      ],
      "stateMutability": "view",
      "type": "function"
    },
    {
      "inputs": [
        {
          "internalType": "uint256",
          "name": "p_year",
          "type": "uint256"
        }
      ],
      "name": "getLotteriesCount",
      "outputs": [
        {
          "internalType": "uint256",
          "name": "",
          "type": "uint256"
        }
      ],
      "stateMutability": "view",
      "type": "function"
    },
    {
      "inputs": [
        {
          "internalType": "address",
          "name": "p_lotteryAddress",
          "type": "address"
        }
      ],
      "name": "lotteryFlag",
      "outputs": [
        {
          "internalType": "bool",
          "name": "",
          "type": "bool"
        }
      ],
      "stateMutability": "view",
      "type": "function"
    },
    {
      "inputs": [
        {
          "internalType": "uint256",
          "name": "p_year",
          "type": "uint256"
        }
      ],
      "name": "getAllLotteries",
      "outputs": [
        {
          "internalType": "address[]",
          "name": "",
          "type": "address[]"
        }
      ],
      "stateMutability": "view",
      "type": "function"
    },
    {
      "inputs": [
        {
          "internalType": "uint256",
          "name": "p_index",
          "type": "uint256"
        },
        {
          "internalType": "uint256",
          "name": "p_year",
          "type": "uint256"
        }
      ],
      "name": "getLotteryAddress",
      "outputs": [
        {
          "internalType": "address",
          "name": "",
          "type": "address"
        }
      ],
      "stateMutability": "view",
      "type": "function"
    },
    {
      "inputs": [
        {
          "internalType": "address",
          "name": "p_lotteryAddress",
          "type": "address"
        }
      ],
      "name": "infoLottery",
      "outputs": [
        {
          "components": [
            {
              "internalType": "address",
              "name": "stableCoin",
              "type": "address"
            },
            {
              "internalType": "uint128",
              "name": "boxPrice",
              "type": "uint128"
            },
            {
              "internalType": "uint128",
              "name": "boxesSold",
              "type": "uint128"
            },
            {
              "internalType": "uint128",
              "name": "totalBoxes",
              "type": "uint128"
            },
            {
              "internalType": "uint128",
              "name": "winningNumber",
              "type": "uint128"
            }
          ],
          "internalType": "struct ILottery.LoterryInfo",
          "name": "",
          "type": "tuple"
        }
      ],
      "stateMutability": "view",
      "type": "function"
    },
    {
      "inputs": [
        {
          "internalType": "address",
          "name": "p_lotteryAddress",
          "type": "address"
        }
      ],
      "name": "infoIncentiveMaxBuyer",
      "outputs": [
        {
          "components": [
            {
              "internalType": "uint128",
              "name": "boxes1",
              "type": "uint128"
            },
            {
              "internalType": "uint128",
              "name": "percentage1",
              "type": "uint128"
            },
            {
              "internalType": "uint128",
              "name": "boxes2",
              "type": "uint128"
            },
            {
              "internalType": "uint128",
              "name": "percentage2",
              "type": "uint128"
            },
            {
              "internalType": "uint128",
              "name": "boxes3",
              "type": "uint128"
            },
            {
              "internalType": "uint128",
              "name": "percentage3",
              "type": "uint128"
            }
          ],
          "internalType": "struct ILottery.IncentiveMaxBuyer",
          "name": "",
          "type": "tuple"
        }
      ],
      "stateMutability": "view",
      "type": "function"
    },
    {
      "inputs": [
        {
          "internalType": "address",
          "name": "p_lotteryAddress",
          "type": "address"
        }
      ],
      "name": "ticketAccountWinner",
      "outputs": [
        {
          "internalType": "uint128",
          "name": "",
          "type": "uint128"
        },
        {
          "internalType": "address",
          "name": "",
          "type": "address"
        }
      ],
      "stateMutability": "view",
      "type": "function"
    },
    {
      "inputs": [
        {
          "internalType": "address",
          "name": "p_lotteryAddress",
          "type": "address"
        },
        {
          "internalType": "uint128",
          "name": "p_ticket",
          "type": "uint128"
        }
      ],
      "name": "ticketToBox",
      "outputs": [
        {
          "internalType": "uint256",
          "name": "",
          "type": "uint256"
        }
      ],
      "stateMutability": "view",
      "type": "function"
    },
    {
      "inputs": [
        {
          "internalType": "address",
          "name": "p_lotteryAddress",
          "type": "address"
        },
        {
          "internalType": "uint256",
          "name": "p_boxId",
          "type": "uint256"
        }
      ],
      "name": "ticketsBox",
      "outputs": [
        {
          "internalType": "uint128",
          "name": "",
          "type": "uint128"
        },
        {
          "internalType": "uint128",
          "name": "",
          "type": "uint128"
        }
      ],
      "stateMutability": "view",
      "type": "function"
    },
    {
      "inputs": [
        {
          "internalType": "address",
          "name": "p_lotteryAddress",
          "type": "address"
        }
      ],
      "name": "topBuyer",
      "outputs": [
        {
          "internalType": "address",
          "name": "",
          "type": "address"
        }
      ],
      "stateMutability": "view",
      "type": "function"
    },
    {
      "inputs": [
        {
          "internalType": "address",
          "name": "p_lotteryAddress",
          "type": "address"
        }
      ],
      "name": "completed",
      "outputs": [
        {
          "internalType": "bool",
          "name": "",
          "type": "bool"
        }
      ],
      "stateMutability": "view",
      "type": "function"
    },
    {
      "inputs": [
        {
          "internalType": "string",
          "name": "p_name",
          "type": "string"
        },
        {
          "internalType": "string",
          "name": "p_symbol",
          "type": "string"
        },
        {
          "internalType": "uint128",
          "name": "p_totalBoxes",
          "type": "uint128"
        },
        {
          "internalType": "address",
          "name": "p_stableCoin",
          "type": "address"
        },
        {
          "internalType": "uint128",
          "name": "p_boxPrice",
          "type": "uint128"
        },
        {
          "internalType": "uint256",
          "name": "p_percentageWinner",
          "type": "uint256"
        },
        {
          "internalType": "uint256",
          "name": "p_percentageSponsorWinner",
          "type": "uint256"
        },
        {
          "components": [
            {
              "internalType": "uint128",
              "name": "boxes1",
              "type": "uint128"
            },
            {
              "internalType": "uint128",
              "name": "percentage1",
              "type": "uint128"
            },
            {
              "internalType": "uint128",
              "name": "boxes2",
              "type": "uint128"
            },
            {
              "internalType": "uint128",
              "name": "percentage2",
              "type": "uint128"
            },
            {
              "internalType": "uint128",
              "name": "boxes3",
              "type": "uint128"
            },
            {
              "internalType": "uint128",
              "name": "percentage3",
              "type": "uint128"
            }
          ],
          "internalType": "struct ILottery.IncentiveMaxBuyer",
          "name": "p_incentiveMaxBuyer",
          "type": "tuple"
        },
        {
          "internalType": "uint256",
          "name": "p_incentivePercentageMaxSponsors",
          "type": "uint256"
        },
        {
          "internalType": "uint256",
          "name": "p_year",
          "type": "uint256"
        }
      ],
      "name": "createLottery",
      "outputs": [],
      "stateMutability": "nonpayable",
      "type": "function"
    },
    {
      "inputs": [
        {
          "internalType": "address",
          "name": "p_lotteryAddress",
          "type": "address"
        },
        {
          "internalType": "uint128",
          "name": "p_numberBoxes",
          "type": "uint128"
        },
        {
          "internalType": "address",
          "name": "p_buyer",
          "type": "address"
        },
        {
          "internalType": "address",
          "name": "p_sponsor",
          "type": "address"
        }
      ],
      "name": "buyBoxes",
      "outputs": [],
      "stateMutability": "nonpayable",
      "type": "function"
    },
    {
      "inputs": [
        {
          "internalType": "address",
          "name": "p_lotteryAddress",
          "type": "address"
        },
        {
          "internalType": "uint128",
          "name": "p_winningNumber",
          "type": "uint128"
        }
      ],
      "name": "setWinning",
      "outputs": [],
      "stateMutability": "nonpayable",
      "type": "function"
    },
    {
      "inputs": [
        {
          "internalType": "address",
          "name": "p_lotteryAddress",
          "type": "address"
        },
        {
          "internalType": "address",
          "name": "p_address",
          "type": "address"
        }
      ],
      "name": "withdrawBalance",
      "outputs": [],
      "stateMutability": "nonpayable",
      "type": "function"
    },
    {
      "inputs": [],
      "name": "pause",
      "outputs": [],
      "stateMutability": "nonpayable",
      "type": "function"
    },
    {
      "inputs": [],
      "name": "unpause",
      "outputs": [],
      "stateMutability": "nonpayable",
      "type": "function"
    }
  ],
  "bytecode": "0x608060405234801562000010575f80fd5b50620000216200002760201b60201c565b620001ae565b5f620000386200012b60201b60201c565b9050805f0160089054906101000a900460ff161562000083576040517ff92ee8a900000000000000000000000000000000000000000000000000000000815260040160405180910390fd5b67ffffffffffffffff8016815f015f9054906101000a900467ffffffffffffffff1667ffffffffffffffff1614620001285767ffffffffffffffff815f015f6101000a81548167ffffffffffffffff021916908367ffffffffffffffff1602179055507fc7f505b2f371ae2175ee4913f4499e1f2633a7b5936321eed1cdaeb6115181d267ffffffffffffffff6040516200011f919062000193565b60405180910390a15b50565b5f806200013d6200014660201b60201c565b90508091505090565b5f7ff0c57e16840df040f15088dc2f81fe391c3923bec73e23a9662efc9c229c6a005f1b905090565b5f67ffffffffffffffff82169050919050565b6200018d816200016f565b82525050565b5f602082019050620001a85f83018462000182565b92915050565b6135f980620001bc5f395ff3fe608060405234801561000f575f80fd5b5060043610610156575f3560e01c80638456cb59116100c1578063c438b6301161007a578063c438b6301461039d578063c4677709146103cd578063d2206677146103fd578063df40e8781461042e578063e420bdf41461045e578063f2fde38b1461048e57610156565b80638456cb59146102c85780638da5cb5b146102d25780638f63deab146102f05780639a024834146103205780639face7f614610351578063c0c53b8b1461038157610156565b80635c975abb116101135780635c975abb14610208578063676752ef146102265780636b52b65714610256578063715018a61461027257806375d175531461027c5780637db2bd88146102ac57610156565b8063058742a41461015a57806315a269f7146101785780631df8b4bb1461019457806329412219146101b05780633f4ba83a146101e057806340dd6350146101ea575b5f80fd5b6101626104aa565b60405161016f9190612130565b60405180910390f35b610192600480360381019061018d9190612184565b6104d1565b005b6101ae60048036038101906101a99190612207565b610543565b005b6101ca60048036038101906101c5919061229e565b61068f565b6040516101d791906122d8565b60405180910390f35b6101e86106a9565b005b6101f26106bb565b6040516101ff9190612130565b60405180910390f35b6102106106e3565b60405161021d919061230b565b60405180910390f35b610240600480360381019061023b9190612324565b610705565b60405161024d9190612130565b60405180910390f35b610270600480360381019061026b919061234f565b61077a565b005b61027a6107ec565b005b61029660048036038101906102919190612324565b6107ff565b6040516102a39190612415565b60405180910390f35b6102c660048036038101906102c1919061260b565b61087b565b005b6102d0610adb565b005b6102da610aed565b6040516102e79190612130565b60405180910390f35b61030a60048036038101906103059190612324565b610b22565b604051610317919061230b565b60405180910390f35b61033a60048036038101906103359190612324565b610b74565b60405161034892919061272b565b60405180910390f35b61036b60048036038101906103669190612752565b610beb565b6040516103789190612130565b60405180910390f35b61039b60048036038101906103969190612790565b610c34565b005b6103b760048036038101906103b29190612324565b610e46565b6040516103c49190612855565b60405180910390f35b6103e760048036038101906103e2919061234f565b610ec2565b6040516103f491906122d8565b60405180910390f35b6104176004803603810190610412919061286e565b610f43565b6040516104259291906128ac565b60405180910390f35b6104486004803603810190610443919061229e565b610fc7565b604051610455919061297b565b60405180910390f35b61047860048036038101906104739190612324565b6110fa565b604051610485919061230b565b60405180910390f35b6104a860048036038101906104a39190612324565b61116f565b005b5f805f9054906101000a900473ffffffffffffffffffffffffffffffffffffffff16905090565b6104d96111f3565b8173ffffffffffffffffffffffffffffffffffffffff1663756af45f826040518263ffffffff1660e01b81526004016105129190612130565b5f604051808303815f87803b158015610529575f80fd5b505af115801561053b573d5f803e3d5ffd5b505050505050565b61054b61127a565b6105536112ce565b5f73ffffffffffffffffffffffffffffffffffffffff168173ffffffffffffffffffffffffffffffffffffffff16146106185760015f9054906101000a900473ffffffffffffffffffffffffffffffffffffffff1673ffffffffffffffffffffffffffffffffffffffff16638c50e466838387876040518563ffffffff1660e01b81526004016105e6949392919061299b565b5f604051808303815f87803b1580156105fd575f80fd5b505af115801561060f573d5f803e3d5ffd5b50505050610681565b8373ffffffffffffffffffffffffffffffffffffffff16632479158284846040518363ffffffff1660e01b815260040161065392919061272b565b5f604051808303815f87803b15801561066a575f80fd5b505af115801561067c573d5f803e3d5ffd5b505050505b61068961130f565b50505050565b5f60025f8381526020019081526020015f20549050919050565b6106b16111f3565b6106b9611326565b565b5f60015f9054906101000a900473ffffffffffffffffffffffffffffffffffffffff16905090565b5f806106ed611394565b9050805f015f9054906101000a900460ff1691505090565b5f8173ffffffffffffffffffffffffffffffffffffffff16634326e8936040518163ffffffff1660e01b8152600401602060405180830381865afa15801561074f573d5f803e3d5ffd5b505050506040513d601f19601f8201168201806040525081019061077391906129f2565b9050919050565b6107826111f3565b8173ffffffffffffffffffffffffffffffffffffffff1663223e0131826040518263ffffffff1660e01b81526004016107bb9190612a1d565b5f604051808303815f87803b1580156107d2575f80fd5b505af11580156107e4573d5f803e3d5ffd5b505050505050565b6107f46111f3565b6107fd5f6113bb565b565b610807611fcd565b8173ffffffffffffffffffffffffffffffffffffffff16632119aa066040518163ffffffff1660e01b815260040160c060405180830381865afa158015610850573d5f803e3d5ffd5b505050506040513d601f19601f820116820180604052508101906108749190612ae7565b9050919050565b6108836111f3565b6108948a8a8a8a8a8a8a8a8a61148c565b5f6109295f8054906101000a900473ffffffffffffffffffffffffffffffffffffffff1673ffffffffffffffffffffffffffffffffffffffff1663fe8886fc6040518163ffffffff1660e01b8152600401602060405180830381865afa158015610900573d5f803e3d5ffd5b505050506040513d601f19601f8201168201806040525081019061092491906129f2565b611b8f565b90508073ffffffffffffffffffffffffffffffffffffffff1663417b50b38c8c8c8c8c8c8c8c8c6040518a63ffffffff1660e01b815260040161097499989796959493929190612b8c565b5f604051808303815f87803b15801561098b575f80fd5b505af115801561099d573d5f803e3d5ffd5b5050505060025f8381526020019081526020015f205f8154809291906109c290612c52565b91905055508060045f8481526020019081526020015f205f60025f8681526020019081526020015f205481526020019081526020015f205f6101000a81548173ffffffffffffffffffffffffffffffffffffffff021916908373ffffffffffffffffffffffffffffffffffffffff160217905550600160035f8373ffffffffffffffffffffffffffffffffffffffff1673ffffffffffffffffffffffffffffffffffffffff1681526020019081526020015f205f6101000a81548160ff0219169083151502179055508073ffffffffffffffffffffffffffffffffffffffff167fdbb18653dafc4962dc966dac250a14155f0c8a5040e55c5c59ed5f4acb69f5be60405160405180910390a25050505050505050505050565b610ae36111f3565b610aeb611ba1565b565b5f80610af7611c10565b9050805f015f9054906101000a900473ffffffffffffffffffffffffffffffffffffffff1691505090565b5f60035f8373ffffffffffffffffffffffffffffffffffffffff1673ffffffffffffffffffffffffffffffffffffffff1681526020019081526020015f205f9054906101000a900460ff169050919050565b5f808273ffffffffffffffffffffffffffffffffffffffff166348764c046040518163ffffffff1660e01b81526004016040805180830381865afa158015610bbe573d5f803e3d5ffd5b505050506040513d601f19601f82011682018060405250810190610be29190612c99565b91509150915091565b5f60045f8381526020019081526020015f205f8481526020019081526020015f205f9054906101000a900473ffffffffffffffffffffffffffffffffffffffff16905092915050565b5f610c3d611c37565b90505f815f0160089054906101000a900460ff161590505f825f015f9054906101000a900467ffffffffffffffff1690505f808267ffffffffffffffff16148015610c855750825b90505f60018367ffffffffffffffff16148015610cb857505f3073ffffffffffffffffffffffffffffffffffffffff163b145b905081158015610cc6575080155b15610cfd576040517ff92ee8a900000000000000000000000000000000000000000000000000000000815260040160405180910390fd5b6001855f015f6101000a81548167ffffffffffffffff021916908367ffffffffffffffff1602179055508315610d4a576001855f0160086101000a81548160ff0219169083151502179055505b610d52611c4a565b610d5b88611c54565b610d63611c68565b865f806101000a81548173ffffffffffffffffffffffffffffffffffffffff021916908373ffffffffffffffffffffffffffffffffffffffff1602179055508560015f6101000a81548173ffffffffffffffffffffffffffffffffffffffff021916908373ffffffffffffffffffffffffffffffffffffffff1602179055508315610e3c575f855f0160086101000a81548160ff0219169083151502179055507fc7f505b2f371ae2175ee4913f4499e1f2633a7b5936321eed1cdaeb6115181d26001604051610e339190612d2c565b60405180910390a15b5050505050505050565b610e4e612069565b8173ffffffffffffffffffffffffffffffffffffffff1663be2e69056040518163ffffffff1660e01b815260040160a060405180830381865afa158015610e97573d5f803e3d5ffd5b505050506040513d601f19601f82011682018060405250810190610ebb9190612dce565b9050919050565b5f8273ffffffffffffffffffffffffffffffffffffffff1663aeb9cb34836040518263ffffffff1660e01b8152600401610efc9190612a1d565b602060405180830381865afa158015610f17573d5f803e3d5ffd5b505050506040513d601f19601f82011682018060405250810190610f3b9190612e0d565b905092915050565b5f808373ffffffffffffffffffffffffffffffffffffffff1663703e2c51846040518263ffffffff1660e01b8152600401610f7e91906122d8565b6040805180830381865afa158015610f98573d5f803e3d5ffd5b505050506040513d601f19601f82011682018060405250810190610fbc9190612e38565b915091509250929050565b60605f60025f8481526020019081526020015f205467ffffffffffffffff811115610ff557610ff4612446565b5b6040519080825280602002602001820160405280156110235781602001602082028036833780820191505090505b5090505f600190505b60025f8581526020019081526020015f205481116110f05760045f8581526020019081526020015f205f8281526020019081526020015f205f9054906101000a900473ffffffffffffffffffffffffffffffffffffffff16826001836110929190612e76565b815181106110a3576110a2612ea9565b5b602002602001019073ffffffffffffffffffffffffffffffffffffffff16908173ffffffffffffffffffffffffffffffffffffffff168152505080806110e890612c52565b91505061102c565b8192505050919050565b5f8173ffffffffffffffffffffffffffffffffffffffff16639d9a7fe96040518163ffffffff1660e01b8152600401602060405180830381865afa158015611144573d5f803e3d5ffd5b505050506040513d601f19601f820116820180604052508101906111689190612f00565b9050919050565b6111776111f3565b5f73ffffffffffffffffffffffffffffffffffffffff168173ffffffffffffffffffffffffffffffffffffffff16036111e7575f6040517f1e4fbdf70000000000000000000000000000000000000000000000000000000081526004016111de9190612130565b60405180910390fd5b6111f0816113bb565b50565b6111fb611c7a565b73ffffffffffffffffffffffffffffffffffffffff16611219610aed565b73ffffffffffffffffffffffffffffffffffffffff16146112785761123c611c7a565b6040517f118cdaa700000000000000000000000000000000000000000000000000000000815260040161126f9190612130565b60405180910390fd5b565b5f611283611c81565b90506002815f0154036112c2576040517f3ee5aeb500000000000000000000000000000000000000000000000000000000815260040160405180910390fd5b6002815f018190555050565b6112d66106e3565b1561130d576040517fd93c066500000000000000000000000000000000000000000000000000000000815260040160405180910390fd5b565b5f611318611c81565b90506001815f018190555050565b61132e611ca8565b5f611337611394565b90505f815f015f6101000a81548160ff0219169083151502179055507f5db9ee0a495bf2e6ff9c91a7834c1ba4fdd244a5e8aa4e537bd38aeae4b073aa61137c611c7a565b6040516113899190612130565b60405180910390a150565b5f7fcd5ed15c6e187e77e9aee88184c21f4f2182ab5827cb3b7e07fbedcd63f03300905090565b5f6113c4611c10565b90505f815f015f9054906101000a900473ffffffffffffffffffffffffffffffffffffffff16905082825f015f6101000a81548173ffffffffffffffffffffffffffffffffffffffff021916908373ffffffffffffffffffffffffffffffffffffffff1602179055508273ffffffffffffffffffffffffffffffffffffffff168173ffffffffffffffffffffffffffffffffffffffff167f8be0079c531659141344cd1fd0a4f28419497f9722a3daafe3b4186f6b6457e060405160405180910390a3505050565b60038951101580156114a057506003885110155b6114df576040517f08c379a00000000000000000000000000000000000000000000000000000000081526004016114d690612f75565b60405180910390fd5b5f876fffffffffffffffffffffffffffffffff1611611533576040517f08c379a000000000000000000000000000000000000000000000000000000000815260040161152a90612fdd565b60405180910390fd5b61153c86611ce8565b61157b576040517f08c379a000000000000000000000000000000000000000000000000000000000815260040161157290613045565b60405180910390fd5b5f856fffffffffffffffffffffffffffffffff16116115cf576040517f08c379a00000000000000000000000000000000000000000000000000000000081526004016115c6906130ad565b60405180910390fd5b606484101580156115e257506127108411155b611621576040517f08c379a000000000000000000000000000000000000000000000000000000000815260040161161890613115565b60405180910390fd5b6064831015801561163457506127108311155b611673576040517f08c379a000000000000000000000000000000000000000000000000000000000815260040161166a906131a3565b60405180910390fd5b5f825f01516fffffffffffffffffffffffffffffffff16101580156116bf5750866fffffffffffffffffffffffffffffffff16825f01516fffffffffffffffffffffffffffffffff1611155b6116fe576040517f08c379a00000000000000000000000000000000000000000000000000000000081526004016116f59061320b565b60405180910390fd5b606482602001516fffffffffffffffffffffffffffffffff161015801561173d575061271082602001516fffffffffffffffffffffffffffffffff1611155b61177c576040517f08c379a000000000000000000000000000000000000000000000000000000000815260040161177390613273565b60405180910390fd5b5f82604001516fffffffffffffffffffffffffffffffff16101580156117ca5750866fffffffffffffffffffffffffffffffff1682604001516fffffffffffffffffffffffffffffffff1611155b611809576040517f08c379a0000000000000000000000000000000000000000000000000000000008152600401611800906132db565b60405180910390fd5b606482606001516fffffffffffffffffffffffffffffffff1610158015611848575061271082606001516fffffffffffffffffffffffffffffffff1611155b611887576040517f08c379a000000000000000000000000000000000000000000000000000000000815260040161187e90613343565b60405180910390fd5b5f82608001516fffffffffffffffffffffffffffffffff16101580156118d55750866fffffffffffffffffffffffffffffffff1682608001516fffffffffffffffffffffffffffffffff1611155b611914576040517f08c379a000000000000000000000000000000000000000000000000000000000815260040161190b906133ab565b60405180910390fd5b60648260a001516fffffffffffffffffffffffffffffffff161015801561195357506127108260a001516fffffffffffffffffffffffffffffffff1611155b611992576040517f08c379a000000000000000000000000000000000000000000000000000000000815260040161198990613413565b60405180910390fd5b606481101580156119a557506127108111155b6119e4576040517f08c379a00000000000000000000000000000000000000000000000000000000081526004016119db9061347b565b60405180910390fd5b5f82606001516fffffffffffffffffffffffffffffffff1683602001516fffffffffffffffffffffffffffffffff1610611a22578260200151611a28565b82606001515b6fffffffffffffffffffffffffffffffff1690508260a001516fffffffffffffffffffffffffffffffff168110611a5f5780611a77565b8260a001516fffffffffffffffffffffffffffffffff165b905061271082828688611a8a9190613499565b611a949190613499565b611a9e9190613499565b1115611adf576040517f08c379a0000000000000000000000000000000000000000000000000000000008152600401611ad690613516565b60405180910390fd5b82604001516fffffffffffffffffffffffffffffffff16835f01516fffffffffffffffffffffffffffffffff16108015611b44575082608001516fffffffffffffffffffffffffffffffff1683604001516fffffffffffffffffffffffffffffffff16105b611b83576040517f08c379a0000000000000000000000000000000000000000000000000000000008152600401611b7a9061357e565b60405180910390fd5b50505050505050505050565b5f611b9a825f611dae565b9050919050565b611ba96112ce565b5f611bb2611394565b90506001815f015f6101000a81548160ff0219169083151502179055507f62e78cea01bee320cd4e420270b5ea74000d11b0c9f74754ebdbfc544b05a258611bf8611c7a565b604051611c059190612130565b60405180910390a150565b5f7f9016d09d72d40fdae2fd8ceac6b6234c7706214fd39c1cd1e609a0528c199300905090565b5f80611c41611ea3565b90508091505090565b611c52611ecc565b565b611c5c611ecc565b611c6581611f0c565b50565b611c70611ecc565b611c78611f90565b565b5f33905090565b5f7f9b779b17422d0df92223018b32b4d1fa46e071723d6817e2486d003becc55f00905090565b611cb06106e3565b611ce6576040517f8dfc202b00000000000000000000000000000000000000000000000000000000815260040160405180910390fd5b565b5f8073ffffffffffffffffffffffffffffffffffffffff168273ffffffffffffffffffffffffffffffffffffffff1603611d24575f9050611da9565b8173ffffffffffffffffffffffffffffffffffffffff166370a08231306040518263ffffffff1660e01b8152600401611d5d9190612130565b602060405180830381865afa925050508015611d9757506040513d601f19601f82011682018060405250810190611d949190612e0d565b60015b611da3575f9050611da9565b60019150505b919050565b5f81471015611df65747826040517fcf479181000000000000000000000000000000000000000000000000000000008152600401611ded92919061359c565b60405180910390fd5b763d602d80600a3d3981f3363d3d373d3d3d363d730000008360601b60e81c175f526e5af43d82803e903d91602b57fd5bf38360781b176020526037600983f090505f73ffffffffffffffffffffffffffffffffffffffff168173ffffffffffffffffffffffffffffffffffffffff1603611e9d576040517fb06ebf3d00000000000000000000000000000000000000000000000000000000815260040160405180910390fd5b92915050565b5f7ff0c57e16840df040f15088dc2f81fe391c3923bec73e23a9662efc9c229c6a005f1b905090565b611ed4611faf565b611f0a576040517fd7e6bcf800000000000000000000000000000000000000000000000000000000815260040160405180910390fd5b565b611f14611ecc565b5f73ffffffffffffffffffffffffffffffffffffffff168173ffffffffffffffffffffffffffffffffffffffff1603611f84575f6040517f1e4fbdf7000000000000000000000000000000000000000000000000000000008152600401611f7b9190612130565b60405180910390fd5b611f8d816113bb565b50565b611f98611ecc565b5f611fa1611c81565b90506001815f018190555050565b5f611fb8611c37565b5f0160089054906101000a900460ff16905090565b6040518060c001604052805f6fffffffffffffffffffffffffffffffff1681526020015f6fffffffffffffffffffffffffffffffff1681526020015f6fffffffffffffffffffffffffffffffff1681526020015f6fffffffffffffffffffffffffffffffff1681526020015f6fffffffffffffffffffffffffffffffff1681526020015f6fffffffffffffffffffffffffffffffff1681525090565b6040518060a001604052805f73ffffffffffffffffffffffffffffffffffffffff1681526020015f6fffffffffffffffffffffffffffffffff1681526020015f6fffffffffffffffffffffffffffffffff1681526020015f6fffffffffffffffffffffffffffffffff1681526020015f6fffffffffffffffffffffffffffffffff1681525090565b5f73ffffffffffffffffffffffffffffffffffffffff82169050919050565b5f61211a826120f1565b9050919050565b61212a81612110565b82525050565b5f6020820190506121435f830184612121565b92915050565b5f604051905090565b5f80fd5b5f80fd5b61216381612110565b811461216d575f80fd5b50565b5f8135905061217e8161215a565b92915050565b5f806040838503121561219a57612199612152565b5b5f6121a785828601612170565b92505060206121b885828601612170565b9150509250929050565b5f6fffffffffffffffffffffffffffffffff82169050919050565b6121e6816121c2565b81146121f0575f80fd5b50565b5f81359050612201816121dd565b92915050565b5f805f806080858703121561221f5761221e612152565b5b5f61222c87828801612170565b945050602061223d878288016121f3565b935050604061224e87828801612170565b925050606061225f87828801612170565b91505092959194509250565b5f819050919050565b61227d8161226b565b8114612287575f80fd5b50565b5f8135905061229881612274565b92915050565b5f602082840312156122b3576122b2612152565b5b5f6122c08482850161228a565b91505092915050565b6122d28161226b565b82525050565b5f6020820190506122eb5f8301846122c9565b92915050565b5f8115159050919050565b612305816122f1565b82525050565b5f60208201905061231e5f8301846122fc565b92915050565b5f6020828403121561233957612338612152565b5b5f61234684828501612170565b91505092915050565b5f806040838503121561236557612364612152565b5b5f61237285828601612170565b9250506020612383858286016121f3565b9150509250929050565b612396816121c2565b82525050565b60c082015f8201516123b05f85018261238d565b5060208201516123c3602085018261238d565b5060408201516123d6604085018261238d565b5060608201516123e9606085018261238d565b5060808201516123fc608085018261238d565b5060a082015161240f60a085018261238d565b50505050565b5f60c0820190506124285f83018461239c565b92915050565b5f80fd5b5f80fd5b5f601f19601f8301169050919050565b7f4e487b71000000000000000000000000000000000000000000000000000000005f52604160045260245ffd5b61247c82612436565b810181811067ffffffffffffffff8211171561249b5761249a612446565b5b80604052505050565b5f6124ad612149565b90506124b98282612473565b919050565b5f67ffffffffffffffff8211156124d8576124d7612446565b5b6124e182612436565b9050602081019050919050565b828183375f83830152505050565b5f61250e612509846124be565b6124a4565b90508281526020810184848401111561252a57612529612432565b5b6125358482856124ee565b509392505050565b5f82601f8301126125515761255061242e565b5b81356125618482602086016124fc565b91505092915050565b5f80fd5b5f60c082840312156125835761258261256a565b5b61258d60c06124a4565b90505f61259c848285016121f3565b5f8301525060206125af848285016121f3565b60208301525060406125c3848285016121f3565b60408301525060606125d7848285016121f3565b60608301525060806125eb848285016121f3565b60808301525060a06125ff848285016121f3565b60a08301525092915050565b5f805f805f805f805f806101e08b8d03121561262a57612629612152565b5b5f8b013567ffffffffffffffff81111561264757612646612156565b5b6126538d828e0161253d565b9a505060208b013567ffffffffffffffff81111561267457612673612156565b5b6126808d828e0161253d565b99505060406126918d828e016121f3565b98505060606126a28d828e01612170565b97505060806126b38d828e016121f3565b96505060a06126c48d828e0161228a565b95505060c06126d58d828e0161228a565b94505060e06126e68d828e0161256e565b9350506101a06126f88d828e0161228a565b9250506101c061270a8d828e0161228a565b9150509295989b9194979a5092959850565b612725816121c2565b82525050565b5f60408201905061273e5f83018561271c565b61274b6020830184612121565b9392505050565b5f806040838503121561276857612767612152565b5b5f6127758582860161228a565b92505060206127868582860161228a565b9150509250929050565b5f805f606084860312156127a7576127a6612152565b5b5f6127b486828701612170565b93505060206127c586828701612170565b92505060406127d686828701612170565b9150509250925092565b6127e981612110565b82525050565b60a082015f8201516128035f8501826127e0565b506020820151612816602085018261238d565b506040820151612829604085018261238d565b50606082015161283c606085018261238d565b50608082015161284f608085018261238d565b50505050565b5f60a0820190506128685f8301846127ef565b92915050565b5f806040838503121561288457612883612152565b5b5f61289185828601612170565b92505060206128a28582860161228a565b9150509250929050565b5f6040820190506128bf5f83018561271c565b6128cc602083018461271c565b9392505050565b5f81519050919050565b5f82825260208201905092915050565b5f819050602082019050919050565b5f61290783836127e0565b60208301905092915050565b5f602082019050919050565b5f612929826128d3565b61293381856128dd565b935061293e836128ed565b805f5b8381101561296e57815161295588826128fc565b975061296083612913565b925050600181019050612941565b5085935050505092915050565b5f6020820190508181035f830152612993818461291f565b905092915050565b5f6080820190506129ae5f830187612121565b6129bb6020830186612121565b6129c86040830185612121565b6129d5606083018461271c565b95945050505050565b5f815190506129ec8161215a565b92915050565b5f60208284031215612a0757612a06612152565b5b5f612a14848285016129de565b91505092915050565b5f602082019050612a305f83018461271c565b92915050565b5f81519050612a44816121dd565b92915050565b5f60c08284031215612a5f57612a5e61256a565b5b612a6960c06124a4565b90505f612a7884828501612a36565b5f830152506020612a8b84828501612a36565b6020830152506040612a9f84828501612a36565b6040830152506060612ab384828501612a36565b6060830152506080612ac784828501612a36565b60808301525060a0612adb84828501612a36565b60a08301525092915050565b5f60c08284031215612afc57612afb612152565b5b5f612b0984828501612a4a565b91505092915050565b5f81519050919050565b5f82825260208201905092915050565b5f5b83811015612b49578082015181840152602081019050612b2e565b5f8484015250505050565b5f612b5e82612b12565b612b688185612b1c565b9350612b78818560208601612b2c565b612b8181612436565b840191505092915050565b5f6101c0820190508181035f830152612ba5818c612b54565b90508181036020830152612bb9818b612b54565b9050612bc8604083018a61271c565b612bd56060830189612121565b612be2608083018861271c565b612bef60a08301876122c9565b612bfc60c08301866122c9565b612c0960e083018561239c565b612c176101a08301846122c9565b9a9950505050505050505050565b7f4e487b71000000000000000000000000000000000000000000000000000000005f52601160045260245ffd5b5f612c5c8261226b565b91507fffffffffffffffffffffffffffffffffffffffffffffffffffffffffffffffff8203612c8e57612c8d612c25565b5b600182019050919050565b5f8060408385031215612caf57612cae612152565b5b5f612cbc85828601612a36565b9250506020612ccd858286016129de565b9150509250929050565b5f819050919050565b5f67ffffffffffffffff82169050919050565b5f819050919050565b5f612d16612d11612d0c84612cd7565b612cf3565b612ce0565b9050919050565b612d2681612cfc565b82525050565b5f602082019050612d3f5f830184612d1d565b92915050565b5f60a08284031215612d5a57612d5961256a565b5b612d6460a06124a4565b90505f612d73848285016129de565b5f830152506020612d8684828501612a36565b6020830152506040612d9a84828501612a36565b6040830152506060612dae84828501612a36565b6060830152506080612dc284828501612a36565b60808301525092915050565b5f60a08284031215612de357612de2612152565b5b5f612df084828501612d45565b91505092915050565b5f81519050612e0781612274565b92915050565b5f60208284031215612e2257612e21612152565b5b5f612e2f84828501612df9565b91505092915050565b5f8060408385031215612e4e57612e4d612152565b5b5f612e5b85828601612a36565b9250506020612e6c85828601612a36565b9150509250929050565b5f612e808261226b565b9150612e8b8361226b565b9250828203905081811115612ea357612ea2612c25565b5b92915050565b7f4e487b71000000000000000000000000000000000000000000000000000000005f52603260045260245ffd5b612edf816122f1565b8114612ee9575f80fd5b50565b5f81519050612efa81612ed6565b92915050565b5f60208284031215612f1557612f14612152565b5b5f612f2284828501612eec565b91505092915050565b7f496e76616c6964206e616d65206f722073796d626f6c000000000000000000005f82015250565b5f612f5f601683612b1c565b9150612f6a82612f2b565b602082019050919050565b5f6020820190508181035f830152612f8c81612f53565b9050919050565b7f496e76616c696420746f74616c20626f786573000000000000000000000000005f82015250565b5f612fc7601383612b1c565b9150612fd282612f93565b602082019050919050565b5f6020820190508181035f830152612ff481612fbb565b9050919050565b7f496e76616c696420737461626c65636f696e20616464726573730000000000005f82015250565b5f61302f601a83612b1c565b915061303a82612ffb565b602082019050919050565b5f6020820190508181035f83015261305c81613023565b9050919050565b7f496e76616c696420626f782070726963650000000000000000000000000000005f82015250565b5f613097601183612b1c565b91506130a282613063565b602082019050919050565b5f6020820190508181035f8301526130c48161308b565b9050919050565b7f496e76616c69642070657263656e746167652077696e6e6572000000000000005f82015250565b5f6130ff601983612b1c565b915061310a826130cb565b602082019050919050565b5f6020820190508181035f83015261312c816130f3565b9050919050565b7f496e76616c69642070657263656e746167652073706f6e736f722077696e6e655f8201527f7200000000000000000000000000000000000000000000000000000000000000602082015250565b5f61318d602183612b1c565b915061319882613133565b604082019050919050565b5f6020820190508181035f8301526131ba81613181565b9050919050565b7f496e76616c6964206d617820627579657220626f7865732031000000000000005f82015250565b5f6131f5601983612b1c565b9150613200826131c1565b602082019050919050565b5f6020820190508181035f830152613222816131e9565b9050919050565b7f496e76616c6964206d61782062757965722070657263656e74616765203100005f82015250565b5f61325d601e83612b1c565b915061326882613229565b602082019050919050565b5f6020820190508181035f83015261328a81613251565b9050919050565b7f496e76616c6964206d617820627579657220626f7865732032000000000000005f82015250565b5f6132c5601983612b1c565b91506132d082613291565b602082019050919050565b5f6020820190508181035f8301526132f2816132b9565b9050919050565b7f496e76616c6964206d61782062757965722070657263656e74616765203200005f82015250565b5f61332d601e83612b1c565b9150613338826132f9565b602082019050919050565b5f6020820190508181035f83015261335a81613321565b9050919050565b7f496e76616c6964206d617820627579657220626f7865732033000000000000005f82015250565b5f613395601983612b1c565b91506133a082613361565b602082019050919050565b5f6020820190508181035f8301526133c281613389565b9050919050565b7f496e76616c6964206d61782062757965722070657263656e74616765203300005f82015250565b5f6133fd601e83612b1c565b9150613408826133c9565b602082019050919050565b5f6020820190508181035f83015261342a816133f1565b9050919050565b7f496e76616c6964206d61782073706f6e736f72732070657263656e74616765005f82015250565b5f613465601f83612b1c565b915061347082613431565b602082019050919050565b5f6020820190508181035f83015261349281613459565b9050919050565b5f6134a38261226b565b91506134ae8361226b565b92508282019050808211156134c6576134c5612c25565b5b92915050565b7f496e76616c69642070657263656e74616765732073756d0000000000000000005f82015250565b5f613500601783612b1c565b915061350b826134cc565b602082019050919050565b5f6020820190508181035f83015261352d816134f4565b9050919050565b7f496e76616c696420626f786573000000000000000000000000000000000000005f82015250565b5f613568600d83612b1c565b915061357382613534565b602082019050919050565b5f6020820190508181035f8301526135958161355c565b9050919050565b5f6040820190506135af5f8301856122c9565b6135bc60208301846122c9565b939250505056fea264697066735822122036964e1e4f072bfa2287a067945474724a14f55fee6e4146af3b383e3713837164736f6c63430008150033",
  "immutableReferences": {},
  "source": "// SPDX-License-Identifier: MIT\npragma solidity ^0.8.20;\n\nimport \"@openzeppelin/contracts/token/ERC20/IERC20.sol\";\nimport \"@openzeppelin/contracts-upgradeable/utils/PausableUpgradeable.sol\";\nimport \"@openzeppelin/contracts-upgradeable/access/OwnableUpgradeable.sol\";\nimport \"@openzeppelin/contracts-upgradeable/proxy/utils/Initializable.sol\";\nimport \"@openzeppelin/contracts-upgradeable/utils/ReentrancyGuardUpgradeable.sol\";\nimport \"@openzeppelin/contracts/proxy/Clones.sol\";\n\nimport \"../interfaces/ILotteryFactoryMiddleware.sol\";\nimport \"../interfaces/ILottery.sol\"; \nimport \"../interfaces/ISponsors.sol\";\nimport \"../interfaces/ILotteryFactory.sol\";\n\ncontract LotteryFactory is Initializable, PausableUpgradeable, OwnableUpgradeable, ReentrancyGuardUpgradeable, ILotteryFactory {\n    //////////////////////////////////////////////////////////////////////////////////////////////////\n    // State\n    ////////////////////////////////////////////////////////////////////////////////////////////////// \n\n    address private s_middleware;\n    address private s_sponsorsContractAddress;\n    mapping(uint256 year => uint256) private s_lotteriesCount;\n    mapping(address => bool) private s_lotteriesFlag;\n    mapping(uint256 year => mapping(uint256 index => address)) private s_lotteries;\n\n    //////////////////////////////////////////////////////////////////////////////////////////////////\n    // Initialization\n    //////////////////////////////////////////////////////////////////////////////////////////////////\n\n    function initialize(address p_initialOwner, address p_middleware, address p_sponsors) initializer public override {\n        __Pausable_init();\n        __Ownable_init(p_initialOwner);\n        __ReentrancyGuard_init();\n\n        s_middleware = p_middleware;\n        s_sponsorsContractAddress = p_sponsors;\n    }\n\n    /// @custom:oz-upgrades-unsafe-allow constructor\n    constructor() { _disableInitializers(); }\n\n    //////////////////////////////////////////////////////////////////////////////////////////////////\n    // Public functions\n    //////////////////////////////////////////////////////////////////////////////////////////////////\n\n    // View functions\n\n    function sponsorsConctract() public view override returns(address) {\n        return s_sponsorsContractAddress; \n    }\n\n    function getMiddleware() public view override returns(address) {\n        return s_middleware;\n    }\n\n    function getLotteriesCount(uint256 p_year) public view override returns(uint256) {\n        return s_lotteriesCount[p_year];  \n    }\n\n    function lotteryFlag(address p_lotteryAddress) public view override returns(bool) {\n        return s_lotteriesFlag[p_lotteryAddress];\n    }\n\n    // Get all lotteries addresses for a year\n    function getAllLotteries(uint256 p_year) public view override returns(address[] memory) {\n        address[] memory _lotteries = new address[](s_lotteriesCount[p_year]);\n\n        uint256 _i = 1;\n        for (_i; _i <= s_lotteriesCount[p_year];) {\n            _lotteries[_i - 1] = s_lotteries[p_year][_i];\n            _i++;\n        }\n\n        return _lotteries;\n    } \n\n    function getLotteryAddress(uint256 p_index, uint256 p_year) public view override returns(address) { \n        return s_lotteries[p_year][p_index]; \n    }\n\n    function infoLottery(address p_lotteryAddress) public view override returns(ILottery.LoterryInfo memory) {\n        return ILottery(p_lotteryAddress).infoLottery();\n    }\n\n    function infoIncentiveMaxBuyer(address p_lotteryAddress) public view override returns(ILottery.IncentiveMaxBuyer memory) {\n        return ILottery(p_lotteryAddress).infoIncentiveMaxBuyer();\n    }\n\n    function ticketAccountWinner(address p_lotteryAddress) public view override returns(uint128, address) {\n        return ILottery(p_lotteryAddress).ticketAccountWinner();\n    }\n\n    function ticketToBox(address p_lotteryAddress, uint128 p_ticket) public view override returns(uint256) {\n        return ILottery(p_lotteryAddress).ticketToBox(p_ticket);\n    }\n\n    function ticketsBox(address p_lotteryAddress, uint256 p_boxId) public view override returns(uint128, uint128) {\n        return ILottery(p_lotteryAddress).ticketsBox(p_boxId);\n    }\n\n    function topBuyer(address p_lotteryAddress) public view override returns(address) {\n        return ILottery(p_lotteryAddress).topBuyer();\n    }\n\n    function completed(address p_lotteryAddress) public view override returns(bool) { \n        return ILottery(p_lotteryAddress).completed();\n    }\n\n    // Set functions \n\n    function createLottery(\n        string memory p_name,\n        string memory p_symbol,\n        uint128 p_totalBoxes, \n        address p_stableCoin, \n        uint128 p_boxPrice,\n        uint256 p_percentageWinner,\n        uint256 p_percentageSponsorWinner,\n        ILottery.IncentiveMaxBuyer memory p_incentiveMaxBuyer,\n        uint256 p_incentivePercentageMaxSponsors,\n        uint256 p_year\n    ) public override onlyOwner { \n        _checkInitParametersLottery(\n            p_name,\n            p_symbol,\n            p_totalBoxes,\n            p_stableCoin,\n            p_boxPrice,\n            p_percentageWinner,\n            p_percentageSponsorWinner,\n            p_incentiveMaxBuyer,\n            p_incentivePercentageMaxSponsors \n        );\n        \n        address _clone = Clones.clone(ILotteryFactoryMiddleware(s_middleware).cloneImplementation());\n\n        ILottery(_clone).initialize(\n            p_name,\n            p_symbol,\n            p_totalBoxes,\n            p_stableCoin,\n            p_boxPrice,\n            p_percentageWinner,\n            p_percentageSponsorWinner,\n            p_incentiveMaxBuyer,\n            p_incentivePercentageMaxSponsors\n        );\n\n        s_lotteriesCount[p_year]++;\n        s_lotteries[p_year][s_lotteriesCount[p_year]] = _clone;\n        s_lotteriesFlag[_clone] = true;\n\n        emit NewLottery(_clone); \n    }\n\n    function buyBoxes(address p_lotteryAddress, uint128 p_numberBoxes, address p_buyer, address p_sponsor) public override nonReentrant whenNotPaused {\n        if (p_sponsor != address(0)) {\n            ISponsors(s_sponsorsContractAddress).registerAccountWithLottery(p_buyer, p_sponsor, p_lotteryAddress, p_numberBoxes); \n        } else {\n            ILottery(p_lotteryAddress).buyBoxes(p_numberBoxes, p_buyer);\n        }\n    }\n\n    function setWinning(address p_lotteryAddress, uint128 p_winningNumber) public override onlyOwner {\n        ILottery(p_lotteryAddress).setWinning(p_winningNumber);\n    }\n\n    function withdrawBalance(address p_lotteryAddress, address p_address) public override onlyOwner {\n        ILottery(p_lotteryAddress).withdrawBalance(p_address);\n    }\n\n    function pause() public override onlyOwner {\n        _pause();\n    }\n\n    function unpause() public override onlyOwner {\n        _unpause();\n    }\n\n    //////////////////////////////////////////////////////////////////////////////////////////////////\n    // Internal / Private functions\n    //////////////////////////////////////////////////////////////////////////////////////////////////\n\n    function _checkInitParametersLottery(\n        string memory p_name,\n        string memory p_symbol,\n        uint128 p_totalBoxes, \n        address p_stableCoin, \n        uint128 p_boxPrice,\n        uint256 p_percentageWinner,\n        uint256 p_percentageSponsorWinner,\n        ILottery.IncentiveMaxBuyer memory p_incentiveMaxBuyer,\n        uint256 p_incentivePercentageMaxSponsors\n    ) private view {\n        require(bytes(p_name).length >= 3 && bytes(p_symbol).length >= 3, \"Invalid name or symbol\");\n        require(p_totalBoxes > 0, \"Invalid total boxes\");\n        require(_isERC20(p_stableCoin), \"Invalid stablecoin address\");\n        require(p_boxPrice > 0, \"Invalid box price\");\n        require(p_percentageWinner >= 100 && p_percentageWinner <= 10000, \"Invalid percentage winner\");\n        require(p_percentageSponsorWinner >= 100 && p_percentageSponsorWinner <= 10000, \"Invalid percentage sponsor winner\");\n        require(p_incentiveMaxBuyer.boxes1 >= 0 && p_incentiveMaxBuyer.boxes1 <= p_totalBoxes, \"Invalid max buyer boxes 1\");\n        require(p_incentiveMaxBuyer.percentage1 >= 100 && p_incentiveMaxBuyer.percentage1 <= 10000, \"Invalid max buyer percentage 1\");\n        require(p_incentiveMaxBuyer.boxes2 >= 0 && p_incentiveMaxBuyer.boxes2 <= p_totalBoxes, \"Invalid max buyer boxes 2\");\n        require(p_incentiveMaxBuyer.percentage2 >= 100 && p_incentiveMaxBuyer.percentage2 <= 10000, \"Invalid max buyer percentage 2\");\n        require(p_incentiveMaxBuyer.boxes3 >= 0 && p_incentiveMaxBuyer.boxes3 <= p_totalBoxes, \"Invalid max buyer boxes 3\");\n        require(p_incentiveMaxBuyer.percentage3 >= 100 && p_incentiveMaxBuyer.percentage3 <= 10000, \"Invalid max buyer percentage 3\");\n        require(p_incentivePercentageMaxSponsors >= 100 && p_incentivePercentageMaxSponsors <= 10000, \"Invalid max sponsors percentage\");\n\n        uint256 _incentiveMaxBuyer = (p_incentiveMaxBuyer.percentage1 < p_incentiveMaxBuyer.percentage2) ? p_incentiveMaxBuyer.percentage2 : p_incentiveMaxBuyer.percentage1;\n        _incentiveMaxBuyer = (_incentiveMaxBuyer < p_incentiveMaxBuyer.percentage3) ? p_incentiveMaxBuyer.percentage3 : _incentiveMaxBuyer;\n        require(\n            p_percentageWinner + \n            p_percentageSponsorWinner + \n            _incentiveMaxBuyer + \n            p_incentivePercentageMaxSponsors <= 10000,\n            \"Invalid percentages sum\"\n        );\n\n        require(\n            p_incentiveMaxBuyer.boxes1 < p_incentiveMaxBuyer.boxes2 &&\n            p_incentiveMaxBuyer.boxes2 < p_incentiveMaxBuyer.boxes3,\n            \"Invalid boxes\"\n        );\n    }\n\n    function _isERC20(address _address) private view returns (bool) {\n        if (_address == address(0)) { return false; }\n        try IERC20(_address).balanceOf(address(this)) returns (uint256) {\n            return true;\n        } catch {\n            return false;\n        }\n    }\n}\n",
  "sourcePath": "/Users/johancard/Downloads/Copia de lottery-main 4/contracts/LotteryFactory.sol",
  "compiler": {
    "name": "solc",
    "version": "0.8.21+commit.d9974bed.Emscripten.clang"
  },
  "schemaVersion": "3.4.16",
  "updatedAt": "2025-12-08T18:57:55.048Z",
  "devdoc": {
    "errors": {
      "EnforcedPause()": [
        {
          "details": "The operation failed because the contract is paused."
        }
      ],
      "ExpectedPause()": [
        {
          "details": "The operation failed because the contract is not paused."
        }
      ],
      "FailedDeployment()": [
        {
          "details": "The deployment failed."
        }
      ],
      "InsufficientBalance(uint256,uint256)": [
        {
          "details": "The ETH balance of the account is not enough to perform the operation."
        }
      ],
      "InvalidInitialization()": [
        {
          "details": "The contract is already initialized."
        }
      ],
      "NotInitializing()": [
        {
          "details": "The contract is not initializing."
        }
      ],
      "OwnableInvalidOwner(address)": [
        {
          "details": "The owner is not a valid owner account. (eg. `address(0)`)"
        }
      ],
      "OwnableUnauthorizedAccount(address)": [
        {
          "details": "The caller account is not authorized to perform an operation."
        }
      ],
      "ReentrancyGuardReentrantCall()": [
        {
          "details": "Unauthorized reentrant call."
        }
      ]
    },
    "events": {
      "Initialized(uint64)": {
        "details": "Triggered when the contract has been initialized or reinitialized."
      },
      "Paused(address)": {
        "details": "Emitted when the pause is triggered by `account`."
      },
      "Unpaused(address)": {
        "details": "Emitted when the pause is lifted by `account`."
      }
    },
    "kind": "dev",
    "methods": {
      "constructor": {
        "custom:oz-upgrades-unsafe-allow": "constructor"
      },
      "owner()": {
        "details": "Returns the address of the current owner."
      },
      "paused()": {
        "details": "Returns true if the contract is paused, and false otherwise."
      },
      "renounceOwnership()": {
        "details": "Leaves the contract without owner. It will not be possible to call `onlyOwner` functions. Can only be called by the current owner. NOTE: Renouncing ownership will leave the contract without an owner, thereby disabling any functionality that is only available to the owner."
      },
      "transferOwnership(address)": {
        "details": "Transfers ownership of the contract to a new account (`newOwner`). Can only be called by the current owner."
      }
    },
    "version": 1
  },
  "userdoc": {
    "kind": "user",
    "methods": {},
    "version": 1
  }
}