{
  "contractName": "LotteryTemplate",
  "abi": [
    {
      "inputs": [],
      "stateMutability": "nonpayable",
      "type": "constructor"
    },
    {
      "inputs": [
        {
          "internalType": "address",
          "name": "sender",
          "type": "address"
        },
        {
          "internalType": "uint256",
          "name": "tokenId",
          "type": "uint256"
        },
        {
          "internalType": "address",
          "name": "owner",
          "type": "address"
        }
      ],
      "name": "ERC721IncorrectOwner",
      "type": "error"
    },
    {
      "inputs": [
        {
          "internalType": "address",
          "name": "operator",
          "type": "address"
        },
        {
          "internalType": "uint256",
          "name": "tokenId",
          "type": "uint256"
        }
      ],
      "name": "ERC721InsufficientApproval",
      "type": "error"
    },
    {
      "inputs": [
        {
          "internalType": "address",
          "name": "approver",
          "type": "address"
        }
      ],
      "name": "ERC721InvalidApprover",
      "type": "error"
    },
    {
      "inputs": [
        {
          "internalType": "address",
          "name": "operator",
          "type": "address"
        }
      ],
      "name": "ERC721InvalidOperator",
      "type": "error"
    },
    {
      "inputs": [
        {
          "internalType": "address",
          "name": "owner",
          "type": "address"
        }
      ],
      "name": "ERC721InvalidOwner",
      "type": "error"
    },
    {
      "inputs": [
        {
          "internalType": "address",
          "name": "receiver",
          "type": "address"
        }
      ],
      "name": "ERC721InvalidReceiver",
      "type": "error"
    },
    {
      "inputs": [
        {
          "internalType": "address",
          "name": "sender",
          "type": "address"
        }
      ],
      "name": "ERC721InvalidSender",
      "type": "error"
    },
    {
      "inputs": [
        {
          "internalType": "uint256",
          "name": "tokenId",
          "type": "uint256"
        }
      ],
      "name": "ERC721NonexistentToken",
      "type": "error"
    },
    {
      "inputs": [],
      "name": "InvalidInitialization",
      "type": "error"
    },
    {
      "inputs": [],
      "name": "NotInitializing",
      "type": "error"
    },
    {
      "anonymous": false,
      "inputs": [
        {
          "indexed": true,
          "internalType": "address",
          "name": "owner",
          "type": "address"
        },
        {
          "indexed": true,
          "internalType": "address",
          "name": "approved",
          "type": "address"
        },
        {
          "indexed": true,
          "internalType": "uint256",
          "name": "tokenId",
          "type": "uint256"
        }
      ],
      "name": "Approval",
      "type": "event"
    },
    {
      "anonymous": false,
      "inputs": [
        {
          "indexed": true,
          "internalType": "address",
          "name": "owner",
          "type": "address"
        },
        {
          "indexed": true,
          "internalType": "address",
          "name": "operator",
          "type": "address"
        },
        {
          "indexed": false,
          "internalType": "bool",
          "name": "approved",
          "type": "bool"
        }
      ],
      "name": "ApprovalForAll",
      "type": "event"
    },
    {
      "anonymous": false,
      "inputs": [
        {
          "indexed": true,
          "internalType": "address",
          "name": "e_buyer",
          "type": "address"
        },
        {
          "indexed": false,
          "internalType": "uint128",
          "name": "e_numberBoxes",
          "type": "uint128"
        }
      ],
      "name": "BuyBoxes",
      "type": "event"
    },
    {
      "anonymous": false,
      "inputs": [
        {
          "indexed": false,
          "internalType": "uint64",
          "name": "version",
          "type": "uint64"
        }
      ],
      "name": "Initialized",
      "type": "event"
    },
    {
      "anonymous": false,
      "inputs": [
        {
          "indexed": false,
          "internalType": "uint128",
          "name": "e_winningNumber",
          "type": "uint128"
        }
      ],
      "name": "SetWinning",
      "type": "event"
    },
    {
      "anonymous": false,
      "inputs": [
        {
          "indexed": true,
          "internalType": "address",
          "name": "from",
          "type": "address"
        },
        {
          "indexed": true,
          "internalType": "address",
          "name": "to",
          "type": "address"
        },
        {
          "indexed": true,
          "internalType": "uint256",
          "name": "tokenId",
          "type": "uint256"
        }
      ],
      "name": "Transfer",
      "type": "event"
    },
    {
      "anonymous": false,
      "inputs": [
        {
          "indexed": true,
          "internalType": "address",
          "name": "e_to",
          "type": "address"
        },
        {
          "indexed": false,
          "internalType": "uint256",
          "name": "e_amount",
          "type": "uint256"
        }
      ],
      "name": "WithdrawBalance",
      "type": "event"
    },
    {
      "inputs": [
        {
          "internalType": "address",
          "name": "to",
          "type": "address"
        },
        {
          "internalType": "uint256",
          "name": "tokenId",
          "type": "uint256"
        }
      ],
      "name": "approve",
      "outputs": [],
      "stateMutability": "nonpayable",
      "type": "function"
    },
    {
      "inputs": [
        {
          "internalType": "address",
          "name": "owner",
          "type": "address"
        }
      ],
      "name": "balanceOf",
      "outputs": [
        {
          "internalType": "uint256",
          "name": "",
          "type": "uint256"
        }
      ],
      "stateMutability": "view",
      "type": "function"
    },
    {
      "inputs": [
        {
          "internalType": "uint256",
          "name": "tokenId",
          "type": "uint256"
        }
      ],
      "name": "getApproved",
      "outputs": [
        {
          "internalType": "address",
          "name": "",
          "type": "address"
        }
      ],
      "stateMutability": "view",
      "type": "function"
    },
    {
      "inputs": [
        {
          "internalType": "address",
          "name": "owner",
          "type": "address"
        },
        {
          "internalType": "address",
          "name": "operator",
          "type": "address"
        }
      ],
      "name": "isApprovedForAll",
      "outputs": [
        {
          "internalType": "bool",
          "name": "",
          "type": "bool"
        }
      ],
      "stateMutability": "view",
      "type": "function"
    },
    {
      "inputs": [],
      "name": "name",
      "outputs": [
        {
          "internalType": "string",
          "name": "",
          "type": "string"
        }
      ],
      "stateMutability": "view",
      "type": "function"
    },
    {
      "inputs": [
        {
          "internalType": "uint256",
          "name": "tokenId",
          "type": "uint256"
        }
      ],
      "name": "ownerOf",
      "outputs": [
        {
          "internalType": "address",
          "name": "",
          "type": "address"
        }
      ],
      "stateMutability": "view",
      "type": "function"
    },
    {
      "inputs": [
        {
          "internalType": "address",
          "name": "from",
          "type": "address"
        },
        {
          "internalType": "address",
          "name": "to",
          "type": "address"
        },
        {
          "internalType": "uint256",
          "name": "tokenId",
          "type": "uint256"
        }
      ],
      "name": "safeTransferFrom",
      "outputs": [],
      "stateMutability": "nonpayable",
      "type": "function"
    },
    {
      "inputs": [
        {
          "internalType": "address",
          "name": "from",
          "type": "address"
        },
        {
          "internalType": "address",
          "name": "to",
          "type": "address"
        },
        {
          "internalType": "uint256",
          "name": "tokenId",
          "type": "uint256"
        },
        {
          "internalType": "bytes",
          "name": "data",
          "type": "bytes"
        }
      ],
      "name": "safeTransferFrom",
      "outputs": [],
      "stateMutability": "nonpayable",
      "type": "function"
    },
    {
      "inputs": [
        {
          "internalType": "address",
          "name": "operator",
          "type": "address"
        },
        {
          "internalType": "bool",
          "name": "approved",
          "type": "bool"
        }
      ],
      "name": "setApprovalForAll",
      "outputs": [],
      "stateMutability": "nonpayable",
      "type": "function"
    },
    {
      "inputs": [],
      "name": "symbol",
      "outputs": [
        {
          "internalType": "string",
          "name": "",
          "type": "string"
        }
      ],
      "stateMutability": "view",
      "type": "function"
    },
    {
      "inputs": [
        {
          "internalType": "uint256",
          "name": "tokenId",
          "type": "uint256"
        }
      ],
      "name": "tokenURI",
      "outputs": [
        {
          "internalType": "string",
          "name": "",
          "type": "string"
        }
      ],
      "stateMutability": "view",
      "type": "function"
    },
    {
      "inputs": [
        {
          "internalType": "address",
          "name": "from",
          "type": "address"
        },
        {
          "internalType": "address",
          "name": "to",
          "type": "address"
        },
        {
          "internalType": "uint256",
          "name": "tokenId",
          "type": "uint256"
        }
      ],
      "name": "transferFrom",
      "outputs": [],
      "stateMutability": "nonpayable",
      "type": "function"
    },
    {
      "inputs": [
        {
          "internalType": "string",
          "name": "p_name",
          "type": "string"
        },
        {
          "internalType": "string",
          "name": "p_symbol",
          "type": "string"
        },
        {
          "internalType": "uint128",
          "name": "p_totalBoxes",
          "type": "uint128"
        },
        {
          "internalType": "address",
          "name": "p_stableCoin",
          "type": "address"
        },
        {
          "internalType": "uint128",
          "name": "p_boxPrice",
          "type": "uint128"
        },
        {
          "internalType": "uint256",
          "name": "p_percentageWinner",
          "type": "uint256"
        },
        {
          "internalType": "uint256",
          "name": "p_percentageSponsorWinner",
          "type": "uint256"
        },
        {
          "components": [
            {
              "internalType": "uint128",
              "name": "boxes1",
              "type": "uint128"
            },
            {
              "internalType": "uint128",
              "name": "percentage1",
              "type": "uint128"
            },
            {
              "internalType": "uint128",
              "name": "boxes2",
              "type": "uint128"
            },
            {
              "internalType": "uint128",
              "name": "percentage2",
              "type": "uint128"
            },
            {
              "internalType": "uint128",
              "name": "boxes3",
              "type": "uint128"
            },
            {
              "internalType": "uint128",
              "name": "percentage3",
              "type": "uint128"
            }
          ],
          "internalType": "struct ILottery.IncentiveMaxBuyer",
          "name": "p_incentiveMaxBuyer",
          "type": "tuple"
        },
        {
          "internalType": "uint256",
          "name": "p_incentivePercentageMaxSponsors",
          "type": "uint256"
        }
      ],
      "name": "initialize",
      "outputs": [],
      "stateMutability": "nonpayable",
      "type": "function"
    },
    {
      "inputs": [],
      "name": "infoLottery",
      "outputs": [
        {
          "components": [
            {
              "internalType": "address",
              "name": "stableCoin",
              "type": "address"
            },
            {
              "internalType": "uint128",
              "name": "boxPrice",
              "type": "uint128"
            },
            {
              "internalType": "uint128",
              "name": "boxesSold",
              "type": "uint128"
            },
            {
              "internalType": "uint128",
              "name": "totalBoxes",
              "type": "uint128"
            },
            {
              "internalType": "uint128",
              "name": "winningNumber",
              "type": "uint128"
            }
          ],
          "internalType": "struct ILottery.LoterryInfo",
          "name": "",
          "type": "tuple"
        }
      ],
      "stateMutability": "view",
      "type": "function"
    },
    {
      "inputs": [],
      "name": "infoIncentiveMaxBuyer",
      "outputs": [
        {
          "components": [
            {
              "internalType": "uint128",
              "name": "boxes1",
              "type": "uint128"
            },
            {
              "internalType": "uint128",
              "name": "percentage1",
              "type": "uint128"
            },
            {
              "internalType": "uint128",
              "name": "boxes2",
              "type": "uint128"
            },
            {
              "internalType": "uint128",
              "name": "percentage2",
              "type": "uint128"
            },
            {
              "internalType": "uint128",
              "name": "boxes3",
              "type": "uint128"
            },
            {
              "internalType": "uint128",
              "name": "percentage3",
              "type": "uint128"
            }
          ],
          "internalType": "struct ILottery.IncentiveMaxBuyer",
          "name": "",
          "type": "tuple"
        }
      ],
      "stateMutability": "view",
      "type": "function"
    },
    {
      "inputs": [
        {
          "internalType": "uint128",
          "name": "p_ticket",
          "type": "uint128"
        }
      ],
      "name": "ticketToBox",
      "outputs": [
        {
          "internalType": "uint256",
          "name": "",
          "type": "uint256"
        }
      ],
      "stateMutability": "view",
      "type": "function"
    },
    {
      "inputs": [
        {
          "internalType": "uint256",
          "name": "p_boxId",
          "type": "uint256"
        }
      ],
      "name": "ticketsBox",
      "outputs": [
        {
          "internalType": "uint128",
          "name": "",
          "type": "uint128"
        },
        {
          "internalType": "uint128",
          "name": "",
          "type": "uint128"
        }
      ],
      "stateMutability": "view",
      "type": "function"
    },
    {
      "inputs": [],
      "name": "ticketAccountWinner",
      "outputs": [
        {
          "internalType": "uint128",
          "name": "",
          "type": "uint128"
        },
        {
          "internalType": "address",
          "name": "",
          "type": "address"
        }
      ],
      "stateMutability": "view",
      "type": "function"
    },
    {
      "inputs": [],
      "name": "topBuyer",
      "outputs": [
        {
          "internalType": "address",
          "name": "",
          "type": "address"
        }
      ],
      "stateMutability": "view",
      "type": "function"
    },
    {
      "inputs": [],
      "name": "completed",
      "outputs": [
        {
          "internalType": "bool",
          "name": "",
          "type": "bool"
        }
      ],
      "stateMutability": "view",
      "type": "function"
    },
    {
      "inputs": [
        {
          "internalType": "bytes4",
          "name": "interfaceId",
          "type": "bytes4"
        }
      ],
      "name": "supportsInterface",
      "outputs": [
        {
          "internalType": "bool",
          "name": "",
          "type": "bool"
        }
      ],
      "stateMutability": "view",
      "type": "function"
    },
    {
      "inputs": [
        {
          "internalType": "uint128",
          "name": "p_numberBoxes",
          "type": "uint128"
        },
        {
          "internalType": "address",
          "name": "p_buyer",
          "type": "address"
        }
      ],
      "name": "buyBoxes",
      "outputs": [],
      "stateMutability": "nonpayable",
      "type": "function"
    },
    {
      "inputs": [
        {
          "internalType": "uint128",
          "name": "p_winningNumber",
          "type": "uint128"
        }
      ],
      "name": "setWinning",
      "outputs": [],
      "stateMutability": "nonpayable",
      "type": "function"
    },
    {
      "inputs": [
        {
          "internalType": "address",
          "name": "p_address",
          "type": "address"
        }
      ],
      "name": "withdrawBalance",
      "outputs": [],
      "stateMutability": "nonpayable",
      "type": "function"
    }
  ],
  "bytecode": "0x608060405234801562000010575f80fd5b50620000216200002760201b60201c565b620001ae565b5f620000386200012b60201b60201c565b9050805f0160089054906101000a900460ff161562000083576040517ff92ee8a900000000000000000000000000000000000000000000000000000000815260040160405180910390fd5b67ffffffffffffffff8016815f015f9054906101000a900467ffffffffffffffff1667ffffffffffffffff1614620001285767ffffffffffffffff815f015f6101000a81548167ffffffffffffffff021916908367ffffffffffffffff1602179055507fc7f505b2f371ae2175ee4913f4499e1f2633a7b5936321eed1cdaeb6115181d267ffffffffffffffff6040516200011f919062000193565b60405180910390a15b50565b5f806200013d6200014660201b60201c565b90508091505090565b5f7ff0c57e16840df040f15088dc2f81fe391c3923bec73e23a9662efc9c229c6a005f1b905090565b5f67ffffffffffffffff82169050919050565b6200018d816200016f565b82525050565b5f602082019050620001a85f83018462000182565b92915050565b61512580620001bc5f395ff3fe608060405234801561000f575f80fd5b5060043610610156575f3560e01c80636352211e116100c1578063a22cb4651161007a578063a22cb465146103c4578063aeb9cb34146103e0578063b88d4fde14610410578063be2e69051461042c578063c87b56dd1461044a578063e985e9c51461047a57610156565b80636352211e146102db578063703e2c511461030b57806370a082311461033c578063756af45f1461036c57806395d89b41146103885780639d9a7fe9146103a657610156565b806323b872dd1161011357806323b872dd1461022e578063247915821461024a578063417b50b31461026657806342842e0e146102825780634326e8931461029e57806348764c04146102bc57610156565b806301ffc9a71461015a57806306fdde031461018a578063081812fc146101a8578063095ea7b3146101d85780632119aa06146101f4578063223e013114610212575b5f80fd5b610174600480360381019061016f9190613a02565b6104aa565b6040516101819190613a47565b60405180910390f35b6101926104bb565b60405161019f9190613aea565b60405180910390f35b6101c260048036038101906101bd9190613b3d565b610558565b6040516101cf9190613ba7565b60405180910390f35b6101f260048036038101906101ed9190613bea565b610573565b005b6101fc610589565b6040516102099190613ccb565b60405180910390f35b61022c60048036038101906102279190613d0e565b61075a565b005b61024860048036038101906102439190613d39565b610eda565b005b610264600480360381019061025f9190613d89565b610fd9565b005b610280600480360381019061027b9190613f94565b611af2565b005b61029c60048036038101906102979190613d39565b611f26565b005b6102a6611f45565b6040516102b39190613ba7565b60405180910390f35b6102c4611f6d565b6040516102d292919061409f565b60405180910390f35b6102f560048036038101906102f09190613b3d565b612046565b6040516103029190613ba7565b60405180910390f35b61032560048036038101906103209190613b3d565b612057565b6040516103339291906140c6565b60405180910390f35b610356600480360381019061035191906140ed565b6120c1565b6040516103639190614127565b60405180910390f35b610386600480360381019061038191906140ed565b612185565b005b610390612335565b60405161039d9190613aea565b60405180910390f35b6103ae6123d3565b6040516103bb9190613a47565b60405180910390f35b6103de60048036038101906103d9919061416a565b6123e8565b005b6103fa60048036038101906103f59190613d0e565b6123fe565b6040516104079190614127565b60405180910390f35b61042a60048036038101906104259190614246565b61243c565b005b610434612461565b604051610441919061433b565b60405180910390f35b610464600480360381019061045f9190613b3d565b6125f5565b6040516104719190613aea565b60405180910390f35b610494600480360381019061048f9190614354565b61265b565b6040516104a19190613a47565b60405180910390f35b5f6104b4826126f7565b9050919050565b60605f6104c66127d8565b9050805f0180546104d6906143bf565b80601f0160208091040260200160405190810160405280929190818152602001828054610502906143bf565b801561054d5780601f106105245761010080835404028352916020019161054d565b820191905f5260205f20905b81548152906001019060200180831161053057829003601f168201915b505050505091505090565b5f610562826127ff565b5061056c82612885565b9050919050565b61058582826105806128cc565b6128d3565b5050565b610591613878565b600b6040518060c00160405290815f82015f9054906101000a90046fffffffffffffffffffffffffffffffff166fffffffffffffffffffffffffffffffff166fffffffffffffffffffffffffffffffff1681526020015f820160109054906101000a90046fffffffffffffffffffffffffffffffff166fffffffffffffffffffffffffffffffff166fffffffffffffffffffffffffffffffff168152602001600182015f9054906101000a90046fffffffffffffffffffffffffffffffff166fffffffffffffffffffffffffffffffff166fffffffffffffffffffffffffffffffff1681526020016001820160109054906101000a90046fffffffffffffffffffffffffffffffff166fffffffffffffffffffffffffffffffff166fffffffffffffffffffffffffffffffff168152602001600282015f9054906101000a90046fffffffffffffffffffffffffffffffff166fffffffffffffffffffffffffffffffff166fffffffffffffffffffffffffffffffff1681526020016002820160109054906101000a90046fffffffffffffffffffffffffffffffff166fffffffffffffffffffffffffffffffff166fffffffffffffffffffffffffffffffff1681525050905090565b5f8054906101000a900473ffffffffffffffffffffffffffffffffffffffff1673ffffffffffffffffffffffffffffffffffffffff163373ffffffffffffffffffffffffffffffffffffffff161480156107c0575060115f9054906101000a900460ff16155b6107c8575f80fd5b5f816fffffffffffffffffffffffffffffffff16101580156108395750600260016002015f9054906101000a90046fffffffffffffffffffffffffffffffff16610812919061441c565b6fffffffffffffffffffffffffffffffff16816fffffffffffffffffffffffffffffffff16105b610841575f80fd5b80600160020160106101000a8154816fffffffffffffffffffffffffffffffff02191690836fffffffffffffffffffffffffffffffff160217905550600160115f6101000a81548160ff0219169083151502179055505f60015f015f9054906101000a900473ffffffffffffffffffffffffffffffffffffffff1673ffffffffffffffffffffffffffffffffffffffff166370a08231306040518263ffffffff1660e01b81526004016108f49190613ba7565b602060405180830381865afa15801561090f573d5f803e3d5ffd5b505050506040513d601f19601f82011682018060405250810190610933919061446c565b90505f805f9054906101000a900473ffffffffffffffffffffffffffffffffffffffff1673ffffffffffffffffffffffffffffffffffffffff166340dd63506040518163ffffffff1660e01b8152600401602060405180830381865afa15801561099f573d5f803e3d5ffd5b505050506040513d601f19601f820116820180604052508101906109c391906144ab565b90505f60045f856fffffffffffffffffffffffffffffffff166fffffffffffffffffffffffffffffffff1681526020019081526020015f205414610b3d575f610a4060045f866fffffffffffffffffffffffffffffffff166fffffffffffffffffffffffffffffffff1681526020019081526020015f2054612046565b9050610a4f81600854856128e5565b5f8273ffffffffffffffffffffffffffffffffffffffff1663e623c82e30846040518363ffffffff1660e01b8152600401610a8b9291906144d6565b6040805180830381865afa158015610aa5573d5f803e3d5ffd5b505050506040513d601f19601f82011682018060405250810190610ac991906145af565b90505f73ffffffffffffffffffffffffffffffffffffffff16815f60028110610af557610af46145da565b5b602002015173ffffffffffffffffffffffffffffffffffffffff1614610b3a57610b39815f60028110610b2b57610b2a6145da565b5b6020020151600954866128e5565b5b50505b8073ffffffffffffffffffffffffffffffffffffffff166320d3245730600e5f9054906101000a900473ffffffffffffffffffffffffffffffffffffffff166040518363ffffffff1660e01b8152600401610b999291906144d6565b602060405180830381865afa158015610bb4573d5f803e3d5ffd5b505050506040513d601f19601f82011682018060405250810190610bd8919061461b565b15610dcc575f60075f600e5f9054906101000a900473ffffffffffffffffffffffffffffffffffffffff1673ffffffffffffffffffffffffffffffffffffffff1673ffffffffffffffffffffffffffffffffffffffff1681526020019081526020015f205490505f600b5f015f9054906101000a90046fffffffffffffffffffffffffffffffff166fffffffffffffffffffffffffffffffff168211610cb257600b5f0160109054906101000a90046fffffffffffffffffffffffffffffffff166fffffffffffffffffffffffffffffffff169050610d9d565b600b6001015f9054906101000a90046fffffffffffffffffffffffffffffffff166fffffffffffffffffffffffffffffffff168210158015610d255750600b6002015f9054906101000a90046fffffffffffffffffffffffffffffffff166fffffffffffffffffffffffffffffffff1682105b15610d6557600b60010160109054906101000a90046fffffffffffffffffffffffffffffffff166fffffffffffffffffffffffffffffffff169050610d9c565b600b60020160109054906101000a90046fffffffffffffffffffffffffffffffff166fffffffffffffffffffffffffffffffff1690505b5b610dc9600e5f9054906101000a900473ffffffffffffffffffffffffffffffffffffffff1682866128e5565b50505b5f8173ffffffffffffffffffffffffffffffffffffffff166344128e7e306040518263ffffffff1660e01b8152600401610e069190613ba7565b602060405180830381865afa158015610e21573d5f803e3d5ffd5b505050506040513d601f19601f82011682018060405250810190610e4591906144ab565b90508173ffffffffffffffffffffffffffffffffffffffff166320d3245730836040518363ffffffff1660e01b8152600401610e829291906144d6565b602060405180830381865afa158015610e9d573d5f803e3d5ffd5b505050506040513d601f19601f82011682018060405250810190610ec1919061461b565b15610ed457610ed381600a54856128e5565b5b50505050565b5f73ffffffffffffffffffffffffffffffffffffffff168273ffffffffffffffffffffffffffffffffffffffff1603610f4a575f6040517f64a0ae92000000000000000000000000000000000000000000000000000000008152600401610f419190613ba7565b60405180910390fd5b5f610f5d8383610f586128cc565b6129df565b90508373ffffffffffffffffffffffffffffffffffffffff168173ffffffffffffffffffffffffffffffffffffffff1614610fd3578382826040517f64283d7b000000000000000000000000000000000000000000000000000000008152600401610fca93929190614646565b60405180910390fd5b50505050565b5f8054906101000a900473ffffffffffffffffffffffffffffffffffffffff1673ffffffffffffffffffffffffffffffffffffffff163373ffffffffffffffffffffffffffffffffffffffff1614806110e857505f8054906101000a900473ffffffffffffffffffffffffffffffffffffffff1673ffffffffffffffffffffffffffffffffffffffff166340dd63506040518163ffffffff1660e01b8152600401602060405180830381865afa158015611095573d5f803e3d5ffd5b505050506040513d601f19601f820116820180604052508101906110b991906144ab565b73ffffffffffffffffffffffffffffffffffffffff163373ffffffffffffffffffffffffffffffffffffffff16145b611127576040517f08c379a000000000000000000000000000000000000000000000000000000000815260040161111e906146eb565b60405180910390fd5b5f826fffffffffffffffffffffffffffffffff1611801561117457505f73ffffffffffffffffffffffffffffffffffffffff168173ffffffffffffffffffffffffffffffffffffffff1614155b6111b3576040517f08c379a00000000000000000000000000000000000000000000000000000000081526004016111aa90614753565b60405180910390fd5b60016002015f9054906101000a90046fffffffffffffffffffffffffffffffff166fffffffffffffffffffffffffffffffff16826001800160109054906101000a90046fffffffffffffffffffffffffffffffff166112129190614771565b6fffffffffffffffffffffffffffffffff161115611265576040517f08c379a000000000000000000000000000000000000000000000000000000000815260040161125c906147fe565b60405180910390fd5b5f82600180015f9054906101000a90046fffffffffffffffffffffffffffffffff16611291919061441c565b6fffffffffffffffffffffffffffffffff1690505f805f9054906101000a900473ffffffffffffffffffffffffffffffffffffffff1673ffffffffffffffffffffffffffffffffffffffff166340dd63506040518163ffffffff1660e01b8152600401602060405180830381865afa15801561130f573d5f803e3d5ffd5b505050506040513d601f19601f8201168201806040525081019061133391906144ab565b90505f8173ffffffffffffffffffffffffffffffffffffffff1663e063272630866040518363ffffffff1660e01b81526004016113719291906144d6565b606060405180830381865afa15801561138c573d5f803e3d5ffd5b505050506040513d601f19601f820116820180604052508101906113b091906148ca565b90505f73ffffffffffffffffffffffffffffffffffffffff16815f600381106113dc576113db6145da565b5b602002015173ffffffffffffffffffffffffffffffffffffffff1603611437576040517f08c379a000000000000000000000000000000000000000000000000000000000815260040161142e9061493f565b60405180910390fd5b8173ffffffffffffffffffffffffffffffffffffffff166382a62137856040518263ffffffff1660e01b81526004016114709190613ba7565b5f604051808303815f87803b158015611487575f80fd5b505af1158015611499573d5f803e3d5ffd5b505050505f600190505f90505b6003816fffffffffffffffffffffffffffffffff16101561165f575f73ffffffffffffffffffffffffffffffffffffffff1682826fffffffffffffffffffffffffffffffff16600381106114fd576114fc6145da565b5b602002015173ffffffffffffffffffffffffffffffffffffffff161461164c5760048461152a919061498a565b8461153591906149ba565b935060015f015f9054906101000a900473ffffffffffffffffffffffffffffffffffffffff1673ffffffffffffffffffffffffffffffffffffffff166323b872dd8684846fffffffffffffffffffffffffffffffff166003811061159c5761159b6145da565b5b60200201516004886115ae919061498a565b6040518463ffffffff1660e01b81526004016115cc939291906149ed565b6020604051808303815f875af11580156115e8573d5f803e3d5ffd5b505050506040513d601f19601f8201168201806040525081019061160c919061461b565b61164b576040517f08c379a000000000000000000000000000000000000000000000000000000000815260040161164290614a6c565b60405180910390fd5b5b808061165790614a8a565b9150506114a6565b60015f015f9054906101000a900473ffffffffffffffffffffffffffffffffffffffff1673ffffffffffffffffffffffffffffffffffffffff166323b872dd8630876040518463ffffffff1660e01b81526004016116bf939291906149ed565b6020604051808303815f875af11580156116db573d5f803e3d5ffd5b505050506040513d601f19601f820116820180604052508101906116ff919061461b565b61173e576040517f08c379a000000000000000000000000000000000000000000000000000000000815260040161173590614a6c565b60405180910390fd5b5f600190505b866fffffffffffffffffffffffffffffffff16816fffffffffffffffffffffffffffffffff16116118ed575f816001800160109054906101000a90046fffffffffffffffffffffffffffffffff1661179c9190614771565b6fffffffffffffffffffffffffffffffff1690505f6117ba82612a0c565b90508160045f836fffffffffffffffffffffffffffffffff166fffffffffffffffffffffffffffffffff1681526020019081526020015f20819055508060055f8481526020019081526020015f205f015f6101000a8154816fffffffffffffffffffffffffffffffff02191690836fffffffffffffffffffffffffffffffff16021790555061184882612a0c565b90508160045f836fffffffffffffffffffffffffffffffff166fffffffffffffffffffffffffffffffff1681526020019081526020015f20819055508060055f8481526020019081526020015f205f0160106101000a8154816fffffffffffffffffffffffffffffffff02191690836fffffffffffffffffffffffffffffffff1602179055506118d88883612ae9565b82806118e390614a8a565b9350505050611744565b866001800160108282829054906101000a90046fffffffffffffffffffffffffffffffff1661191c9190614771565b92506101000a8154816fffffffffffffffffffffffffffffffff02191690836fffffffffffffffffffffffffffffffff160217905550866fffffffffffffffffffffffffffffffff1660075f8873ffffffffffffffffffffffffffffffffffffffff1673ffffffffffffffffffffffffffffffffffffffff1681526020019081526020015f205f8282546119b09190614ac1565b9250508190555060075f600e5f9054906101000a900473ffffffffffffffffffffffffffffffffffffffff1673ffffffffffffffffffffffffffffffffffffffff1673ffffffffffffffffffffffffffffffffffffffff1681526020019081526020015f205460075f8873ffffffffffffffffffffffffffffffffffffffff1673ffffffffffffffffffffffffffffffffffffffff1681526020019081526020015f20541115611a9b5785600e5f6101000a81548173ffffffffffffffffffffffffffffffffffffffff021916908373ffffffffffffffffffffffffffffffffffffffff1602179055505b8573ffffffffffffffffffffffffffffffffffffffff167f90093806e98f3c267c2b4261ca44954c289ef8de01e29d5eb3f9ff4623a57b7088604051611ae19190614af4565b60405180910390a250505050505050565b5f611afb612b06565b90505f815f0160089054906101000a900460ff161590505f825f015f9054906101000a900467ffffffffffffffff1690505f808267ffffffffffffffff16148015611b435750825b90505f60018367ffffffffffffffff16148015611b7657505f3073ffffffffffffffffffffffffffffffffffffffff163b145b905081158015611b84575080155b15611bbb576040517ff92ee8a900000000000000000000000000000000000000000000000000000000815260040160405180910390fd5b6001855f015f6101000a81548167ffffffffffffffff021916908367ffffffffffffffff1602179055508315611c08576001855f0160086101000a81548160ff0219169083151502179055505b611c128e8e612b19565b335f806101000a81548173ffffffffffffffffffffffffffffffffffffffff021916908373ffffffffffffffffffffffffffffffffffffffff1602179055508a60015f015f6101000a81548173ffffffffffffffffffffffffffffffffffffffff021916908373ffffffffffffffffffffffffffffffffffffffff16021790555089600180015f6101000a8154816fffffffffffffffffffffffffffffffff02191690836fffffffffffffffffffffffffffffffff1602179055508b60016002015f6101000a8154816fffffffffffffffffffffffffffffffff02191690836fffffffffffffffffffffffffffffffff160217905550886008819055508760098190555086600b5f820151815f015f6101000a8154816fffffffffffffffffffffffffffffffff02191690836fffffffffffffffffffffffffffffffff1602179055506020820151815f0160106101000a8154816fffffffffffffffffffffffffffffffff02191690836fffffffffffffffffffffffffffffffff1602179055506040820151816001015f6101000a8154816fffffffffffffffffffffffffffffffff02191690836fffffffffffffffffffffffffffffffff16021790555060608201518160010160106101000a8154816fffffffffffffffffffffffffffffffff02191690836fffffffffffffffffffffffffffffffff1602179055506080820151816002015f6101000a8154816fffffffffffffffffffffffffffffffff02191690836fffffffffffffffffffffffffffffffff16021790555060a08201518160020160106101000a8154816fffffffffffffffffffffffffffffffff02191690836fffffffffffffffffffffffffffffffff16021790555090505085600a8190555060028c611ea4919061441c565b6fffffffffffffffffffffffffffffffff166010819055508315611f16575f855f0160086101000a81548160ff0219169083151502179055507fc7f505b2f371ae2175ee4913f4499e1f2633a7b5936321eed1cdaeb6115181d26001604051611f0d9190614b62565b60405180910390a15b5050505050505050505050505050565b611f4083838360405180602001604052805f81525061243c565b505050565b5f600e5f9054906101000a900473ffffffffffffffffffffffffffffffffffffffff16905090565b5f8060115f9054906101000a900460ff16611fbd576040517f08c379a0000000000000000000000000000000000000000000000000000000008152600401611fb490614bc5565b60405180910390fd5b600160020160109054906101000a90046fffffffffffffffffffffffffffffffff1661203e60045f600160020160109054906101000a90046fffffffffffffffffffffffffffffffff166fffffffffffffffffffffffffffffffff166fffffffffffffffffffffffffffffffff1681526020019081526020015f2054612046565b915091509091565b5f612050826127ff565b9050919050565b5f8060055f8481526020019081526020015f205f015f9054906101000a90046fffffffffffffffffffffffffffffffff1660055f8581526020019081526020015f205f0160109054906101000a90046fffffffffffffffffffffffffffffffff1691509150915091565b5f806120cb6127d8565b90505f73ffffffffffffffffffffffffffffffffffffffff168373ffffffffffffffffffffffffffffffffffffffff160361213d575f6040517f89c62b640000000000000000000000000000000000000000000000000000000081526004016121349190613ba7565b60405180910390fd5b806003015f8473ffffffffffffffffffffffffffffffffffffffff1673ffffffffffffffffffffffffffffffffffffffff1681526020019081526020015f2054915050919050565b5f8054906101000a900473ffffffffffffffffffffffffffffffffffffffff1673ffffffffffffffffffffffffffffffffffffffff163373ffffffffffffffffffffffffffffffffffffffff161480156121ea575060115f9054906101000a900460ff165b6121f2575f80fd5b60015f015f9054906101000a900473ffffffffffffffffffffffffffffffffffffffff1673ffffffffffffffffffffffffffffffffffffffff1663a9059cbb8260015f015f9054906101000a900473ffffffffffffffffffffffffffffffffffffffff1673ffffffffffffffffffffffffffffffffffffffff166370a08231306040518263ffffffff1660e01b815260040161228e9190613ba7565b602060405180830381865afa1580156122a9573d5f803e3d5ffd5b505050506040513d601f19601f820116820180604052508101906122cd919061446c565b6040518363ffffffff1660e01b81526004016122ea929190614be3565b6020604051808303815f875af1158015612306573d5f803e3d5ffd5b505050506040513d601f19601f8201168201806040525081019061232a919061461b565b612332575f80fd5b50565b60605f6123406127d8565b9050806001018054612351906143bf565b80601f016020809104026020016040519081016040528092919081815260200182805461237d906143bf565b80156123c85780601f1061239f576101008083540402835291602001916123c8565b820191905f5260205f20905b8154815290600101906020018083116123ab57829003601f168201915b505050505091505090565b5f60115f9054906101000a900460ff16905090565b6123fa6123f36128cc565b8383612b2f565b5050565b5f60045f836fffffffffffffffffffffffffffffffff166fffffffffffffffffffffffffffffffff1681526020019081526020015f20549050919050565b612447848484610eda565b61245b6124526128cc565b85858585612ca6565b50505050565b612469613914565b60016040518060a00160405290815f82015f9054906101000a900473ffffffffffffffffffffffffffffffffffffffff1673ffffffffffffffffffffffffffffffffffffffff1673ffffffffffffffffffffffffffffffffffffffff168152602001600182015f9054906101000a90046fffffffffffffffffffffffffffffffff166fffffffffffffffffffffffffffffffff166fffffffffffffffffffffffffffffffff1681526020016001820160109054906101000a90046fffffffffffffffffffffffffffffffff166fffffffffffffffffffffffffffffffff166fffffffffffffffffffffffffffffffff168152602001600282015f9054906101000a90046fffffffffffffffffffffffffffffffff166fffffffffffffffffffffffffffffffff166fffffffffffffffffffffffffffffffff1681526020016002820160109054906101000a90046fffffffffffffffffffffffffffffffff166fffffffffffffffffffffffffffffffff166fffffffffffffffffffffffffffffffff1681525050905090565b6060612600826127ff565b505f61260a612e52565b90505f8151116126285760405180602001604052805f815250612653565b8061263284612e68565b604051602001612643929190614c44565b6040516020818303038152906040525b915050919050565b5f806126656127d8565b9050806005015f8573ffffffffffffffffffffffffffffffffffffffff1673ffffffffffffffffffffffffffffffffffffffff1681526020019081526020015f205f8473ffffffffffffffffffffffffffffffffffffffff1673ffffffffffffffffffffffffffffffffffffffff1681526020019081526020015f205f9054906101000a900460ff1691505092915050565b5f7f80ac58cd000000000000000000000000000000000000000000000000000000007bffffffffffffffffffffffffffffffffffffffffffffffffffffffff1916827bffffffffffffffffffffffffffffffffffffffffffffffffffffffff191614806127c157507f5b5e139f000000000000000000000000000000000000000000000000000000007bffffffffffffffffffffffffffffffffffffffffffffffffffffffff1916827bffffffffffffffffffffffffffffffffffffffffffffffffffffffff1916145b806127d157506127d082612f32565b5b9050919050565b5f7f80bb2b638cc20bc4d0a60d66940f3ab4a00c1d7b313497ca82fb0b4ab0079300905090565b5f8061280a83612f9b565b90505f73ffffffffffffffffffffffffffffffffffffffff168173ffffffffffffffffffffffffffffffffffffffff160361287c57826040517f7e2732890000000000000000000000000000000000000000000000000000000081526004016128739190614127565b60405180910390fd5b80915050919050565b5f8061288f6127d8565b9050806004015f8481526020019081526020015f205f9054906101000a900473ffffffffffffffffffffffffffffffffffffffff16915050919050565b5f33905090565b6128e08383836001612fe2565b505050565b60015f015f9054906101000a900473ffffffffffffffffffffffffffffffffffffffff1673ffffffffffffffffffffffffffffffffffffffff1663a9059cbb8461271085856129349190614c67565b61293e919061498a565b6040518363ffffffff1660e01b815260040161295b929190614be3565b6020604051808303815f875af1158015612977573d5f803e3d5ffd5b505050506040513d601f19601f8201168201806040525081019061299b919061461b565b6129da576040517f08c379a00000000000000000000000000000000000000000000000000000000081526004016129d190614a6c565b60405180910390fd5b505050565b5f60115f9054906101000a900460ff16156129f8575f80fd5b612a038484846131af565b90509392505050565b5f80601054423360105486604051602001612a2a9493929190614d0d565b604051602081830303815290604052805190602001205f1c612a4c9190614d5a565b90505f600f5f8381526020019081526020015f205490505f808214612a715781612a73565b825b90505f6001601054612a8591906149ba565b90505f600f5f8381526020019081526020015f205490505f808214612aaa5781612aac565b825b905080600f5f8881526020019081526020015f208190555060105f815480929190612ad690614d8a565b9190505550839650505050505050919050565b612b02828260405180602001604052805f8152506133cc565b5050565b5f80612b106133ef565b90508091505090565b612b21613418565b612b2b8282613458565b5050565b5f612b386127d8565b90505f73ffffffffffffffffffffffffffffffffffffffff168373ffffffffffffffffffffffffffffffffffffffff1603612baa57826040517f5b08ba18000000000000000000000000000000000000000000000000000000008152600401612ba19190613ba7565b60405180910390fd5b81816005015f8673ffffffffffffffffffffffffffffffffffffffff1673ffffffffffffffffffffffffffffffffffffffff1681526020019081526020015f205f8573ffffffffffffffffffffffffffffffffffffffff1673ffffffffffffffffffffffffffffffffffffffff1681526020019081526020015f205f6101000a81548160ff0219169083151502179055508273ffffffffffffffffffffffffffffffffffffffff168473ffffffffffffffffffffffffffffffffffffffff167f17307eab39ab6107e8899845ad3d59bd9653f200f220920489ca2b5937696c3184604051612c989190613a47565b60405180910390a350505050565b5f8373ffffffffffffffffffffffffffffffffffffffff163b1115612e4b578273ffffffffffffffffffffffffffffffffffffffff1663150b7a02868685856040518563ffffffff1660e01b8152600401612d049493929190614e03565b6020604051808303815f875af1925050508015612d3f57506040513d601f19601f82011682018060405250810190612d3c9190614e61565b60015b612dc0573d805f8114612d6d576040519150601f19603f3d011682016040523d82523d5f602084013e612d72565b606091505b505f815103612db857836040517f64a0ae92000000000000000000000000000000000000000000000000000000008152600401612daf9190613ba7565b60405180910390fd5b805160208201fd5b63150b7a0260e01b7bffffffffffffffffffffffffffffffffffffffffffffffffffffffff1916817bffffffffffffffffffffffffffffffffffffffffffffffffffffffff191614612e4957836040517f64a0ae92000000000000000000000000000000000000000000000000000000008152600401612e409190613ba7565b60405180910390fd5b505b5050505050565b606060405180602001604052805f815250905090565b60605f6001612e7684613493565b0190505f8167ffffffffffffffff811115612e9457612e93613dcf565b5b6040519080825280601f01601f191660200182016040528015612ec65781602001600182028036833780820191505090505b5090505f82602083010190505b600115612f27578080600190039150507f3031323334353637383961626364656600000000000000000000000000000000600a86061a8153600a8581612f1c57612f1b61495d565b5b0494505f8503612ed3575b819350505050919050565b5f7f01ffc9a7000000000000000000000000000000000000000000000000000000007bffffffffffffffffffffffffffffffffffffffffffffffffffffffff1916827bffffffffffffffffffffffffffffffffffffffffffffffffffffffff1916149050919050565b5f80612fa56127d8565b9050806002015f8481526020019081526020015f205f9054906101000a900473ffffffffffffffffffffffffffffffffffffffff16915050919050565b5f612feb6127d8565b9050818061302557505f73ffffffffffffffffffffffffffffffffffffffff168373ffffffffffffffffffffffffffffffffffffffff1614155b15613157575f613034856127ff565b90505f73ffffffffffffffffffffffffffffffffffffffff168473ffffffffffffffffffffffffffffffffffffffff161415801561309e57508373ffffffffffffffffffffffffffffffffffffffff168173ffffffffffffffffffffffffffffffffffffffff1614155b80156130b157506130af818561265b565b155b156130f357836040517fa9fbf51f0000000000000000000000000000000000000000000000000000000081526004016130ea9190613ba7565b60405180910390fd5b821561315557848673ffffffffffffffffffffffffffffffffffffffff168273ffffffffffffffffffffffffffffffffffffffff167f8c5be1e5ebec7d5bd14f71427d1e84f3dd0314c0f7b2291e5b200ac8c7c3b92560405160405180910390a45b505b84816004015f8681526020019081526020015f205f6101000a81548173ffffffffffffffffffffffffffffffffffffffff021916908373ffffffffffffffffffffffffffffffffffffffff1602179055505050505050565b5f806131b96127d8565b90505f6131c585612f9b565b90505f73ffffffffffffffffffffffffffffffffffffffff168473ffffffffffffffffffffffffffffffffffffffff1614613206576132058185876135e4565b5b5f73ffffffffffffffffffffffffffffffffffffffff168173ffffffffffffffffffffffffffffffffffffffff1614613293576132455f865f80612fe2565b6001826003015f8373ffffffffffffffffffffffffffffffffffffffff1673ffffffffffffffffffffffffffffffffffffffff1681526020019081526020015f205f82825403925050819055505b5f73ffffffffffffffffffffffffffffffffffffffff168673ffffffffffffffffffffffffffffffffffffffff1614613314576001826003015f8873ffffffffffffffffffffffffffffffffffffffff1673ffffffffffffffffffffffffffffffffffffffff1681526020019081526020015f205f82825401925050819055505b85826002015f8781526020019081526020015f205f6101000a81548173ffffffffffffffffffffffffffffffffffffffff021916908373ffffffffffffffffffffffffffffffffffffffff160217905550848673ffffffffffffffffffffffffffffffffffffffff168273ffffffffffffffffffffffffffffffffffffffff167fddf252ad1be2c89b69c2b068fc378daa952ba7f163c4a11628f55a4df523b3ef60405160405180910390a480925050509392505050565b6133d683836136a7565b6133ea6133e16128cc565b5f858585612ca6565b505050565b5f7ff0c57e16840df040f15088dc2f81fe391c3923bec73e23a9662efc9c229c6a005f1b905090565b61342061379a565b613456576040517fd7e6bcf800000000000000000000000000000000000000000000000000000000815260040160405180910390fd5b565b613460613418565b5f6134696127d8565b905082815f01908161347b9190615020565b508181600101908161348d9190615020565b50505050565b5f805f90507a184f03e93ff9f4daa797ed6e38ed64bf6a1f01000000000000000083106134ef577a184f03e93ff9f4daa797ed6e38ed64bf6a1f01000000000000000083816134e5576134e461495d565b5b0492506040810190505b6d04ee2d6d415b85acef8100000000831061352c576d04ee2d6d415b85acef810000000083816135225761352161495d565b5b0492506020810190505b662386f26fc10000831061355b57662386f26fc1000083816135515761355061495d565b5b0492506010810190505b6305f5e1008310613584576305f5e100838161357a5761357961495d565b5b0492506008810190505b61271083106135a957612710838161359f5761359e61495d565b5b0492506004810190505b606483106135cc57606483816135c2576135c161495d565b5b0492506002810190505b600a83106135db576001810190505b80915050919050565b6135ef8383836137b8565b6136a2575f73ffffffffffffffffffffffffffffffffffffffff168373ffffffffffffffffffffffffffffffffffffffff160361366357806040517f7e27328900000000000000000000000000000000000000000000000000000000815260040161365a9190614127565b60405180910390fd5b81816040517f177e802f000000000000000000000000000000000000000000000000000000008152600401613699929190614be3565b60405180910390fd5b505050565b5f73ffffffffffffffffffffffffffffffffffffffff168273ffffffffffffffffffffffffffffffffffffffff1603613717575f6040517f64a0ae9200000000000000000000000000000000000000000000000000000000815260040161370e9190613ba7565b60405180910390fd5b5f61372383835f6129df565b90505f73ffffffffffffffffffffffffffffffffffffffff168173ffffffffffffffffffffffffffffffffffffffff1614613795575f6040517f73c6ac6e00000000000000000000000000000000000000000000000000000000815260040161378c9190613ba7565b60405180910390fd5b505050565b5f6137a3612b06565b5f0160089054906101000a900460ff16905090565b5f8073ffffffffffffffffffffffffffffffffffffffff168373ffffffffffffffffffffffffffffffffffffffff161415801561386f57508273ffffffffffffffffffffffffffffffffffffffff168473ffffffffffffffffffffffffffffffffffffffff161480613830575061382f848461265b565b5b8061386e57508273ffffffffffffffffffffffffffffffffffffffff1661385683612885565b73ffffffffffffffffffffffffffffffffffffffff16145b5b90509392505050565b6040518060c001604052805f6fffffffffffffffffffffffffffffffff1681526020015f6fffffffffffffffffffffffffffffffff1681526020015f6fffffffffffffffffffffffffffffffff1681526020015f6fffffffffffffffffffffffffffffffff1681526020015f6fffffffffffffffffffffffffffffffff1681526020015f6fffffffffffffffffffffffffffffffff1681525090565b6040518060a001604052805f73ffffffffffffffffffffffffffffffffffffffff1681526020015f6fffffffffffffffffffffffffffffffff1681526020015f6fffffffffffffffffffffffffffffffff1681526020015f6fffffffffffffffffffffffffffffffff1681526020015f6fffffffffffffffffffffffffffffffff1681525090565b5f604051905090565b5f80fd5b5f80fd5b5f7fffffffff0000000000000000000000000000000000000000000000000000000082169050919050565b6139e1816139ad565b81146139eb575f80fd5b50565b5f813590506139fc816139d8565b92915050565b5f60208284031215613a1757613a166139a5565b5b5f613a24848285016139ee565b91505092915050565b5f8115159050919050565b613a4181613a2d565b82525050565b5f602082019050613a5a5f830184613a38565b92915050565b5f81519050919050565b5f82825260208201905092915050565b5f5b83811015613a97578082015181840152602081019050613a7c565b5f8484015250505050565b5f601f19601f8301169050919050565b5f613abc82613a60565b613ac68185613a6a565b9350613ad6818560208601613a7a565b613adf81613aa2565b840191505092915050565b5f6020820190508181035f830152613b028184613ab2565b905092915050565b5f819050919050565b613b1c81613b0a565b8114613b26575f80fd5b50565b5f81359050613b3781613b13565b92915050565b5f60208284031215613b5257613b516139a5565b5b5f613b5f84828501613b29565b91505092915050565b5f73ffffffffffffffffffffffffffffffffffffffff82169050919050565b5f613b9182613b68565b9050919050565b613ba181613b87565b82525050565b5f602082019050613bba5f830184613b98565b92915050565b613bc981613b87565b8114613bd3575f80fd5b50565b5f81359050613be481613bc0565b92915050565b5f8060408385031215613c0057613bff6139a5565b5b5f613c0d85828601613bd6565b9250506020613c1e85828601613b29565b9150509250929050565b5f6fffffffffffffffffffffffffffffffff82169050919050565b613c4c81613c28565b82525050565b60c082015f820151613c665f850182613c43565b506020820151613c796020850182613c43565b506040820151613c8c6040850182613c43565b506060820151613c9f6060850182613c43565b506080820151613cb26080850182613c43565b5060a0820151613cc560a0850182613c43565b50505050565b5f60c082019050613cde5f830184613c52565b92915050565b613ced81613c28565b8114613cf7575f80fd5b50565b5f81359050613d0881613ce4565b92915050565b5f60208284031215613d2357613d226139a5565b5b5f613d3084828501613cfa565b91505092915050565b5f805f60608486031215613d5057613d4f6139a5565b5b5f613d5d86828701613bd6565b9350506020613d6e86828701613bd6565b9250506040613d7f86828701613b29565b9150509250925092565b5f8060408385031215613d9f57613d9e6139a5565b5b5f613dac85828601613cfa565b9250506020613dbd85828601613bd6565b9150509250929050565b5f80fd5b5f80fd5b7f4e487b71000000000000000000000000000000000000000000000000000000005f52604160045260245ffd5b613e0582613aa2565b810181811067ffffffffffffffff82111715613e2457613e23613dcf565b5b80604052505050565b5f613e3661399c565b9050613e428282613dfc565b919050565b5f67ffffffffffffffff821115613e6157613e60613dcf565b5b613e6a82613aa2565b9050602081019050919050565b828183375f83830152505050565b5f613e97613e9284613e47565b613e2d565b905082815260208101848484011115613eb357613eb2613dcb565b5b613ebe848285613e77565b509392505050565b5f82601f830112613eda57613ed9613dc7565b5b8135613eea848260208601613e85565b91505092915050565b5f80fd5b5f60c08284031215613f0c57613f0b613ef3565b5b613f1660c0613e2d565b90505f613f2584828501613cfa565b5f830152506020613f3884828501613cfa565b6020830152506040613f4c84828501613cfa565b6040830152506060613f6084828501613cfa565b6060830152506080613f7484828501613cfa565b60808301525060a0613f8884828501613cfa565b60a08301525092915050565b5f805f805f805f805f6101c08a8c031215613fb257613fb16139a5565b5b5f8a013567ffffffffffffffff811115613fcf57613fce6139a9565b5b613fdb8c828d01613ec6565b99505060208a013567ffffffffffffffff811115613ffc57613ffb6139a9565b5b6140088c828d01613ec6565b98505060406140198c828d01613cfa565b975050606061402a8c828d01613bd6565b965050608061403b8c828d01613cfa565b95505060a061404c8c828d01613b29565b94505060c061405d8c828d01613b29565b93505060e061406e8c828d01613ef7565b9250506101a06140808c828d01613b29565b9150509295985092959850929598565b61409981613c28565b82525050565b5f6040820190506140b25f830185614090565b6140bf6020830184613b98565b9392505050565b5f6040820190506140d95f830185614090565b6140e66020830184614090565b9392505050565b5f60208284031215614102576141016139a5565b5b5f61410f84828501613bd6565b91505092915050565b61412181613b0a565b82525050565b5f60208201905061413a5f830184614118565b92915050565b61414981613a2d565b8114614153575f80fd5b50565b5f8135905061416481614140565b92915050565b5f80604083850312156141805761417f6139a5565b5b5f61418d85828601613bd6565b925050602061419e85828601614156565b9150509250929050565b5f67ffffffffffffffff8211156141c2576141c1613dcf565b5b6141cb82613aa2565b9050602081019050919050565b5f6141ea6141e5846141a8565b613e2d565b90508281526020810184848401111561420657614205613dcb565b5b614211848285613e77565b509392505050565b5f82601f83011261422d5761422c613dc7565b5b813561423d8482602086016141d8565b91505092915050565b5f805f806080858703121561425e5761425d6139a5565b5b5f61426b87828801613bd6565b945050602061427c87828801613bd6565b935050604061428d87828801613b29565b925050606085013567ffffffffffffffff8111156142ae576142ad6139a9565b5b6142ba87828801614219565b91505092959194509250565b6142cf81613b87565b82525050565b60a082015f8201516142e95f8501826142c6565b5060208201516142fc6020850182613c43565b50604082015161430f6040850182613c43565b5060608201516143226060850182613c43565b5060808201516143356080850182613c43565b50505050565b5f60a08201905061434e5f8301846142d5565b92915050565b5f806040838503121561436a576143696139a5565b5b5f61437785828601613bd6565b925050602061438885828601613bd6565b9150509250929050565b7f4e487b71000000000000000000000000000000000000000000000000000000005f52602260045260245ffd5b5f60028204905060018216806143d657607f821691505b6020821081036143e9576143e8614392565b5b50919050565b7f4e487b71000000000000000000000000000000000000000000000000000000005f52601160045260245ffd5b5f61442682613c28565b915061443183613c28565b925082820261443f81613c28565b9150808214614451576144506143ef565b5b5092915050565b5f8151905061446681613b13565b92915050565b5f60208284031215614481576144806139a5565b5b5f61448e84828501614458565b91505092915050565b5f815190506144a581613bc0565b92915050565b5f602082840312156144c0576144bf6139a5565b5b5f6144cd84828501614497565b91505092915050565b5f6040820190506144e95f830185613b98565b6144f66020830184613b98565b9392505050565b5f67ffffffffffffffff82111561451757614516613dcf565b5b602082029050919050565b5f80fd5b5f614538614533846144fd565b613e2d565b9050806020840283018581111561455257614551614522565b5b835b8181101561457b57806145678882614497565b845260208401935050602081019050614554565b5050509392505050565b5f82601f83011261459957614598613dc7565b5b60026145a6848285614526565b91505092915050565b5f604082840312156145c4576145c36139a5565b5b5f6145d184828501614585565b91505092915050565b7f4e487b71000000000000000000000000000000000000000000000000000000005f52603260045260245ffd5b5f8151905061461581614140565b92915050565b5f602082840312156146305761462f6139a5565b5b5f61463d84828501614607565b91505092915050565b5f6060820190506146595f830186613b98565b6146666020830185614118565b6146736040830184613b98565b949350505050565b7f4f6e6c7920666163746f727920636f6e7472616374206f722073706f6e736f725f8201527f7320636f6e747261637400000000000000000000000000000000000000000000602082015250565b5f6146d5602a83613a6a565b91506146e08261467b565b604082019050919050565b5f6020820190508181035f830152614702816146c9565b9050919050565b7f496e76616c696420696e707574730000000000000000000000000000000000005f82015250565b5f61473d600e83613a6a565b915061474882614709565b602082019050919050565b5f6020820190508181035f83015261476a81614731565b9050919050565b5f61477b82613c28565b915061478683613c28565b925082820190506fffffffffffffffffffffffffffffffff8111156147ae576147ad6143ef565b5b92915050565b7f496e73756666696369656e7420626f78657320666f722073616c6500000000005f82015250565b5f6147e8601b83613a6a565b91506147f3826147b4565b602082019050919050565b5f6020820190508181035f830152614815816147dc565b9050919050565b5f67ffffffffffffffff82111561483657614835613dcf565b5b602082029050919050565b5f61485361484e8461481c565b613e2d565b9050806020840283018581111561486d5761486c614522565b5b835b8181101561489657806148828882614497565b84526020840193505060208101905061486f565b5050509392505050565b5f82601f8301126148b4576148b3613dc7565b5b60036148c1848285614841565b91505092915050565b5f606082840312156148df576148de6139a5565b5b5f6148ec848285016148a0565b91505092915050565b7f4275796572206e6f7420726567697374657265640000000000000000000000005f82015250565b5f614929601483613a6a565b9150614934826148f5565b602082019050919050565b5f6020820190508181035f8301526149568161491d565b9050919050565b7f4e487b71000000000000000000000000000000000000000000000000000000005f52601260045260245ffd5b5f61499482613b0a565b915061499f83613b0a565b9250826149af576149ae61495d565b5b828204905092915050565b5f6149c482613b0a565b91506149cf83613b0a565b92508282039050818111156149e7576149e66143ef565b5b92915050565b5f606082019050614a005f830186613b98565b614a0d6020830185613b98565b614a1a6040830184614118565b949350505050565b7f5472616e73666572206661696c656400000000000000000000000000000000005f82015250565b5f614a56600f83613a6a565b9150614a6182614a22565b602082019050919050565b5f6020820190508181035f830152614a8381614a4a565b9050919050565b5f614a9482613c28565b91506fffffffffffffffffffffffffffffffff8203614ab657614ab56143ef565b5b600182019050919050565b5f614acb82613b0a565b9150614ad683613b0a565b9250828201905080821115614aee57614aed6143ef565b5b92915050565b5f602082019050614b075f830184614090565b92915050565b5f819050919050565b5f67ffffffffffffffff82169050919050565b5f819050919050565b5f614b4c614b47614b4284614b0d565b614b29565b614b16565b9050919050565b614b5c81614b32565b82525050565b5f602082019050614b755f830184614b53565b92915050565b7f4c6f7474657279206e6f7420636f6d706c6574656400000000000000000000005f82015250565b5f614baf601583613a6a565b9150614bba82614b7b565b602082019050919050565b5f6020820190508181035f830152614bdc81614ba3565b9050919050565b5f604082019050614bf65f830185613b98565b614c036020830184614118565b9392505050565b5f81905092915050565b5f614c1e82613a60565b614c288185614c0a565b9350614c38818560208601613a7a565b80840191505092915050565b5f614c4f8285614c14565b9150614c5b8284614c14565b91508190509392505050565b5f614c7182613b0a565b9150614c7c83613b0a565b9250828202614c8a81613b0a565b91508282048414831517614ca157614ca06143ef565b5b5092915050565b5f819050919050565b614cc2614cbd82613b0a565b614ca8565b82525050565b5f8160601b9050919050565b5f614cde82614cc8565b9050919050565b5f614cef82614cd4565b9050919050565b614d07614d0282613b87565b614ce5565b82525050565b5f614d188287614cb1565b602082019150614d288286614cf6565b601482019150614d388285614cb1565b602082019150614d488284614cb1565b60208201915081905095945050505050565b5f614d6482613b0a565b9150614d6f83613b0a565b925082614d7f57614d7e61495d565b5b828206905092915050565b5f614d9482613b0a565b91505f8203614da657614da56143ef565b5b600182039050919050565b5f81519050919050565b5f82825260208201905092915050565b5f614dd582614db1565b614ddf8185614dbb565b9350614def818560208601613a7a565b614df881613aa2565b840191505092915050565b5f608082019050614e165f830187613b98565b614e236020830186613b98565b614e306040830185614118565b8181036060830152614e428184614dcb565b905095945050505050565b5f81519050614e5b816139d8565b92915050565b5f60208284031215614e7657614e756139a5565b5b5f614e8384828501614e4d565b91505092915050565b5f819050815f5260205f209050919050565b5f6020601f8301049050919050565b5f82821b905092915050565b5f60088302614ee87fffffffffffffffffffffffffffffffffffffffffffffffffffffffffffffffff82614ead565b614ef28683614ead565b95508019841693508086168417925050509392505050565b5f614f24614f1f614f1a84613b0a565b614b29565b613b0a565b9050919050565b5f819050919050565b614f3d83614f0a565b614f51614f4982614f2b565b848454614eb9565b825550505050565b5f90565b614f65614f59565b614f70818484614f34565b505050565b5b81811015614f9357614f885f82614f5d565b600181019050614f76565b5050565b601f821115614fd857614fa981614e8c565b614fb284614e9e565b81016020851015614fc1578190505b614fd5614fcd85614e9e565b830182614f75565b50505b505050565b5f82821c905092915050565b5f614ff85f1984600802614fdd565b1980831691505092915050565b5f6150108383614fe9565b9150826002028217905092915050565b61502982613a60565b67ffffffffffffffff81111561504257615041613dcf565b5b61504c82546143bf565b615057828285614f97565b5f60209050601f831160018114615088575f8415615076578287015190505b6150808582615005565b8655506150e7565b601f19841661509686614e8c565b5f5b828110156150bd57848901518255600182019150602085019450602081019050615098565b868310156150da57848901516150d6601f891682614fe9565b8355505b6001600288020188555050505b50505050505056fea2646970667358221220077d799ad8681988659dd8855aef154890b789c69190f8b336aad4b2b1226d0e64736f6c63430008150033",
  "immutableReferences": {},
  "source": "// SPDX-License-Identifier: MIT\npragma solidity ^0.8.20;\n\nimport \"@openzeppelin/contracts/token/ERC20/IERC20.sol\";\nimport \"@openzeppelin/contracts-upgradeable/token/ERC721/ERC721Upgradeable.sol\";\nimport \"@openzeppelin/contracts-upgradeable/proxy/utils/Initializable.sol\";\n\nimport \"../interfaces/ILottery.sol\"; \nimport \"../interfaces/ILotteryFactory.sol\";\nimport \"../interfaces/ISponsors.sol\";\n\ncontract LotteryTemplate is  \nInitializable, \nERC721Upgradeable, \nILottery {\n    //////////////////////////////////////////////////////////////////////////////////////////////////\n    // State\n    //////////////////////////////////////////////////////////////////////////////////////////////////\n\n    address private s_factoryContract;\n\n    LoterryInfo private s_lotteryInfo;\n\n    mapping(uint128 => uint256) private s_ticketToBox;\n    mapping(uint256 => BoxTickets) private s_ticketsboxes;\n    mapping(uint256 => uint128[2]) private s_lastTicketSegment;\n    mapping(address => uint256) private s_balancesBoxes;\n\n    uint256 private s_percentWinner;\n    uint256 private s_percentSponsorWinner;\n    uint256 private s_incentivePercentMaxSponsors;\n    IncentiveMaxBuyer private s_incentiveMaxBuyer;\n\n    address private s_topBuyer;\n    \n    mapping(uint256 => uint256) private s_availableTicketsMap;\n    uint256 private s_remainingTicketsCount;\n\n    bool private s_completed;\n\n    //////////////////////////////////////////////////////////////////////////////////////////////////\n    // Initialization\n    ////////////////////////////////////////////////////////////////////////////////////////////////// \n\n    function initialize(\n        string memory p_name,\n        string memory p_symbol,\n        uint128 p_totalBoxes, \n        address p_stableCoin, \n        uint128 p_boxPrice,\n        uint256 p_percentageWinner,\n        uint256 p_percentageSponsorWinner,\n        IncentiveMaxBuyer memory p_incentiveMaxBuyer,\n        uint256 p_incentivePercentageMaxSponsors\n    ) public initializer override {\n        __ERC721_init(p_name, p_symbol);\n\n        s_factoryContract = msg.sender;\n        s_lotteryInfo.stableCoin = p_stableCoin;\n        s_lotteryInfo.boxPrice = p_boxPrice;\n        s_lotteryInfo.totalBoxes = p_totalBoxes;\n        s_percentWinner = p_percentageWinner;    \n        s_percentSponsorWinner = p_percentageSponsorWinner;\n        s_incentiveMaxBuyer = p_incentiveMaxBuyer;\n        s_incentivePercentMaxSponsors = p_incentivePercentageMaxSponsors;\n        \n        s_remainingTicketsCount = p_totalBoxes * 2;\n    }\n\n    /// @custom:oz-upgrades-unsafe-allow constructor\n    constructor() { _disableInitializers(); }\n\n    //////////////////////////////////////////////////////////////////////////////////////////////////\n    // Public functions\n    //////////////////////////////////////////////////////////////////////////////////////////////////\n\n    // => Get functions\n\n    function infoLottery() public view override returns(LoterryInfo memory) {\n        return s_lotteryInfo;\n    }\n\n    function infoIncentiveMaxBuyer() public view override returns(IncentiveMaxBuyer memory) {\n        return s_incentiveMaxBuyer;\n    }\n\n    function ticketToBox(uint128 p_ticket) public view override returns(uint256) {\n        return s_ticketToBox[p_ticket];\n    }\n\n    function ticketsBox(uint256 p_boxId) public view override returns(uint128, uint128) {\n        return (s_ticketsboxes[p_boxId].ticket1, s_ticketsboxes[p_boxId].ticket2);\n    }\n\n    function ticketAccountWinner() public view override returns(uint128, address) {\n        require(s_completed, \"Lottery not completed\");\n        return (s_lotteryInfo.winningNumber, ownerOf(s_ticketToBox[s_lotteryInfo.winningNumber]));\n    }\n\n    function topBuyer() public view override returns(address) {\n        return s_topBuyer;\n    } \n\n    function completed() public view override returns(bool) { \n        return s_completed;\n    }\n\n    function supportsInterface(bytes4 interfaceId)\n        public\n        view\n        override(ERC721Upgradeable)\n        returns (bool)\n    {\n        return super.supportsInterface(interfaceId);\n    }\n\n    // => Set functions\n\n    function buyBoxes(uint128 p_numberBoxes, address p_buyer) public override {\n        require(\n            msg.sender == s_factoryContract || msg.sender == ILotteryFactory(s_factoryContract).sponsorsConctract(), \n            \"Only factory contract or sponsors contract\"\n        );\n        require(p_numberBoxes > 0 && p_buyer != address(0), \"Invalid inputs\");\n        require(s_lotteryInfo.boxesSold + p_numberBoxes <= s_lotteryInfo.totalBoxes, \"Insufficient boxes for sale\");\n\n        uint256 _totalCost = s_lotteryInfo.boxPrice * p_numberBoxes;\n\n        ISponsors _sponsorsContract = ISponsors(ILotteryFactory(s_factoryContract).sponsorsConctract());\n        address[3] memory _sponsorsForBuyer = _sponsorsContract.buyerSponsors(address(this), p_buyer); \n        require(_sponsorsForBuyer[0] != address(0), \"Buyer not registered\");\n        _sponsorsContract.activateAccount(p_buyer);\n    \n        uint128 _j = 1;\n        for (_j = 0; _j < 3;) {\n            if (_sponsorsForBuyer[_j] != address(0)) {\n                _totalCost -= _totalCost / 4;\n                require(\n                    IERC20(s_lotteryInfo.stableCoin).transferFrom(p_buyer, _sponsorsForBuyer[_j], _totalCost / 4), \n                    \"Transfer failed\"\n                );\n            }\n            _j++;\n        }\n        require(IERC20(s_lotteryInfo.stableCoin).transferFrom(p_buyer, address(this), _totalCost), \"Transfer failed\");\n\n        uint128 _i = 1;\n        for (_i; _i <= p_numberBoxes;) {\n            uint256 _boxId = s_lotteryInfo.boxesSold + _i;\n\n            uint128 _ticket = _findAvailableTicket(_boxId);\n            s_ticketToBox[_ticket] = _boxId;\n            s_ticketsboxes[_boxId].ticket1 = _ticket;\n\n            _ticket = _findAvailableTicket(_boxId);\n            s_ticketToBox[_ticket] = _boxId;\n            s_ticketsboxes[_boxId].ticket2 = _ticket;\n\n            _safeMint(p_buyer, _boxId);\n            _i++;\n        }\n\n        s_lotteryInfo.boxesSold += p_numberBoxes;\n        s_balancesBoxes[p_buyer] += p_numberBoxes;\n\n        if (s_balancesBoxes[p_buyer] > s_balancesBoxes[s_topBuyer]) {\n            s_topBuyer = p_buyer;\n        }\n\n        emit BuyBoxes(p_buyer, p_numberBoxes);\n    }\n\n    function setWinning(uint128 p_winningNumber) public override {\n        require(msg.sender == s_factoryContract && !s_completed);\n        require(p_winningNumber >= 0 && p_winningNumber < s_lotteryInfo.totalBoxes * 2);\n\n        s_lotteryInfo.winningNumber = p_winningNumber;\n        s_completed = true;\n\n        uint256 _totalBalance = IERC20(s_lotteryInfo.stableCoin).balanceOf(address(this));\n        ISponsors _sponsorsContract = ISponsors(ILotteryFactory(s_factoryContract).sponsorsConctract());\n\n        if (s_ticketToBox[p_winningNumber] != 0) {\n            address _winner = ownerOf(s_ticketToBox[p_winningNumber]);\n\n            _transferStableCoin(_winner, s_percentWinner, _totalBalance);\n\n            address[2] memory _activatedSponsors = _sponsorsContract.activatedSponsors(address(this), _winner);\n            if (_activatedSponsors[0] != address(0)) {\n                _transferStableCoin(_activatedSponsors[0], s_percentSponsorWinner, _totalBalance);\n            }\n        }\n        \n        if (_sponsorsContract.checkActive(address(this), s_topBuyer)) {\n            uint256 _topBoxesBuyer = s_balancesBoxes[s_topBuyer];\n            uint256 _percent;\n            if (_topBoxesBuyer <= s_incentiveMaxBuyer.boxes1) {\n                _percent = s_incentiveMaxBuyer.percentage1;\n            } else if (_topBoxesBuyer >= s_incentiveMaxBuyer.boxes2 && _topBoxesBuyer < s_incentiveMaxBuyer.boxes3) {\n                _percent = s_incentiveMaxBuyer.percentage2;\n            } else {\n                _percent = s_incentiveMaxBuyer.percentage3;\n            }\n            _transferStableCoin(s_topBuyer, _percent, _totalBalance);\n        }\n\n        address _accountWithMaxSponsors = _sponsorsContract.accountWithMaxActivatedSponsors(address(this));\n        if (_sponsorsContract.checkActive(address(this), _accountWithMaxSponsors)) {\n            _transferStableCoin(_accountWithMaxSponsors, s_incentivePercentMaxSponsors, _totalBalance);\n        }\n    }\n\n    function withdrawBalance(address p_address) public override {\n        require(msg.sender == s_factoryContract && s_completed);\n        require(\n            IERC20(s_lotteryInfo.stableCoin).transfer(p_address, IERC20(s_lotteryInfo.stableCoin).balanceOf(address(this)))\n        );\n    }\n\n    //////////////////////////////////////////////////////////////////////////////////////////////////\n    // Internal / Private functions\n    //////////////////////////////////////////////////////////////////////////////////////////////////\n\n\n\n    function _findAvailableTicket(uint256 p_boxID) private returns (uint128) {\n        // Pseudo-random index in range [0, remaining - 1]\n        // Using p_boxID and msg.sender for entropy mixed with timestamp\n        uint256 _randomIndex = uint256(\n            keccak256(abi.encodePacked(block.timestamp, msg.sender, s_remainingTicketsCount, p_boxID))\n        ) % s_remainingTicketsCount;\n\n        // Swap-and-Pop logic\n        // If map value is 0, it means the ticket at that index is the index itself (lazy initialization)\n        uint256 _valAtIndex = s_availableTicketsMap[_randomIndex];\n        uint128 _ticket = uint128(_valAtIndex == 0 ? _randomIndex : _valAtIndex);\n\n        // Get the last available ticket (to swap into the hole)\n        uint256 _lastIndex = s_remainingTicketsCount - 1;\n        uint256 _valAtLast = s_availableTicketsMap[_lastIndex];\n        uint256 _lastTicket = _valAtLast == 0 ? _lastIndex : _valAtLast;\n\n        // Perform the swap\n        s_availableTicketsMap[_randomIndex] = _lastTicket;\n        \n        // Clean up last slot (optional, saves gas to leave it if we just decrement counter)\n        // But zeroing it refunds gas? No, mostly negligible now. \n        // Just shrinking range is enough.\n        // Actually, better to clear the last slot if we want to reset? No, relying on lazy init.\n        // We MUST verify if accessing s_availableTicketsMap[_randomIndex] next time works. \n        // Yes, because next time _randomIndex will be < new s_remainingTicketsCount.\n\n        s_remainingTicketsCount--;\n\n        return _ticket;\n    }\n\n    function _transferStableCoin(address p_to, uint256 p_percentage, uint256 p_totalBalance) private {\n        require(\n            IERC20(s_lotteryInfo.stableCoin).transfer(p_to, (p_totalBalance * p_percentage) / 10000),\n            \"Transfer failed\"\n        );\n    }\n\n    function _update(address to, uint256 tokenId, address auth)\n        internal\n        override(ERC721Upgradeable)\n        returns (address)\n    {\n        require(!s_completed);\n        return super._update(to, tokenId, auth);\n    }\n\n    function _increaseBalance(address account, uint128 value)\n        internal\n        override(ERC721Upgradeable)\n    {\n        require(!s_completed);\n        super._increaseBalance(account, value);\n    }\n}\n",
  "sourcePath": "/Users/johancard/Downloads/Copia de lottery-main 4/contracts/LotteryTemplate.sol",
  "compiler": {
    "name": "solc",
    "version": "0.8.21+commit.d9974bed.Emscripten.clang"
  },
  "schemaVersion": "3.4.16",
  "updatedAt": "2025-12-08T18:57:55.076Z",
  "devdoc": {
    "errors": {
      "ERC721IncorrectOwner(address,uint256,address)": [
        {
          "details": "Indicates an error related to the ownership over a particular token. Used in transfers.",
          "params": {
            "owner": "Address of the current owner of a token.",
            "sender": "Address whose tokens are being transferred.",
            "tokenId": "Identifier number of a token."
          }
        }
      ],
      "ERC721InsufficientApproval(address,uint256)": [
        {
          "details": "Indicates a failure with the `operator`s approval. Used in transfers.",
          "params": {
            "operator": "Address that may be allowed to operate on tokens without being their owner.",
            "tokenId": "Identifier number of a token."
          }
        }
      ],
      "ERC721InvalidApprover(address)": [
        {
          "details": "Indicates a failure with the `approver` of a token to be approved. Used in approvals.",
          "params": {
            "approver": "Address initiating an approval operation."
          }
        }
      ],
      "ERC721InvalidOperator(address)": [
        {
          "details": "Indicates a failure with the `operator` to be approved. Used in approvals.",
          "params": {
            "operator": "Address that may be allowed to operate on tokens without being their owner."
          }
        }
      ],
      "ERC721InvalidOwner(address)": [
        {
          "details": "Indicates that an address can't be an owner. For example, `address(0)` is a forbidden owner in ERC-20. Used in balance queries.",
          "params": {
            "owner": "Address of the current owner of a token."
          }
        }
      ],
      "ERC721InvalidReceiver(address)": [
        {
          "details": "Indicates a failure with the token `receiver`. Used in transfers.",
          "params": {
            "receiver": "Address to which tokens are being transferred."
          }
        }
      ],
      "ERC721InvalidSender(address)": [
        {
          "details": "Indicates a failure with the token `sender`. Used in transfers.",
          "params": {
            "sender": "Address whose tokens are being transferred."
          }
        }
      ],
      "ERC721NonexistentToken(uint256)": [
        {
          "details": "Indicates a `tokenId` whose `owner` is the zero address.",
          "params": {
            "tokenId": "Identifier number of a token."
          }
        }
      ],
      "InvalidInitialization()": [
        {
          "details": "The contract is already initialized."
        }
      ],
      "NotInitializing()": [
        {
          "details": "The contract is not initializing."
        }
      ]
    },
    "events": {
      "Approval(address,address,uint256)": {
        "details": "Emitted when `owner` enables `approved` to manage the `tokenId` token."
      },
      "ApprovalForAll(address,address,bool)": {
        "details": "Emitted when `owner` enables or disables (`approved`) `operator` to manage all of its assets."
      },
      "Initialized(uint64)": {
        "details": "Triggered when the contract has been initialized or reinitialized."
      },
      "Transfer(address,address,uint256)": {
        "details": "Emitted when `tokenId` token is transferred from `from` to `to`."
      }
    },
    "kind": "dev",
    "methods": {
      "approve(address,uint256)": {
        "details": "Gives permission to `to` to transfer `tokenId` token to another account. The approval is cleared when the token is transferred. Only a single account can be approved at a time, so approving the zero address clears previous approvals. Requirements: - The caller must own the token or be an approved operator. - `tokenId` must exist. Emits an {Approval} event."
      },
      "balanceOf(address)": {
        "details": "Returns the number of tokens in ``owner``'s account."
      },
      "constructor": {
        "custom:oz-upgrades-unsafe-allow": "constructor"
      },
      "getApproved(uint256)": {
        "details": "Returns the account approved for `tokenId` token. Requirements: - `tokenId` must exist."
      },
      "isApprovedForAll(address,address)": {
        "details": "Returns if the `operator` is allowed to manage all of the assets of `owner`. See {setApprovalForAll}"
      },
      "name()": {
        "details": "Returns the token collection name."
      },
      "ownerOf(uint256)": {
        "details": "Returns the owner of the `tokenId` token. Requirements: - `tokenId` must exist."
      },
      "safeTransferFrom(address,address,uint256)": {
        "details": "Safely transfers `tokenId` token from `from` to `to`, checking first that contract recipients are aware of the ERC-721 protocol to prevent tokens from being forever locked. Requirements: - `from` cannot be the zero address. - `to` cannot be the zero address. - `tokenId` token must exist and be owned by `from`. - If the caller is not `from`, it must have been allowed to move this token by either {approve} or   {setApprovalForAll}. - If `to` refers to a smart contract, it must implement {IERC721Receiver-onERC721Received}, which is called upon   a safe transfer. Emits a {Transfer} event."
      },
      "safeTransferFrom(address,address,uint256,bytes)": {
        "details": "Safely transfers `tokenId` token from `from` to `to`. Requirements: - `from` cannot be the zero address. - `to` cannot be the zero address. - `tokenId` token must exist and be owned by `from`. - If the caller is not `from`, it must be approved to move this token by either {approve} or {setApprovalForAll}. - If `to` refers to a smart contract, it must implement {IERC721Receiver-onERC721Received}, which is called upon   a safe transfer. Emits a {Transfer} event."
      },
      "setApprovalForAll(address,bool)": {
        "details": "Approve or remove `operator` as an operator for the caller. Operators can call {transferFrom} or {safeTransferFrom} for any token owned by the caller. Requirements: - The `operator` cannot be the address zero. Emits an {ApprovalForAll} event."
      },
      "supportsInterface(bytes4)": {
        "details": "Returns true if this contract implements the interface defined by `interfaceId`. See the corresponding https://eips.ethereum.org/EIPS/eip-165#how-interfaces-are-identified[ERC section] to learn more about how these ids are created. This function call must use less than 30 000 gas."
      },
      "symbol()": {
        "details": "Returns the token collection symbol."
      },
      "tokenURI(uint256)": {
        "details": "Returns the Uniform Resource Identifier (URI) for `tokenId` token."
      },
      "transferFrom(address,address,uint256)": {
        "details": "Transfers `tokenId` token from `from` to `to`. WARNING: Note that the caller is responsible to confirm that the recipient is capable of receiving ERC-721 or else they may be permanently lost. Usage of {safeTransferFrom} prevents loss, though the caller must understand this adds an external call which potentially creates a reentrancy vulnerability. Requirements: - `from` cannot be the zero address. - `to` cannot be the zero address. - `tokenId` token must be owned by `from`. - If the caller is not `from`, it must be approved to move this token by either {approve} or {setApprovalForAll}. Emits a {Transfer} event."
      }
    },
    "version": 1
  },
  "userdoc": {
    "kind": "user",
    "methods": {},
    "version": 1
  }
}