{
  "contractName": "Sponsors",
  "abi": [
    {
      "inputs": [],
      "stateMutability": "nonpayable",
      "type": "constructor"
    },
    {
      "inputs": [],
      "name": "InvalidInitialization",
      "type": "error"
    },
    {
      "inputs": [],
      "name": "NotInitializing",
      "type": "error"
    },
    {
      "anonymous": false,
      "inputs": [
        {
          "indexed": true,
          "internalType": "address",
          "name": "account",
          "type": "address"
        }
      ],
      "name": "AccountActivated",
      "type": "event"
    },
    {
      "anonymous": false,
      "inputs": [
        {
          "indexed": true,
          "internalType": "address",
          "name": "account",
          "type": "address"
        },
        {
          "indexed": true,
          "internalType": "address",
          "name": "sponsor",
          "type": "address"
        },
        {
          "indexed": true,
          "internalType": "address",
          "name": "lottery",
          "type": "address"
        },
        {
          "indexed": false,
          "internalType": "uint128",
          "name": "numberBoxes",
          "type": "uint128"
        }
      ],
      "name": "AccountRegisteredWithLottery",
      "type": "event"
    },
    {
      "anonymous": false,
      "inputs": [
        {
          "indexed": true,
          "internalType": "address",
          "name": "account",
          "type": "address"
        },
        {
          "indexed": true,
          "internalType": "address",
          "name": "sponsor",
          "type": "address"
        }
      ],
      "name": "AccountRegisteredWithoutLottery",
      "type": "event"
    },
    {
      "anonymous": false,
      "inputs": [
        {
          "indexed": false,
          "internalType": "uint64",
          "name": "version",
          "type": "uint64"
        }
      ],
      "name": "Initialized",
      "type": "event"
    },
    {
      "inputs": [],
      "name": "initialize",
      "outputs": [],
      "stateMutability": "nonpayable",
      "type": "function"
    },
    {
      "inputs": [
        {
          "internalType": "address",
          "name": "p_account",
          "type": "address"
        }
      ],
      "name": "sponsors",
      "outputs": [
        {
          "internalType": "address[2]",
          "name": "",
          "type": "address[2]"
        }
      ],
      "stateMutability": "view",
      "type": "function"
    },
    {
      "inputs": [
        {
          "internalType": "address",
          "name": "p_account",
          "type": "address"
        }
      ],
      "name": "numAccountsSponsored",
      "outputs": [
        {
          "internalType": "uint256",
          "name": "",
          "type": "uint256"
        }
      ],
      "stateMutability": "view",
      "type": "function"
    },
    {
      "inputs": [
        {
          "internalType": "address",
          "name": "p_lottery",
          "type": "address"
        },
        {
          "internalType": "address",
          "name": "p_account",
          "type": "address"
        }
      ],
      "name": "activatedSponsors",
      "outputs": [
        {
          "internalType": "address[2]",
          "name": "",
          "type": "address[2]"
        }
      ],
      "stateMutability": "view",
      "type": "function"
    },
    {
      "inputs": [
        {
          "internalType": "address",
          "name": "p_lottery",
          "type": "address"
        },
        {
          "internalType": "address",
          "name": "p_account",
          "type": "address"
        }
      ],
      "name": "buyerSponsors",
      "outputs": [
        {
          "internalType": "address[3]",
          "name": "",
          "type": "address[3]"
        }
      ],
      "stateMutability": "view",
      "type": "function"
    },
    {
      "inputs": [
        {
          "internalType": "address",
          "name": "p_lottery",
          "type": "address"
        },
        {
          "internalType": "address",
          "name": "p_account",
          "type": "address"
        }
      ],
      "name": "checkActive",
      "outputs": [
        {
          "internalType": "bool",
          "name": "",
          "type": "bool"
        }
      ],
      "stateMutability": "view",
      "type": "function"
    },
    {
      "inputs": [
        {
          "internalType": "address",
          "name": "p_lottery",
          "type": "address"
        },
        {
          "internalType": "address",
          "name": "p_account",
          "type": "address"
        }
      ],
      "name": "numActivatedAccountsSponsored",
      "outputs": [
        {
          "internalType": "uint256",
          "name": "",
          "type": "uint256"
        }
      ],
      "stateMutability": "view",
      "type": "function"
    },
    {
      "inputs": [
        {
          "internalType": "address",
          "name": "p_lottery",
          "type": "address"
        }
      ],
      "name": "accountWithMaxActivatedSponsors",
      "outputs": [
        {
          "internalType": "address",
          "name": "",
          "type": "address"
        }
      ],
      "stateMutability": "view",
      "type": "function"
    },
    {
      "inputs": [
        {
          "internalType": "address",
          "name": "p_factoryContract",
          "type": "address"
        }
      ],
      "name": "setFactoryContract",
      "outputs": [],
      "stateMutability": "nonpayable",
      "type": "function"
    },
    {
      "inputs": [
        {
          "internalType": "address",
          "name": "p_buyer",
          "type": "address"
        },
        {
          "internalType": "address",
          "name": "p_sponsor",
          "type": "address"
        },
        {
          "internalType": "address",
          "name": "p_lottery",
          "type": "address"
        },
        {
          "internalType": "uint128",
          "name": "p_numberBoxes",
          "type": "uint128"
        }
      ],
      "name": "registerAccountWithLottery",
      "outputs": [],
      "stateMutability": "nonpayable",
      "type": "function"
    },
    {
      "inputs": [
        {
          "internalType": "address",
          "name": "p_account",
          "type": "address"
        },
        {
          "internalType": "address",
          "name": "p_sponsor",
          "type": "address"
        }
      ],
      "name": "registerAccountWithoutLottery",
      "outputs": [],
      "stateMutability": "nonpayable",
      "type": "function"
    },
    {
      "inputs": [
        {
          "internalType": "address",
          "name": "p_account",
          "type": "address"
        }
      ],
      "name": "activateAccount",
      "outputs": [],
      "stateMutability": "nonpayable",
      "type": "function"
    }
  ],
  "bytecode": "0x608060405234801562000010575f80fd5b50620000216200002760201b60201c565b620001ae565b5f620000386200012b60201b60201c565b9050805f0160089054906101000a900460ff161562000083576040517ff92ee8a900000000000000000000000000000000000000000000000000000000815260040160405180910390fd5b67ffffffffffffffff8016815f015f9054906101000a900467ffffffffffffffff1667ffffffffffffffff1614620001285767ffffffffffffffff815f015f6101000a81548167ffffffffffffffff021916908367ffffffffffffffff1602179055507fc7f505b2f371ae2175ee4913f4499e1f2633a7b5936321eed1cdaeb6115181d267ffffffffffffffff6040516200011f919062000193565b60405180910390a15b50565b5f806200013d6200014660201b60201c565b90508091505090565b5f7ff0c57e16840df040f15088dc2f81fe391c3923bec73e23a9662efc9c229c6a005f1b905090565b5f67ffffffffffffffff82169050919050565b6200018d816200016f565b82525050565b5f602082019050620001a85f83018462000182565b92915050565b61276180620001bc5f395ff3fe608060405234801561000f575f80fd5b50600436106100b2575f3560e01c80638c50e4661161006f5780638c50e4661461019c578063953bde31146101b8578063d35590c2146101d4578063d424134114610204578063e063272614610220578063e623c82e14610250576100b2565b806320d32457146100b657806344128e7e146100e657806364f4e1bf146101165780636da3f170146101465780638129fc1c1461017657806382a6213714610180575b5f80fd5b6100d060048036038101906100cb9190611f34565b610280565b6040516100dd9190611f8c565b60405180910390f35b61010060048036038101906100fb9190611fa5565b61030e565b60405161010d9190611fdf565b60405180910390f35b610130600480360381019061012b9190611fa5565b610373565b60405161013d9190612010565b60405180910390f35b610160600480360381019061015b9190611f34565b6103b9565b60405161016d9190612010565b60405180910390f35b61017e61043b565b005b61019a60048036038101906101959190611fa5565b61066c565b005b6101b660048036038101906101b1919061206e565b610b2b565b005b6101d260048036038101906101cd9190611f34565b610fec565b005b6101ee60048036038101906101e99190611fa5565b611352565b6040516101fb9190612177565b60405180910390f35b61021e60048036038101906102199190611fa5565b6114e2565b005b61023a60048036038101906102359190611f34565b6116af565b604051610247919061220f565b60405180910390f35b61026a60048036038101906102659190611f34565b6117f7565b6040516102779190612177565b60405180910390f35b5f60035f8473ffffffffffffffffffffffffffffffffffffffff1673ffffffffffffffffffffffffffffffffffffffff1681526020019081526020015f205f8373ffffffffffffffffffffffffffffffffffffffff1673ffffffffffffffffffffffffffffffffffffffff1681526020019081526020015f205f9054906101000a900460ff16905092915050565b5f60065f8373ffffffffffffffffffffffffffffffffffffffff1673ffffffffffffffffffffffffffffffffffffffff1681526020019081526020015f205f9054906101000a900473ffffffffffffffffffffffffffffffffffffffff169050919050565b5f60045f8373ffffffffffffffffffffffffffffffffffffffff1673ffffffffffffffffffffffffffffffffffffffff1681526020019081526020015f20549050919050565b5f60055f8473ffffffffffffffffffffffffffffffffffffffff1673ffffffffffffffffffffffffffffffffffffffff1681526020019081526020015f205f8373ffffffffffffffffffffffffffffffffffffffff1673ffffffffffffffffffffffffffffffffffffffff1681526020019081526020015f2054905092915050565b5f610444611c4a565b90505f815f0160089054906101000a900460ff161590505f825f015f9054906101000a900467ffffffffffffffff1690505f808267ffffffffffffffff1614801561048c5750825b90505f60018367ffffffffffffffff161480156104bf57505f3073ffffffffffffffffffffffffffffffffffffffff163b145b9050811580156104cd575080155b15610504576040517ff92ee8a900000000000000000000000000000000000000000000000000000000815260040160405180910390fd5b6001855f015f6101000a81548167ffffffffffffffff021916908367ffffffffffffffff1602179055508315610551576001855f0160086101000a81548160ff0219169083151502179055505b335f806101000a81548173ffffffffffffffffffffffffffffffffffffffff021916908373ffffffffffffffffffffffffffffffffffffffff1602179055503060025f3073ffffffffffffffffffffffffffffffffffffffff1673ffffffffffffffffffffffffffffffffffffffff1681526020019081526020015f205f6101000a81548173ffffffffffffffffffffffffffffffffffffffff021916908373ffffffffffffffffffffffffffffffffffffffff1602179055508315610665575f855f0160086101000a81548160ff0219169083151502179055507fc7f505b2f371ae2175ee4913f4499e1f2633a7b5936321eed1cdaeb6115181d2600160405161065c919061227d565b60405180910390a15b5050505050565b60015f9054906101000a900473ffffffffffffffffffffffffffffffffffffffff1673ffffffffffffffffffffffffffffffffffffffff16638f63deab336040518263ffffffff1660e01b81526004016106c69190611fdf565b602060405180830381865afa1580156106e1573d5f803e3d5ffd5b505050506040513d601f19601f8201168201806040525081019061070591906122c0565b610744576040517f08c379a000000000000000000000000000000000000000000000000000000000815260040161073b90612345565b60405180910390fd5b5f73ffffffffffffffffffffffffffffffffffffffff168173ffffffffffffffffffffffffffffffffffffffff16036107b2576040517f08c379a00000000000000000000000000000000000000000000000000000000081526004016107a9906123ad565b60405180910390fd5b5f73ffffffffffffffffffffffffffffffffffffffff1660025f8373ffffffffffffffffffffffffffffffffffffffff1673ffffffffffffffffffffffffffffffffffffffff1681526020019081526020015f205f9054906101000a900473ffffffffffffffffffffffffffffffffffffffff1673ffffffffffffffffffffffffffffffffffffffff160361087c576040517f08c379a000000000000000000000000000000000000000000000000000000000815260040161087390612415565b60405180910390fd5b60035f3373ffffffffffffffffffffffffffffffffffffffff1673ffffffffffffffffffffffffffffffffffffffff1681526020019081526020015f205f8273ffffffffffffffffffffffffffffffffffffffff1673ffffffffffffffffffffffffffffffffffffffff1681526020019081526020015f205f9054906101000a900460ff16610b2857600160035f3373ffffffffffffffffffffffffffffffffffffffff1673ffffffffffffffffffffffffffffffffffffffff1681526020019081526020015f205f8373ffffffffffffffffffffffffffffffffffffffff1673ffffffffffffffffffffffffffffffffffffffff1681526020019081526020015f205f6101000a81548160ff02191690831515021790555060055f3373ffffffffffffffffffffffffffffffffffffffff1673ffffffffffffffffffffffffffffffffffffffff1681526020019081526020015f205f60025f8473ffffffffffffffffffffffffffffffffffffffff1673ffffffffffffffffffffffffffffffffffffffff1681526020019081526020015f205f9054906101000a900473ffffffffffffffffffffffffffffffffffffffff1673ffffffffffffffffffffffffffffffffffffffff1673ffffffffffffffffffffffffffffffffffffffff1681526020019081526020015f205f815480929190610a7990612460565b9190505550610ae43360025f8473ffffffffffffffffffffffffffffffffffffffff1673ffffffffffffffffffffffffffffffffffffffff1681526020019081526020015f205f9054906101000a900473ffffffffffffffffffffffffffffffffffffffff16611c5d565b8073ffffffffffffffffffffffffffffffffffffffff167fcfacdcf9289f1b69c533dda67fc14bae036114cd912d8f9fa9676e95d4ec028460405160405180910390a25b50565b5f73ffffffffffffffffffffffffffffffffffffffff168473ffffffffffffffffffffffffffffffffffffffff1614158015610b9357505f73ffffffffffffffffffffffffffffffffffffffff168373ffffffffffffffffffffffffffffffffffffffff1614155b8015610bcb57505f73ffffffffffffffffffffffffffffffffffffffff168273ffffffffffffffffffffffffffffffffffffffff1614155b610c0a576040517f08c379a0000000000000000000000000000000000000000000000000000000008152600401610c01906123ad565b60405180910390fd5b5f73ffffffffffffffffffffffffffffffffffffffff1660025f8673ffffffffffffffffffffffffffffffffffffffff1673ffffffffffffffffffffffffffffffffffffffff1681526020019081526020015f205f9054906101000a900473ffffffffffffffffffffffffffffffffffffffff1673ffffffffffffffffffffffffffffffffffffffff1614610cd4576040517f08c379a0000000000000000000000000000000000000000000000000000000008152600401610ccb906124f1565b60405180910390fd5b5f73ffffffffffffffffffffffffffffffffffffffff1660025f8573ffffffffffffffffffffffffffffffffffffffff1673ffffffffffffffffffffffffffffffffffffffff1681526020019081526020015f205f9054906101000a900473ffffffffffffffffffffffffffffffffffffffff1673ffffffffffffffffffffffffffffffffffffffff1603610d9e576040517f08c379a0000000000000000000000000000000000000000000000000000000008152600401610d9590612559565b60405180910390fd5b8260025f8673ffffffffffffffffffffffffffffffffffffffff1673ffffffffffffffffffffffffffffffffffffffff1681526020019081526020015f205f6101000a81548173ffffffffffffffffffffffffffffffffffffffff021916908373ffffffffffffffffffffffffffffffffffffffff16021790555060045f8473ffffffffffffffffffffffffffffffffffffffff1673ffffffffffffffffffffffffffffffffffffffff1681526020019081526020015f205f815480929190610e6690612460565b919050555060055f8373ffffffffffffffffffffffffffffffffffffffff1673ffffffffffffffffffffffffffffffffffffffff1681526020019081526020015f205f8473ffffffffffffffffffffffffffffffffffffffff1673ffffffffffffffffffffffffffffffffffffffff1681526020019081526020015f205f815480929190610ef390612460565b9190505550610f028284611c5d565b8173ffffffffffffffffffffffffffffffffffffffff16632479158282866040518363ffffffff1660e01b8152600401610f3d929190612586565b5f604051808303815f87803b158015610f54575f80fd5b505af1158015610f66573d5f803e3d5ffd5b505050508173ffffffffffffffffffffffffffffffffffffffff168373ffffffffffffffffffffffffffffffffffffffff168573ffffffffffffffffffffffffffffffffffffffff167ff77ceda10f93abd95675fa79d02385eba732321550762a4b7d3a796cd0d203da84604051610fde91906125ad565b60405180910390a450505050565b5f73ffffffffffffffffffffffffffffffffffffffff168273ffffffffffffffffffffffffffffffffffffffff161415801561105457505f73ffffffffffffffffffffffffffffffffffffffff168173ffffffffffffffffffffffffffffffffffffffff1614155b611093576040517f08c379a000000000000000000000000000000000000000000000000000000000815260040161108a906123ad565b60405180910390fd5b5f73ffffffffffffffffffffffffffffffffffffffff1660025f8473ffffffffffffffffffffffffffffffffffffffff1673ffffffffffffffffffffffffffffffffffffffff1681526020019081526020015f205f9054906101000a900473ffffffffffffffffffffffffffffffffffffffff1673ffffffffffffffffffffffffffffffffffffffff161461115d576040517f08c379a0000000000000000000000000000000000000000000000000000000008152600401611154906124f1565b60405180910390fd5b5f73ffffffffffffffffffffffffffffffffffffffff1660025f8373ffffffffffffffffffffffffffffffffffffffff1673ffffffffffffffffffffffffffffffffffffffff1681526020019081526020015f205f9054906101000a900473ffffffffffffffffffffffffffffffffffffffff1673ffffffffffffffffffffffffffffffffffffffff1603611227576040517f08c379a000000000000000000000000000000000000000000000000000000000815260040161121e90612559565b60405180910390fd5b8060025f8473ffffffffffffffffffffffffffffffffffffffff1673ffffffffffffffffffffffffffffffffffffffff1681526020019081526020015f205f6101000a81548173ffffffffffffffffffffffffffffffffffffffff021916908373ffffffffffffffffffffffffffffffffffffffff16021790555060045f8273ffffffffffffffffffffffffffffffffffffffff1673ffffffffffffffffffffffffffffffffffffffff1681526020019081526020015f205f8154809291906112ef90612460565b91905055508073ffffffffffffffffffffffffffffffffffffffff168273ffffffffffffffffffffffffffffffffffffffff167f17bda83332f1264286fc804f00d91fb81fe54254a537f8fe83b9d82fbbc54ea960405160405180910390a35050565b61135a611e92565b604051806040016040528060025f8573ffffffffffffffffffffffffffffffffffffffff1673ffffffffffffffffffffffffffffffffffffffff1681526020019081526020015f205f9054906101000a900473ffffffffffffffffffffffffffffffffffffffff1673ffffffffffffffffffffffffffffffffffffffff1673ffffffffffffffffffffffffffffffffffffffff16815260200160025f60025f8773ffffffffffffffffffffffffffffffffffffffff1673ffffffffffffffffffffffffffffffffffffffff1681526020019081526020015f205f9054906101000a900473ffffffffffffffffffffffffffffffffffffffff1673ffffffffffffffffffffffffffffffffffffffff1673ffffffffffffffffffffffffffffffffffffffff1681526020019081526020015f205f9054906101000a900473ffffffffffffffffffffffffffffffffffffffff1673ffffffffffffffffffffffffffffffffffffffff1673ffffffffffffffffffffffffffffffffffffffff168152509050919050565b5f8054906101000a900473ffffffffffffffffffffffffffffffffffffffff1673ffffffffffffffffffffffffffffffffffffffff163373ffffffffffffffffffffffffffffffffffffffff161461156f576040517f08c379a000000000000000000000000000000000000000000000000000000000815260040161156690612610565b60405180910390fd5b5f73ffffffffffffffffffffffffffffffffffffffff1660015f9054906101000a900473ffffffffffffffffffffffffffffffffffffffff1673ffffffffffffffffffffffffffffffffffffffff16146115fe576040517f08c379a00000000000000000000000000000000000000000000000000000000081526004016115f590612678565b60405180910390fd5b5f73ffffffffffffffffffffffffffffffffffffffff168173ffffffffffffffffffffffffffffffffffffffff160361166c576040517f08c379a0000000000000000000000000000000000000000000000000000000008152600401611663906126e0565b60405180910390fd5b8060015f6101000a81548173ffffffffffffffffffffffffffffffffffffffff021916908373ffffffffffffffffffffffffffffffffffffffff16021790555050565b6116b7611eb4565b5f6116c284846117f7565b9050604051806060016040528060025f8673ffffffffffffffffffffffffffffffffffffffff1673ffffffffffffffffffffffffffffffffffffffff1681526020019081526020015f205f9054906101000a900473ffffffffffffffffffffffffffffffffffffffff1673ffffffffffffffffffffffffffffffffffffffff1673ffffffffffffffffffffffffffffffffffffffff168152602001825f600281106117705761176f6126fe565b5b602002015173ffffffffffffffffffffffffffffffffffffffff1673ffffffffffffffffffffffffffffffffffffffff168152602001826001600281106117ba576117b96126fe565b5b602002015173ffffffffffffffffffffffffffffffffffffffff1673ffffffffffffffffffffffffffffffffffffffff1681525091505092915050565b6117ff611e92565b5f803073ffffffffffffffffffffffffffffffffffffffff1660025f8673ffffffffffffffffffffffffffffffffffffffff1673ffffffffffffffffffffffffffffffffffffffff1681526020019081526020015f205f9054906101000a900473ffffffffffffffffffffffffffffffffffffffff1673ffffffffffffffffffffffffffffffffffffffff16141580156118fb57506118fa8560025f8773ffffffffffffffffffffffffffffffffffffffff1673ffffffffffffffffffffffffffffffffffffffff1681526020019081526020015f205f9054906101000a900473ffffffffffffffffffffffffffffffffffffffff16610280565b5b156119605760025f8573ffffffffffffffffffffffffffffffffffffffff1673ffffffffffffffffffffffffffffffffffffffff1681526020019081526020015f205f9054906101000a900473ffffffffffffffffffffffffffffffffffffffff1691505b3073ffffffffffffffffffffffffffffffffffffffff1660025f60025f8873ffffffffffffffffffffffffffffffffffffffff1673ffffffffffffffffffffffffffffffffffffffff1681526020019081526020015f205f9054906101000a900473ffffffffffffffffffffffffffffffffffffffff1673ffffffffffffffffffffffffffffffffffffffff1673ffffffffffffffffffffffffffffffffffffffff1681526020019081526020015f205f9054906101000a900473ffffffffffffffffffffffffffffffffffffffff1673ffffffffffffffffffffffffffffffffffffffff1614158015611b125750611b118560025f60025f8973ffffffffffffffffffffffffffffffffffffffff1673ffffffffffffffffffffffffffffffffffffffff1681526020019081526020015f205f9054906101000a900473ffffffffffffffffffffffffffffffffffffffff1673ffffffffffffffffffffffffffffffffffffffff1673ffffffffffffffffffffffffffffffffffffffff1681526020019081526020015f205f9054906101000a900473ffffffffffffffffffffffffffffffffffffffff16610280565b5b15611bd35760025f60025f8773ffffffffffffffffffffffffffffffffffffffff1673ffffffffffffffffffffffffffffffffffffffff1681526020019081526020015f205f9054906101000a900473ffffffffffffffffffffffffffffffffffffffff1673ffffffffffffffffffffffffffffffffffffffff1673ffffffffffffffffffffffffffffffffffffffff1681526020019081526020015f205f9054906101000a900473ffffffffffffffffffffffffffffffffffffffff1690505b60405180604001604052808373ffffffffffffffffffffffffffffffffffffffff1673ffffffffffffffffffffffffffffffffffffffff1681526020018273ffffffffffffffffffffffffffffffffffffffff1673ffffffffffffffffffffffffffffffffffffffff168152509250505092915050565b5f80611c54611e69565b90508091505090565b3073ffffffffffffffffffffffffffffffffffffffff168173ffffffffffffffffffffffffffffffffffffffff1614158015611de4575060055f8373ffffffffffffffffffffffffffffffffffffffff1673ffffffffffffffffffffffffffffffffffffffff1681526020019081526020015f205f60065f8573ffffffffffffffffffffffffffffffffffffffff1673ffffffffffffffffffffffffffffffffffffffff1681526020019081526020015f205f9054906101000a900473ffffffffffffffffffffffffffffffffffffffff1673ffffffffffffffffffffffffffffffffffffffff1673ffffffffffffffffffffffffffffffffffffffff1681526020019081526020015f205460055f8473ffffffffffffffffffffffffffffffffffffffff1673ffffffffffffffffffffffffffffffffffffffff1681526020019081526020015f205f8373ffffffffffffffffffffffffffffffffffffffff1673ffffffffffffffffffffffffffffffffffffffff1681526020019081526020015f2054115b15611e65578060065f8473ffffffffffffffffffffffffffffffffffffffff1673ffffffffffffffffffffffffffffffffffffffff1681526020019081526020015f205f6101000a81548173ffffffffffffffffffffffffffffffffffffffff021916908373ffffffffffffffffffffffffffffffffffffffff1602179055505b5050565b5f7ff0c57e16840df040f15088dc2f81fe391c3923bec73e23a9662efc9c229c6a005f1b905090565b6040518060400160405280600290602082028036833780820191505090505090565b6040518060600160405280600390602082028036833780820191505090505090565b5f80fd5b5f73ffffffffffffffffffffffffffffffffffffffff82169050919050565b5f611f0382611eda565b9050919050565b611f1381611ef9565b8114611f1d575f80fd5b50565b5f81359050611f2e81611f0a565b92915050565b5f8060408385031215611f4a57611f49611ed6565b5b5f611f5785828601611f20565b9250506020611f6885828601611f20565b9150509250929050565b5f8115159050919050565b611f8681611f72565b82525050565b5f602082019050611f9f5f830184611f7d565b92915050565b5f60208284031215611fba57611fb9611ed6565b5b5f611fc784828501611f20565b91505092915050565b611fd981611ef9565b82525050565b5f602082019050611ff25f830184611fd0565b92915050565b5f819050919050565b61200a81611ff8565b82525050565b5f6020820190506120235f830184612001565b92915050565b5f6fffffffffffffffffffffffffffffffff82169050919050565b61204d81612029565b8114612057575f80fd5b50565b5f8135905061206881612044565b92915050565b5f805f806080858703121561208657612085611ed6565b5b5f61209387828801611f20565b94505060206120a487828801611f20565b93505060406120b587828801611f20565b92505060606120c68782880161205a565b91505092959194509250565b5f60029050919050565b5f81905092915050565b5f819050919050565b6120f881611ef9565b82525050565b5f61210983836120ef565b60208301905092915050565b5f602082019050919050565b61212a816120d2565b61213481846120dc565b925061213f826120e6565b805f5b8381101561216f57815161215687826120fe565b965061216183612115565b925050600181019050612142565b505050505050565b5f60408201905061218a5f830184612121565b92915050565b5f60039050919050565b5f81905092915050565b5f819050919050565b5f602082019050919050565b6121c281612190565b6121cc818461219a565b92506121d7826121a4565b805f5b838110156122075781516121ee87826120fe565b96506121f9836121ad565b9250506001810190506121da565b505050505050565b5f6060820190506122225f8301846121b9565b92915050565b5f819050919050565b5f67ffffffffffffffff82169050919050565b5f819050919050565b5f61226761226261225d84612228565b612244565b612231565b9050919050565b6122778161224d565b82525050565b5f6020820190506122905f83018461226e565b92915050565b61229f81611f72565b81146122a9575f80fd5b50565b5f815190506122ba81612296565b92915050565b5f602082840312156122d5576122d4611ed6565b5b5f6122e2848285016122ac565b91505092915050565b5f82825260208201905092915050565b7f496e76616c69642063616c6c65720000000000000000000000000000000000005f82015250565b5f61232f600e836122eb565b915061233a826122fb565b602082019050919050565b5f6020820190508181035f83015261235c81612323565b9050919050565b7f496e76616c696420696e707574730000000000000000000000000000000000005f82015250565b5f612397600e836122eb565b91506123a282612363565b602082019050919050565b5f6020820190508181035f8301526123c48161238b565b9050919050565b7f556e72656769737465726564206163636f756e740000000000000000000000005f82015250565b5f6123ff6014836122eb565b915061240a826123cb565b602082019050919050565b5f6020820190508181035f83015261242c816123f3565b9050919050565b7f4e487b71000000000000000000000000000000000000000000000000000000005f52601160045260245ffd5b5f61246a82611ff8565b91507fffffffffffffffffffffffffffffffffffffffffffffffffffffffffffffffff820361249c5761249b612433565b5b600182019050919050565b7f4163636f756e7420616c726561647920726567697374657265640000000000005f82015250565b5f6124db601a836122eb565b91506124e6826124a7565b602082019050919050565b5f6020820190508181035f830152612508816124cf565b9050919050565b7f556e726567697374657265642073706f6e736f720000000000000000000000005f82015250565b5f6125436014836122eb565b915061254e8261250f565b602082019050919050565b5f6020820190508181035f83015261257081612537565b9050919050565b61258081612029565b82525050565b5f6040820190506125995f830185612577565b6125a66020830184611fd0565b9392505050565b5f6020820190506125c05f830184612577565b92915050565b7f556e617574686f72697a656400000000000000000000000000000000000000005f82015250565b5f6125fa600c836122eb565b9150612605826125c6565b602082019050919050565b5f6020820190508181035f830152612627816125ee565b9050919050565b7f466163746f727920636f6e747261637420616c726561647920736574000000005f82015250565b5f612662601c836122eb565b915061266d8261262e565b602082019050919050565b5f6020820190508181035f83015261268f81612656565b9050919050565b7f496e76616c696420696e707574000000000000000000000000000000000000005f82015250565b5f6126ca600d836122eb565b91506126d582612696565b602082019050919050565b5f6020820190508181035f8301526126f7816126be565b9050919050565b7f4e487b71000000000000000000000000000000000000000000000000000000005f52603260045260245ffdfea26469706673582212200d89716951b5bf166e1f7e5e7410d1931cb224168350a9c9d665f8ad589c631664736f6c63430008150033",
  "immutableReferences": {},
  "source": "// SPDX-License-Identifier: MIT\npragma solidity ^0.8.20;\n\nimport \"@openzeppelin/contracts-upgradeable/proxy/utils/Initializable.sol\";\n\nimport \"../interfaces/ISponsors.sol\";\nimport \"../interfaces/ILotteryFactory.sol\";\nimport \"../interfaces/ILottery.sol\";\n\ncontract Sponsors is Initializable, ISponsors {\n    //////////////////////////////////////////////////////////////////////////////////////////////////\n    // State\n    //////////////////////////////////////////////////////////////////////////////////////////////////\n\n    address private s_creator;\n    address private s_factoryContract;\n\n    mapping(address account => address sponsor) private s_directSponsor;\n    mapping(address lottery => mapping(address account => bool activated)) private s_active;\n\n    mapping(address account => uint256 numAccountsSponsored) private s_numAccountsSponsored;\n    mapping(address lottery => mapping(address account => uint256 numActivatedAccountsSponsored)) private s_numActivatedAccountsSponsored;\n    mapping(address lottery => address accountWithMaxActivatedSponsors) private s_accountWithMaxActivatedSponsors;\n\n    //////////////////////////////////////////////////////////////////////////////////////////////////\n    // Initialization\n    ////////////////////////////////////////////////////////////////////////////////////////////////// \n\n    function initialize() initializer public {\n        s_creator = msg.sender;\n        s_directSponsor[address(this)] = address(this);\n    }\n\n    /// @custom:oz-upgrades-unsafe-allow constructor\n    constructor() { _disableInitializers(); }\n\n    //////////////////////////////////////////////////////////////////////////////////////////////////\n    // Public functions\n    //////////////////////////////////////////////////////////////////////////////////////////////////\n\n    // => Get functions\n\n    function sponsors(address p_account) public view override returns(address[2] memory) { \n        return [s_directSponsor[p_account], s_directSponsor[s_directSponsor[p_account]]];\n    }\n\n    function numAccountsSponsored(address p_account) public view override returns(uint256) {\n        return s_numAccountsSponsored[p_account];\n    }\n\n    function activatedSponsors(address p_lottery, address p_account) public view override returns(address[2] memory) { \n        address _directSponsor;\n        address _indirectSponsor;\n\n        if (s_directSponsor[p_account] != address(this) && checkActive(p_lottery, s_directSponsor[p_account])) {\n            _directSponsor = s_directSponsor[p_account]; \n        }\n\n        if (s_directSponsor[s_directSponsor[p_account]] != address(this) && checkActive(p_lottery, s_directSponsor[s_directSponsor[p_account]])) { \n            _indirectSponsor = s_directSponsor[s_directSponsor[p_account]]; \n        }\n\n        return [_directSponsor, _indirectSponsor]; \n    }\n\n    function buyerSponsors(address p_lottery, address p_account) public view override returns(address[3] memory) { \n        address[2] memory _activatedSponsors = activatedSponsors(p_lottery, p_account);\n        return [\n            s_directSponsor[p_account],\n            _activatedSponsors[0],\n            _activatedSponsors[1]\n        ]; \n    }\n\n    function checkActive(address p_lottery, address p_account) public view override returns(bool) {\n        return s_active[p_lottery][p_account];\n    }\n\n    function numActivatedAccountsSponsored(address p_lottery, address p_account) public view override returns(uint256) {\n        return s_numActivatedAccountsSponsored[p_lottery][p_account];\n    } \n\n    function accountWithMaxActivatedSponsors(address p_lottery) public view override returns(address) {\n        return s_accountWithMaxActivatedSponsors[p_lottery]; \n    } \n\n    // => Set functions\n\n    function setFactoryContract(address p_factoryContract) public override {\n        require(msg.sender == s_creator, \"Unauthorized\");\n        require(s_factoryContract == address(0), \"Factory contract already set\");\n        require(p_factoryContract != address(0), \"Invalid input\");\n\n        s_factoryContract = p_factoryContract; \n    }\n\n    function registerAccountWithLottery(address p_buyer, address p_sponsor, address p_lottery, uint128 p_numberBoxes) public override {\n        require(\n            p_buyer != address(0) && p_sponsor != address(0) && p_lottery != address(0),\n            \"Invalid inputs\"\n        );\n        require(s_directSponsor[p_buyer] == address(0), \"Account already registered\");\n        require(s_directSponsor[p_sponsor] != address(0), \"Unregistered sponsor\");\n\n        s_directSponsor[p_buyer] = p_sponsor;\n        s_numAccountsSponsored[p_sponsor]++;\n        s_numActivatedAccountsSponsored[p_lottery][p_sponsor]++;\n\n        _updateAccountWithMaxSponsors(p_lottery, p_sponsor);\n\n        ILottery(p_lottery).buyBoxes(p_numberBoxes, p_buyer);\n\n        emit AccountRegisteredWithLottery(p_buyer, p_sponsor, p_lottery, p_numberBoxes);\n    }\n\n    function registerAccountWithoutLottery(address p_account, address p_sponsor) public override {\n        require(p_account != address(0) && p_sponsor != address(0), \"Invalid inputs\");\n        require(s_directSponsor[p_account] == address(0), \"Account already registered\");\n        require(s_directSponsor[p_sponsor] != address(0), \"Unregistered sponsor\");\n\n        s_directSponsor[p_account] = p_sponsor;\n        s_numAccountsSponsored[p_sponsor]++;\n\n        emit AccountRegisteredWithoutLottery(p_account, p_sponsor);\n    }\n\n    function activateAccount(address p_account) public override {\n        require(ILotteryFactory(s_factoryContract).lotteryFlag(msg.sender), \"Invalid caller\");\n        require(p_account != address(0), \"Invalid inputs\");\n        require(s_directSponsor[p_account] != address(0), \"Unregistered account\");\n\n        if (!s_active[msg.sender][p_account]) {\n            s_active[msg.sender][p_account] = true;\n            s_numActivatedAccountsSponsored[msg.sender][s_directSponsor[p_account]]++; \n\n            _updateAccountWithMaxSponsors(msg.sender, s_directSponsor[p_account]);\n\n            emit AccountActivated(p_account);\n        }\n    }\n\n    //////////////////////////////////////////////////////////////////////////////////////////////////\n    // Internal / Private functions\n    //////////////////////////////////////////////////////////////////////////////////////////////////\n\n    function _updateAccountWithMaxSponsors(address p_lottery, address p_sponsor) private {\n        if (\n            p_sponsor != address(this) && \n            s_numActivatedAccountsSponsored[p_lottery][p_sponsor] > \n            s_numActivatedAccountsSponsored[p_lottery][s_accountWithMaxActivatedSponsors[p_lottery]]\n        ) {\n            s_accountWithMaxActivatedSponsors[p_lottery] = p_sponsor;\n        }\n    }\n}\n",
  "sourcePath": "/Users/johancard/Downloads/Copia de lottery-main 4/contracts/Sponsors.sol",
  "compiler": {
    "name": "solc",
    "version": "0.8.21+commit.d9974bed.Emscripten.clang"
  },
  "schemaVersion": "3.4.16",
  "updatedAt": "2025-12-08T18:57:55.105Z",
  "devdoc": {
    "errors": {
      "InvalidInitialization()": [
        {
          "details": "The contract is already initialized."
        }
      ],
      "NotInitializing()": [
        {
          "details": "The contract is not initializing."
        }
      ]
    },
    "events": {
      "Initialized(uint64)": {
        "details": "Triggered when the contract has been initialized or reinitialized."
      }
    },
    "kind": "dev",
    "methods": {
      "constructor": {
        "custom:oz-upgrades-unsafe-allow": "constructor"
      }
    },
    "version": 1
  },
  "userdoc": {
    "kind": "user",
    "methods": {},
    "version": 1
  }
}